{
  "contractName": "ERC1155Gateway_LILO",
  "abi": [
    {
      "inputs": [
        {
          "internalType": "address",
          "name": "anyCallProxy",
          "type": "address"
        },
        {
          "internalType": "address",
          "name": "token",
          "type": "address"
        }
      ],
      "stateMutability": "nonpayable",
      "type": "constructor"
    },
    {
      "anonymous": false,
      "inputs": [
        {
          "indexed": false,
          "internalType": "address",
          "name": "admin",
          "type": "address"
        }
      ],
      "name": "LogAcceptAdmin",
      "type": "event"
    },
    {
      "anonymous": false,
      "inputs": [
        {
          "indexed": false,
          "internalType": "uint256",
          "name": "tokenId",
          "type": "uint256"
        },
        {
          "indexed": false,
          "internalType": "address",
          "name": "sender",
          "type": "address"
        },
        {
          "indexed": false,
          "internalType": "address",
          "name": "receiver",
          "type": "address"
        },
        {
          "indexed": false,
          "internalType": "uint256",
          "name": "toChainID",
          "type": "uint256"
        },
        {
          "indexed": false,
          "internalType": "uint256",
          "name": "swapoutSeq",
          "type": "uint256"
        }
      ],
      "name": "LogAnySwapOut",
      "type": "event"
    },
    {
      "anonymous": false,
      "inputs": [
        {
          "indexed": false,
          "internalType": "address",
          "name": "admin",
          "type": "address"
        }
      ],
      "name": "LogSetAdmin",
      "type": "event"
    },
    {
      "anonymous": false,
      "inputs": [
        {
          "indexed": false,
          "internalType": "address",
          "name": "oldadmin",
          "type": "address"
        },
        {
          "indexed": false,
          "internalType": "address",
          "name": "newadmin",
          "type": "address"
        }
      ],
      "name": "LogTransferAdmin",
      "type": "event"
    },
    {
      "inputs": [
        {
          "internalType": "uint256",
          "name": "tokenId",
          "type": "uint256"
        },
        {
          "internalType": "uint256",
          "name": "amount",
          "type": "uint256"
        },
        {
          "internalType": "address",
          "name": "receiver",
          "type": "address"
        },
        {
          "internalType": "uint256",
          "name": "destChainID",
          "type": "uint256"
        }
      ],
      "name": "Swapout",
      "outputs": [
        {
          "internalType": "uint256",
          "name": "",
          "type": "uint256"
        }
      ],
      "stateMutability": "payable",
      "type": "function"
    },
    {
      "inputs": [
        {
          "internalType": "uint256",
          "name": "tokenId",
          "type": "uint256"
        },
        {
          "internalType": "uint256",
          "name": "amount",
          "type": "uint256"
        },
        {
          "internalType": "address",
          "name": "receiver",
          "type": "address"
        },
        {
          "internalType": "uint256",
          "name": "destChainID",
          "type": "uint256"
        }
      ],
      "name": "Swapout_no_fallback",
      "outputs": [
        {
          "internalType": "uint256",
          "name": "",
          "type": "uint256"
        }
      ],
      "stateMutability": "payable",
      "type": "function"
    },
    {
      "inputs": [],
      "name": "acceptAdmin",
      "outputs": [],
      "stateMutability": "nonpayable",
      "type": "function"
    },
    {
      "inputs": [],
      "name": "admin",
      "outputs": [
        {
          "internalType": "address",
          "name": "",
          "type": "address"
        }
      ],
      "stateMutability": "view",
      "type": "function"
    },
    {
      "inputs": [],
      "name": "anyCallProxy",
      "outputs": [
        {
          "internalType": "address",
          "name": "",
          "type": "address"
        }
      ],
      "stateMutability": "view",
      "type": "function"
    },
    {
      "inputs": [
        {
          "internalType": "bytes",
          "name": "data",
          "type": "bytes"
        }
      ],
      "name": "anyExecute",
      "outputs": [
        {
          "internalType": "bool",
          "name": "success",
          "type": "bool"
        },
        {
          "internalType": "bytes",
          "name": "result",
          "type": "bytes"
        }
      ],
      "stateMutability": "nonpayable",
      "type": "function"
    },
    {
      "inputs": [
        {
          "internalType": "address",
          "name": "to",
          "type": "address"
        },
        {
          "internalType": "bytes",
          "name": "data",
          "type": "bytes"
        }
      ],
      "name": "anyFallback",
      "outputs": [],
      "stateMutability": "nonpayable",
      "type": "function"
    },
    {
      "inputs": [
        {
          "internalType": "address",
          "name": "to",
          "type": "address"
        }
      ],
      "name": "collectFee",
      "outputs": [
        {
          "internalType": "bool",
          "name": "",
          "type": "bool"
        }
      ],
      "stateMutability": "nonpayable",
      "type": "function"
    },
    {
      "inputs": [],
      "name": "flag",
      "outputs": [
        {
          "internalType": "uint256",
          "name": "",
          "type": "uint256"
        }
      ],
      "stateMutability": "view",
      "type": "function"
    },
    {
      "inputs": [
        {
          "internalType": "uint256",
          "name": "foreignChainID",
          "type": "uint256"
        }
      ],
      "name": "getPeer",
      "outputs": [
        {
          "internalType": "address",
          "name": "",
          "type": "address"
        }
      ],
      "stateMutability": "view",
      "type": "function"
    },
    {
      "inputs": [],
      "name": "name",
      "outputs": [
        {
          "internalType": "string",
          "name": "",
          "type": "string"
        }
      ],
      "stateMutability": "view",
      "type": "function"
    },
    {
      "inputs": [
        {
          "internalType": "uint256",
          "name": "",
          "type": "uint256"
        }
      ],
      "name": "peer",
      "outputs": [
        {
          "internalType": "address",
          "name": "",
          "type": "address"
        }
      ],
      "stateMutability": "view",
      "type": "function"
    },
    {
      "inputs": [],
      "name": "pendingAdmin",
      "outputs": [
        {
          "internalType": "address",
          "name": "",
          "type": "address"
        }
      ],
      "stateMutability": "view",
      "type": "function"
    },
    {
      "inputs": [
        {
          "internalType": "uint256",
          "name": "",
          "type": "uint256"
        }
      ],
      "name": "price",
      "outputs": [
        {
          "internalType": "uint256",
          "name": "",
          "type": "uint256"
        }
      ],
      "stateMutability": "view",
      "type": "function"
    },
    {
      "inputs": [
        {
          "internalType": "address",
          "name": "proxy",
          "type": "address"
        }
      ],
      "name": "setAnyCallProxy",
      "outputs": [],
      "stateMutability": "nonpayable",
      "type": "function"
    },
    {
      "inputs": [
        {
          "internalType": "uint256[]",
          "name": "chainIDs",
          "type": "uint256[]"
        },
        {
          "internalType": "address[]",
          "name": "peers",
          "type": "address[]"
        }
      ],
      "name": "setForeignGateway",
      "outputs": [],
      "stateMutability": "nonpayable",
      "type": "function"
    },
    {
      "inputs": [
        {
          "internalType": "uint256[]",
          "name": "chainIDs",
          "type": "uint256[]"
        },
        {
          "internalType": "address[]",
          "name": "peers",
          "type": "address[]"
        }
      ],
      "name": "setPeers",
      "outputs": [],
      "stateMutability": "nonpayable",
      "type": "function"
    },
    {
      "inputs": [
        {
          "internalType": "uint256[]",
          "name": "chainIDs",
          "type": "uint256[]"
        },
        {
          "internalType": "uint256[]",
          "name": "prices",
          "type": "uint256[]"
        }
      ],
      "name": "setPrice",
      "outputs": [],
      "stateMutability": "nonpayable",
      "type": "function"
    },
    {
      "inputs": [],
      "name": "swapoutSeq",
      "outputs": [
        {
          "internalType": "uint256",
          "name": "",
          "type": "uint256"
        }
      ],
      "stateMutability": "view",
      "type": "function"
    },
    {
      "inputs": [],
      "name": "token",
      "outputs": [
        {
          "internalType": "address",
          "name": "",
          "type": "address"
        }
      ],
      "stateMutability": "view",
      "type": "function"
    },
    {
      "inputs": [
        {
          "internalType": "address",
          "name": "newAdmin",
          "type": "address"
        }
      ],
      "name": "transferAdmin",
      "outputs": [],
      "stateMutability": "nonpayable",
      "type": "function"
    }
  ],
  "bytecode": "0x60806040523480156200001157600080fd5b5060405162001cff38038062001cff8339810160408190526200003491620000fc565b600380546001600160a01b0319166001600160a01b0384161790556000600255818162000061336200008b565b600580546001600160a01b0319166001600160a01b03929092169190911790555062000133915050565b600080546001600160a01b0319166001600160a01b0383169081179091556040519081527fd9be138201bddb701e32a38e3dff605053c22b8f66e2a46b7f3aec9091f5a4149060200160405180910390a150565b80516001600160a01b0381168114620000f757600080fd5b919050565b600080604083850312156200010f578182fd5b6200011a83620000df565b91506200012a60208401620000df565b90509250929050565b611bbc80620001436000396000f3fe60806040526004361061012a5760003560e01c80639abaf479116100ab578063c0bdd63e1161006f578063c0bdd63e1461036d578063d08866811461038d578063e41f9ef3146103a0578063f44a8afe146103c0578063f851a440146103e0578063fc0c546a1461040057600080fd5b80639abaf479146102d65780639cbe907114610304578063a35fe8bf14610317578063a3d5645714610337578063a48ba5c61461034d57600080fd5b80632de2c8ad116100f25780632de2c8ad1461021a57806367ebb6b21461023a57806369b59e751461027057806375829def146102a0578063890eba68146102c057600080fd5b806306fdde031461012f5780630e18b6811461015a578063116a01a41461017157806326782247146101bf57806326a49e37146101df575b600080fd5b34801561013b57600080fd5b50610144610420565b60405161015191906119ee565b60405180910390f35b34801561016657600080fd5b5061016f6104ae565b005b34801561017d57600080fd5b506101a761018c366004611808565b6004602052600090815260409020546001600160a01b031681565b6040516001600160a01b039091168152602001610151565b3480156101cb57600080fd5b506001546101a7906001600160a01b031681565b3480156101eb57600080fd5b5061020c6101fa366004611808565b60086020526000908152604090205481565b604051908152602001610151565b34801561022657600080fd5b5061016f6102353660046116a4565b610523565b34801561024657600080fd5b506101a7610255366004611808565b6000908152600460205260409020546001600160a01b031690565b34801561027c57600080fd5b5061029061028b366004611523565b6105e4565b6040519015158152602001610151565b3480156102ac57600080fd5b5061016f6102bb366004611523565b610658565b3480156102cc57600080fd5b5061020c60025481565b3480156102e257600080fd5b506102f66102f136600461175e565b6106d0565b6040516101519291906119d3565b61020c6103123660046118d7565b6108ef565b34801561032357600080fd5b5061016f610332366004611562565b6109f7565b34801561034357600080fd5b5061020c60065481565b34801561035957600080fd5b5061016f6103683660046115eb565b610be9565b34801561037957600080fd5b5061016f610388366004611523565b610cb7565b61020c61039b3660046118d7565b610cf0565b3480156103ac57600080fd5b5061016f6103bb366004611654565b610d92565b3480156103cc57600080fd5b506003546101a7906001600160a01b031681565b3480156103ec57600080fd5b506000546101a7906001600160a01b031681565b34801561040c57600080fd5b506005546101a7906001600160a01b031681565b6007805461042d90611af6565b80601f016020809104026020016040519081016040528092919081815260200182805461045990611af6565b80156104a65780601f1061047b576101008083540402835291602001916104a6565b820191906000526020600020905b81548152906001019060200180831161048957829003601f168201915b505050505081565b6001546001600160a01b031633146104c557600080fd5b60018054600080546001600160a01b0383166001600160a01b031991821681179092559091169091556040519081527f803a94fb89b71a5b6268fe4f2ebd6f3883e006a025caa59244b9db7b150cb16d9060200160405180910390a1565b6000546001600160a01b0316331461053a57600080fd5b60005b82518110156105df5781818151811061056657634e487b7160e01b600052603260045260246000fd5b60200260200101516004600085848151811061059257634e487b7160e01b600052603260045260246000fd5b6020026020010151815260200190815260200160002060006101000a8154816001600160a01b0302191690836001600160a01b0316021790555080806105d790611b31565b91505061053d565b505050565b600080546001600160a01b031633146105fc57600080fd5b6000826001600160a01b03164760405160006040518083038185875af1925050503d8060008114610649576040519150601f19603f3d011682016040523d82523d6000602084013e61064e565b606091505b5090949350505050565b6000546001600160a01b0316331461066f57600080fd5b600180546001600160a01b038381166001600160a01b031983168117909355604080519190921680825260208201939093527f0ad836e1614da10ff391cfc802a39f547f3cdc42900fa72de16b085855c169d5910160405180910390a15050565b60006060600360009054906101000a90046001600160a01b03166001600160a01b031663c34c08e56040518163ffffffff1660e01b815260040160206040518083038186803b15801561072257600080fd5b505afa158015610736573d6000803e3d6000fd5b505050506040513d601f19601f8201168201806040525081019061075a9190611546565b6001600160a01b0316336001600160a01b03161461077757600080fd5b600080600360009054906101000a90046001600160a01b03166001600160a01b031663c34c08e56040518163ffffffff1660e01b815260040160206040518083038186803b1580156107c857600080fd5b505afa1580156107dc573d6000803e3d6000fd5b505050506040513d601f19601f820116820180604052508101906108009190611546565b6001600160a01b031663d0496d6a6040518163ffffffff1660e01b8152600401606060405180830381600087803b15801561083a57600080fd5b505af115801561084e573d6000803e3d6000fd5b505050506040513d601f19601f8201168201806040525081019061087291906115b5565b5060008181526004602052604090205491935091506001600160a01b038084169116146108d95760405162461bcd60e51b815260206004820152601060248201526f18d85b1b081b9bdd08185b1b1bddd95960821b60448201526064015b60405180910390fd5b6108e4818787610e37565b505050509250929050565b60008181526008602052604081205434101561090a57600080fd5b600080610918338888610e76565b915091508161092657600080fd5b6006805490600061093683611b31565b91905055506000878733886006548660405160200161095a96959493929190611a01565b60408051601f1981840301815291815260008781526004602052205490915061098e906001600160a01b0316823088610f8f565b600654604080518a81523360208201526001600160a01b03891681830152606081018890526080810192909252517f9584dfe28ed6ab973c2414e759ff69aeb2d5447efc8c1e575facfc10c8868c469181900360a00190a160065493505050505b949350505050565b600360009054906101000a90046001600160a01b03166001600160a01b031663c34c08e56040518163ffffffff1660e01b815260040160206040518083038186803b158015610a4557600080fd5b505afa158015610a59573d6000803e3d6000fd5b505050506040513d601f19601f82011682018060405250810190610a7d9190611546565b6001600160a01b0316336001600160a01b031614610a9a57600080fd5b6003546040805163c34c08e560e01b815290516000926001600160a01b03169163c34c08e5916004808301926020929190829003018186803b158015610adf57600080fd5b505afa158015610af3573d6000803e3d6000fd5b505050506040513d601f19601f82011682018060405250810190610b179190611546565b6001600160a01b031663d0496d6a6040518163ffffffff1660e01b8152600401606060405180830381600087803b158015610b5157600080fd5b505af1158015610b65573d6000803e3d6000fd5b505050506040513d601f19601f82011682018060405250810190610b8991906115b5565b5090915050306001600160a01b03821614610bd95760405162461bcd60e51b815260206004820152601060248201526f18d85b1b081b9bdd08185b1b1bddd95960821b60448201526064016108d0565b610be3838361107e565b50505050565b6000546001600160a01b03163314610c0057600080fd5b60005b83811015610cb057828282818110610c2b57634e487b7160e01b600052603260045260246000fd5b9050602002016020810190610c409190611523565b60046000878785818110610c6457634e487b7160e01b600052603260045260246000fd5b90506020020135815260200190815260200160002060006101000a8154816001600160a01b0302191690836001600160a01b031602179055508080610ca890611b31565b915050610c03565b5050505050565b6000546001600160a01b03163314610cce57600080fd5b600380546001600160a01b0319166001600160a01b0392909216919091179055565b600081815260086020526040812054341015610d0b57600080fd5b600080610d19338888610e76565b9150915081610d2757600080fd5b60068054906000610d3783611b31565b919050555060008787338860065486604051602001610d5b96959493929190611a01565b60408051601f19818403018152918152600087815260046020529081205491925061098e916001600160a01b031690839088610f8f565b6000546001600160a01b03163314610da957600080fd5b828114610db557600080fd5b60005b83811015610cb057828282818110610de057634e487b7160e01b600052603260045260246000fd5b9050602002013560086000878785818110610e0b57634e487b7160e01b600052603260045260246000fd5b905060200201358152602001908152602001600020819055508080610e2f90611b31565b915050610db8565b6000606081808080610e4b87890189611820565b95505094505093509350610e61848484846110ba565b610e6a57600080fd5b50505050935093915050565b600554604051637921219560e11b81526000916060916001600160a01b039091169063f242432a90610eb290889030908990899060040161195d565b600060405180830381600087803b158015610ecc57600080fd5b505af1925050508015610edd575060015b610ef95750506040805160208101909152600080825290610f87565b6005546040516303a24d0760e21b8152600481018690526000916001600160a01b031690630e89341c9060240160006040518083038186803b158015610f3e57600080fd5b505afa158015610f52573d6000803e3d6000fd5b505050506040513d6000823e601f3d908101601f19168201604052610f7a919081019061179e565b600193509150610f879050565b935093915050565b6002546002141561100d5760035460025460405163bd45c4e760e01b81526001600160a01b039092169163bd45c4e7913491610fd691899189918991899190600401611995565b6000604051808303818588803b158015610fef57600080fd5b505af1158015611003573d6000803e3d6000fd5b5050505050610be3565b60035460025460405163bd45c4e760e01b81526001600160a01b039092169163bd45c4e791611046918891889188918891600401611995565b600060405180830381600087803b15801561106057600080fd5b505af1158015611074573d6000803e3d6000fd5b5050505050505050565b60008080808061109086880188611820565b95509550509450945094506110a8858585858561120d565b6110b157600080fd5b50505050505050565b6000816040516020016110cd9190611941565b60408051808303601f190181529082905280516020909101206005546303a24d0760e21b83526004830188905290916001600160a01b0390911690630e89341c9060240160006040518083038186803b15801561112957600080fd5b505afa15801561113d573d6000803e3d6000fd5b505050506040513d6000823e601f3d908101601f19168201604052611165919081019061179e565b6040516020016111759190611941565b6040516020818303038152906040528051906020012014611198575060006109ef565b600554604051637921219560e11b81526001600160a01b039091169063f242432a906111ce90309087908a908a9060040161195d565b600060405180830381600087803b1580156111e857600080fd5b505af19250505080156111f9575060015b611205575060006109ef565b5060016109ef565b6000816040516020016112209190611941565b60408051808303601f190181529082905280516020909101206005546303a24d0760e21b83526004830189905290916001600160a01b0390911690630e89341c9060240160006040518083038186803b15801561127c57600080fd5b505afa158015611290573d6000803e3d6000fd5b505050506040513d6000823e601f3d908101601f191682016040526112b8919081019061179e565b6040516020016112c89190611941565b60405160208183030381529060405280519060200120146112eb57506000611418565b600554604051637921219560e11b81526001600160a01b039091169063f242432a9061132190309088908b908b9060040161195d565b600060405180830381600087803b15801561133b57600080fd5b505af192505050801561134c575060015b6113585750600061135c565b5060015b6001600160a01b0384163b1561141857604080518215156024820152604481018890526064810187905260848082018690528251808303909101815260a490910182526020810180516001600160e01b031663e0cce6cb60e01b17905290516001600160a01b038616906113d1908390611941565b6000604051808303816000865af19150503d806000811461140e576040519150601f19603f3d011682016040523d82523d6000602084013e611413565b606091505b505050505b95945050505050565b60008083601f840112611432578182fd5b50813567ffffffffffffffff811115611449578182fd5b6020830191508360208260051b850101111561146457600080fd5b9250929050565b600082601f83011261147b578081fd5b8135602061149061148b83611a7e565b611a4d565b80838252828201915082860187848660051b89010111156114af578586fd5b855b858110156114d65781356114c481611b6e565b845292840192908401906001016114b1565b5090979650505050505050565b60008083601f8401126114f4578182fd5b50813567ffffffffffffffff81111561150b578182fd5b60208301915083602082850101111561146457600080fd5b600060208284031215611534578081fd5b813561153f81611b6e565b9392505050565b600060208284031215611557578081fd5b815161153f81611b6e565b600080600060408486031215611576578182fd5b833561158181611b6e565b9250602084013567ffffffffffffffff81111561159c578283fd5b6115a8868287016114e3565b9497909650939450505050565b6000806000606084860312156115c9578283fd5b83516115d481611b6e565b602085015160409095015190969495509392505050565b60008060008060408587031215611600578081fd5b843567ffffffffffffffff80821115611617578283fd5b61162388838901611421565b9096509450602087013591508082111561163b578283fd5b5061164887828801611421565b95989497509550505050565b60008060008060408587031215611669578384fd5b843567ffffffffffffffff80821115611680578586fd5b61168c88838901611421565b9096509450602087013591508082111561163b578384fd5b600080604083850312156116b6578182fd5b823567ffffffffffffffff808211156116cd578384fd5b818501915085601f8301126116e0578384fd5b813560206116f061148b83611a7e565b8083825282820191508286018a848660051b890101111561170f578889fd5b8896505b84871015611731578035835260019690960195918301918301611713565b5096505086013592505080821115611747578283fd5b506117548582860161146b565b9150509250929050565b60008060208385031215611770578182fd5b823567ffffffffffffffff811115611786578283fd5b611792858286016114e3565b90969095509350505050565b6000602082840312156117af578081fd5b815167ffffffffffffffff8111156117c5578182fd5b8201601f810184136117d5578182fd5b80516117e361148b82611aa2565b8181528560208385010111156117f7578384fd5b611418826020830160208601611aca565b600060208284031215611819578081fd5b5035919050565b60008060008060008060c08789031215611838578384fd5b8635955060208701359450604087013561185181611b6e565b9350606087013561186181611b6e565b92506080870135915060a087013567ffffffffffffffff811115611883578182fd5b8701601f81018913611893578182fd5b80356118a161148b82611aa2565b8181528a60208385010111156118b5578384fd5b8160208401602083013783602083830101528093505050509295509295509295565b600080600080608085870312156118ec578182fd5b8435935060208501359250604085013561190581611b6e565b9396929550929360600135925050565b6000815180845261192d816020860160208601611aca565b601f01601f19169290920160200192915050565b60008251611953818460208701611aca565b9190910192915050565b6001600160a01b0394851681529290931660208301526040820152606081019190915260a06080820181905260009082015260c00190565b600060018060a01b03808816835260a060208401526119b760a0840188611915565b9516604083015250606081019290925260809091015292915050565b82151581526040602082015260006109ef6040830184611915565b60208152600061153f6020830184611915565b868152602081018690526001600160a01b038581166040830152841660608201526080810183905260c060a08201819052600090611a4190830184611915565b98975050505050505050565b604051601f8201601f1916810167ffffffffffffffff81118282101715611a7657611a76611b58565b604052919050565b600067ffffffffffffffff821115611a9857611a98611b58565b5060051b60200190565b600067ffffffffffffffff821115611abc57611abc611b58565b50601f01601f191660200190565b60005b83811015611ae5578181015183820152602001611acd565b83811115610be35750506000910152565b600181811c90821680611b0a57607f821691505b60208210811415611b2b57634e487b7160e01b600052602260045260246000fd5b50919050565b6000600019821415611b5157634e487b7160e01b81526011600452602481fd5b5060010190565b634e487b7160e01b600052604160045260246000fd5b6001600160a01b0381168114611b8357600080fd5b5056fea2646970667358221220fd06c6a122e0c85f1d3be90500c0b0e6ff0dcbf24eee3101d87c6d887a54390a64736f6c63430008040033",
  "immutableReferences": {},
  "source": "// SPDX-License-Identifier: MIT\r\n\r\n/**\r\nERC1155 gateway for Openstore\r\nswapout = lockin\r\nswapin = lockout\r\n */\r\n\r\npragma solidity ^0.8.0;\r\n\r\nimport \"./ERC1155Gateway.sol\";\r\nimport \"./lib/Address.sol\";\r\n\r\ninterface IOpenstore {\r\n    function uri(uint256 _id) external view returns (string memory);\r\n\r\n    function safeTransferFrom(\r\n        address from,\r\n        address to,\r\n        uint256 id,\r\n        uint256 amount,\r\n        bytes calldata data\r\n    ) external;\r\n}\r\n\r\ncontract ERC1155Gateway_LILO is ERC1155Gateway {\r\n    using Address for address;\r\n\r\n    constructor(address anyCallProxy, address token)\r\n        ERC1155Gateway(anyCallProxy, token)\r\n    {}\r\n\r\n    function _swapout(\r\n        address sender,\r\n        uint256 tokenId,\r\n        uint256 amount\r\n    ) internal virtual override returns (bool, bytes memory) {\r\n        try IOpenstore(token).safeTransferFrom(sender, address(this), tokenId, amount, \"\") {\r\n            bytes memory extraMsg = bytes(IOpenstore(token).uri(tokenId));\r\n            return (true, extraMsg);\r\n        } catch {\r\n            return (false, \"\");\r\n        }\r\n        return (false, \"\");\r\n    }\r\n\r\n    function _swapin(\r\n        uint256 tokenId,\r\n        uint256 amount,\r\n        address receiver,\r\n        bytes memory extraMsg\r\n    ) internal override returns (bool) {\r\n        if (!(keccak256(abi.encodePacked(bytes(IOpenstore(token).uri(tokenId)))) == keccak256(abi.encodePacked(extraMsg)))) {\r\n            return false;\r\n        }\r\n        try IOpenstore(token).safeTransferFrom(address(this), receiver, tokenId, amount, \"\") {\r\n            return true;\r\n        } catch {\r\n            return false;\r\n        }\r\n        return false;\r\n    }\r\n\r\n    function _swapoutFallback(\r\n        uint256 tokenId,\r\n        uint256 amount,\r\n        address sender,\r\n        uint256 swapoutSeq,\r\n        bytes memory extraMsg\r\n    ) internal override returns (bool result) {\r\n        if (!(keccak256(abi.encodePacked(bytes(IOpenstore(token).uri(tokenId)))) == keccak256(abi.encodePacked(extraMsg)))) {\r\n            return false;\r\n        }\r\n        try IOpenstore(token).safeTransferFrom(address(this), sender, tokenId, amount, \"\") {\r\n            result = true;\r\n        } catch {\r\n            result = false;\r\n        }\r\n        if (sender.isContract()) {\r\n            bytes memory _data = abi.encodeWithSelector(\r\n                IGatewayClient.notifySwapoutFallback.selector,\r\n                result,\r\n                tokenId,\r\n                amount,\r\n                swapoutSeq\r\n            );\r\n            sender.call(_data);\r\n        }\r\n    }\r\n}\r\n",
  "sourcePath": "D:\\anycallapp\\multichain-pegged-openstore\\srcchain\\contracts\\OpenstoreGateway.sol",
  "compiler": {
    "name": "solc",
    "version": "0.8.4+commit.c7e474f2.Emscripten.clang"
  },
  "schemaVersion": "3.4.8",
  "updatedAt": "2022-07-12T04:12:02.067Z",
  "devdoc": {
    "kind": "dev",
    "methods": {},
    "version": 1
  },
  "userdoc": {
    "kind": "user",
    "methods": {},
    "version": 1
  }
}