{
  "contractName": "AssetContract",
  "abi": [
    {
      "inputs": [
        {
          "internalType": "string",
          "name": "_name",
          "type": "string"
        },
        {
          "internalType": "string",
          "name": "_symbol",
          "type": "string"
        },
        {
          "internalType": "address",
          "name": "_proxyRegistryAddress",
          "type": "address"
        },
        {
          "internalType": "string",
          "name": "_templateURI",
          "type": "string"
        }
      ],
      "stateMutability": "nonpayable",
      "type": "constructor"
    },
    {
      "anonymous": false,
      "inputs": [
        {
          "indexed": true,
          "internalType": "address",
          "name": "account",
          "type": "address"
        },
        {
          "indexed": true,
          "internalType": "address",
          "name": "operator",
          "type": "address"
        },
        {
          "indexed": false,
          "internalType": "bool",
          "name": "approved",
          "type": "bool"
        }
      ],
      "name": "ApprovalForAll",
      "type": "event"
    },
    {
      "anonymous": false,
      "inputs": [
        {
          "indexed": false,
          "internalType": "address",
          "name": "userAddress",
          "type": "address"
        },
        {
          "indexed": false,
          "internalType": "address payable",
          "name": "relayerAddress",
          "type": "address"
        },
        {
          "indexed": false,
          "internalType": "bytes",
          "name": "functionSignature",
          "type": "bytes"
        }
      ],
      "name": "MetaTransactionExecuted",
      "type": "event"
    },
    {
      "anonymous": false,
      "inputs": [
        {
          "indexed": true,
          "internalType": "address",
          "name": "previousOwner",
          "type": "address"
        },
        {
          "indexed": true,
          "internalType": "address",
          "name": "newOwner",
          "type": "address"
        }
      ],
      "name": "OwnershipTransferred",
      "type": "event"
    },
    {
      "anonymous": false,
      "inputs": [
        {
          "indexed": false,
          "internalType": "address",
          "name": "account",
          "type": "address"
        }
      ],
      "name": "Paused",
      "type": "event"
    },
    {
      "anonymous": false,
      "inputs": [
        {
          "indexed": false,
          "internalType": "string",
          "name": "_value",
          "type": "string"
        },
        {
          "indexed": true,
          "internalType": "uint256",
          "name": "_id",
          "type": "uint256"
        }
      ],
      "name": "PermanentURI",
      "type": "event"
    },
    {
      "anonymous": false,
      "inputs": [
        {
          "indexed": true,
          "internalType": "address",
          "name": "operator",
          "type": "address"
        },
        {
          "indexed": true,
          "internalType": "address",
          "name": "from",
          "type": "address"
        },
        {
          "indexed": true,
          "internalType": "address",
          "name": "to",
          "type": "address"
        },
        {
          "indexed": false,
          "internalType": "uint256[]",
          "name": "ids",
          "type": "uint256[]"
        },
        {
          "indexed": false,
          "internalType": "uint256[]",
          "name": "values",
          "type": "uint256[]"
        }
      ],
      "name": "TransferBatch",
      "type": "event"
    },
    {
      "anonymous": false,
      "inputs": [
        {
          "indexed": true,
          "internalType": "address",
          "name": "operator",
          "type": "address"
        },
        {
          "indexed": true,
          "internalType": "address",
          "name": "from",
          "type": "address"
        },
        {
          "indexed": true,
          "internalType": "address",
          "name": "to",
          "type": "address"
        },
        {
          "indexed": false,
          "internalType": "uint256",
          "name": "id",
          "type": "uint256"
        },
        {
          "indexed": false,
          "internalType": "uint256",
          "name": "value",
          "type": "uint256"
        }
      ],
      "name": "TransferSingle",
      "type": "event"
    },
    {
      "anonymous": false,
      "inputs": [
        {
          "indexed": false,
          "internalType": "string",
          "name": "value",
          "type": "string"
        },
        {
          "indexed": true,
          "internalType": "uint256",
          "name": "id",
          "type": "uint256"
        }
      ],
      "name": "URI",
      "type": "event"
    },
    {
      "anonymous": false,
      "inputs": [
        {
          "indexed": false,
          "internalType": "address",
          "name": "account",
          "type": "address"
        }
      ],
      "name": "Unpaused",
      "type": "event"
    },
    {
      "inputs": [],
      "name": "ERC712_VERSION",
      "outputs": [
        {
          "internalType": "string",
          "name": "",
          "type": "string"
        }
      ],
      "stateMutability": "view",
      "type": "function"
    },
    {
      "inputs": [
        {
          "internalType": "address[]",
          "name": "accounts",
          "type": "address[]"
        },
        {
          "internalType": "uint256[]",
          "name": "ids",
          "type": "uint256[]"
        }
      ],
      "name": "balanceOfBatch",
      "outputs": [
        {
          "internalType": "uint256[]",
          "name": "",
          "type": "uint256[]"
        }
      ],
      "stateMutability": "view",
      "type": "function"
    },
    {
      "inputs": [
        {
          "internalType": "address",
          "name": "_to",
          "type": "address"
        },
        {
          "internalType": "uint256[]",
          "name": "_ids",
          "type": "uint256[]"
        },
        {
          "internalType": "uint256[]",
          "name": "_quantities",
          "type": "uint256[]"
        },
        {
          "internalType": "bytes",
          "name": "_data",
          "type": "bytes"
        }
      ],
      "name": "batchMint",
      "outputs": [],
      "stateMutability": "nonpayable",
      "type": "function"
    },
    {
      "inputs": [
        {
          "internalType": "address",
          "name": "userAddress",
          "type": "address"
        },
        {
          "internalType": "bytes",
          "name": "functionSignature",
          "type": "bytes"
        },
        {
          "internalType": "bytes32",
          "name": "sigR",
          "type": "bytes32"
        },
        {
          "internalType": "bytes32",
          "name": "sigS",
          "type": "bytes32"
        },
        {
          "internalType": "uint8",
          "name": "sigV",
          "type": "uint8"
        }
      ],
      "name": "executeMetaTransaction",
      "outputs": [
        {
          "internalType": "bytes",
          "name": "",
          "type": "bytes"
        }
      ],
      "stateMutability": "payable",
      "type": "function"
    },
    {
      "inputs": [
        {
          "internalType": "uint256",
          "name": "_id",
          "type": "uint256"
        }
      ],
      "name": "exists",
      "outputs": [
        {
          "internalType": "bool",
          "name": "",
          "type": "bool"
        }
      ],
      "stateMutability": "view",
      "type": "function"
    },
    {
      "inputs": [],
      "name": "getChainId",
      "outputs": [
        {
          "internalType": "uint256",
          "name": "",
          "type": "uint256"
        }
      ],
      "stateMutability": "view",
      "type": "function"
    },
    {
      "inputs": [],
      "name": "getDomainSeperator",
      "outputs": [
        {
          "internalType": "bytes32",
          "name": "",
          "type": "bytes32"
        }
      ],
      "stateMutability": "view",
      "type": "function"
    },
    {
      "inputs": [
        {
          "internalType": "address",
          "name": "user",
          "type": "address"
        }
      ],
      "name": "getNonce",
      "outputs": [
        {
          "internalType": "uint256",
          "name": "nonce",
          "type": "uint256"
        }
      ],
      "stateMutability": "view",
      "type": "function"
    },
    {
      "inputs": [
        {
          "internalType": "address",
          "name": "_owner",
          "type": "address"
        },
        {
          "internalType": "address",
          "name": "_operator",
          "type": "address"
        }
      ],
      "name": "isApprovedForAll",
      "outputs": [
        {
          "internalType": "bool",
          "name": "isOperator",
          "type": "bool"
        }
      ],
      "stateMutability": "view",
      "type": "function"
    },
    {
      "inputs": [
        {
          "internalType": "address",
          "name": "_to",
          "type": "address"
        },
        {
          "internalType": "uint256",
          "name": "_id",
          "type": "uint256"
        },
        {
          "internalType": "uint256",
          "name": "_quantity",
          "type": "uint256"
        },
        {
          "internalType": "bytes",
          "name": "_data",
          "type": "bytes"
        }
      ],
      "name": "mint",
      "outputs": [],
      "stateMutability": "nonpayable",
      "type": "function"
    },
    {
      "inputs": [],
      "name": "name",
      "outputs": [
        {
          "internalType": "string",
          "name": "",
          "type": "string"
        }
      ],
      "stateMutability": "view",
      "type": "function"
    },
    {
      "inputs": [],
      "name": "owner",
      "outputs": [
        {
          "internalType": "address",
          "name": "",
          "type": "address"
        }
      ],
      "stateMutability": "view",
      "type": "function"
    },
    {
      "inputs": [],
      "name": "pause",
      "outputs": [],
      "stateMutability": "nonpayable",
      "type": "function"
    },
    {
      "inputs": [],
      "name": "paused",
      "outputs": [
        {
          "internalType": "bool",
          "name": "",
          "type": "bool"
        }
      ],
      "stateMutability": "view",
      "type": "function"
    },
    {
      "inputs": [],
      "name": "proxyRegistryAddress",
      "outputs": [
        {
          "internalType": "address",
          "name": "",
          "type": "address"
        }
      ],
      "stateMutability": "view",
      "type": "function"
    },
    {
      "inputs": [],
      "name": "renounceOwnership",
      "outputs": [],
      "stateMutability": "nonpayable",
      "type": "function"
    },
    {
      "inputs": [
        {
          "internalType": "address",
          "name": "operator",
          "type": "address"
        },
        {
          "internalType": "bool",
          "name": "approved",
          "type": "bool"
        }
      ],
      "name": "setApprovalForAll",
      "outputs": [],
      "stateMutability": "nonpayable",
      "type": "function"
    },
    {
      "inputs": [
        {
          "internalType": "bytes4",
          "name": "interfaceId",
          "type": "bytes4"
        }
      ],
      "name": "supportsInterface",
      "outputs": [
        {
          "internalType": "bool",
          "name": "",
          "type": "bool"
        }
      ],
      "stateMutability": "view",
      "type": "function"
    },
    {
      "inputs": [],
      "name": "symbol",
      "outputs": [
        {
          "internalType": "string",
          "name": "",
          "type": "string"
        }
      ],
      "stateMutability": "view",
      "type": "function"
    },
    {
      "inputs": [],
      "name": "templateURI",
      "outputs": [
        {
          "internalType": "string",
          "name": "",
          "type": "string"
        }
      ],
      "stateMutability": "view",
      "type": "function"
    },
    {
      "inputs": [
        {
          "internalType": "uint256",
          "name": "_id",
          "type": "uint256"
        }
      ],
      "name": "totalSupply",
      "outputs": [
        {
          "internalType": "uint256",
          "name": "",
          "type": "uint256"
        }
      ],
      "stateMutability": "view",
      "type": "function"
    },
    {
      "inputs": [
        {
          "internalType": "address",
          "name": "newOwner",
          "type": "address"
        }
      ],
      "name": "transferOwnership",
      "outputs": [],
      "stateMutability": "nonpayable",
      "type": "function"
    },
    {
      "inputs": [],
      "name": "unpause",
      "outputs": [],
      "stateMutability": "nonpayable",
      "type": "function"
    },
    {
      "inputs": [],
      "name": "openSeaVersion",
      "outputs": [
        {
          "internalType": "string",
          "name": "",
          "type": "string"
        }
      ],
      "stateMutability": "pure",
      "type": "function"
    },
    {
      "inputs": [],
      "name": "supportsFactoryInterface",
      "outputs": [
        {
          "internalType": "bool",
          "name": "",
          "type": "bool"
        }
      ],
      "stateMutability": "pure",
      "type": "function"
    },
    {
      "inputs": [
        {
          "internalType": "string",
          "name": "_uri",
          "type": "string"
        }
      ],
      "name": "setTemplateURI",
      "outputs": [],
      "stateMutability": "nonpayable",
      "type": "function"
    },
    {
      "inputs": [
        {
          "internalType": "uint256",
          "name": "_id",
          "type": "uint256"
        },
        {
          "internalType": "string",
          "name": "_uri",
          "type": "string"
        }
      ],
      "name": "setURI",
      "outputs": [],
      "stateMutability": "nonpayable",
      "type": "function"
    },
    {
      "inputs": [
        {
          "internalType": "uint256",
          "name": "_id",
          "type": "uint256"
        },
        {
          "internalType": "string",
          "name": "_uri",
          "type": "string"
        }
      ],
      "name": "setPermanentURI",
      "outputs": [],
      "stateMutability": "nonpayable",
      "type": "function"
    },
    {
      "inputs": [
        {
          "internalType": "uint256",
          "name": "_id",
          "type": "uint256"
        }
      ],
      "name": "isPermanentURI",
      "outputs": [
        {
          "internalType": "bool",
          "name": "",
          "type": "bool"
        }
      ],
      "stateMutability": "view",
      "type": "function"
    },
    {
      "inputs": [
        {
          "internalType": "uint256",
          "name": "_id",
          "type": "uint256"
        }
      ],
      "name": "uri",
      "outputs": [
        {
          "internalType": "string",
          "name": "",
          "type": "string"
        }
      ],
      "stateMutability": "view",
      "type": "function"
    },
    {
      "inputs": [
        {
          "internalType": "address",
          "name": "_owner",
          "type": "address"
        },
        {
          "internalType": "uint256",
          "name": "_id",
          "type": "uint256"
        }
      ],
      "name": "balanceOf",
      "outputs": [
        {
          "internalType": "uint256",
          "name": "",
          "type": "uint256"
        }
      ],
      "stateMutability": "view",
      "type": "function"
    },
    {
      "inputs": [
        {
          "internalType": "address",
          "name": "_from",
          "type": "address"
        },
        {
          "internalType": "address",
          "name": "_to",
          "type": "address"
        },
        {
          "internalType": "uint256",
          "name": "_id",
          "type": "uint256"
        },
        {
          "internalType": "uint256",
          "name": "_amount",
          "type": "uint256"
        },
        {
          "internalType": "bytes",
          "name": "_data",
          "type": "bytes"
        }
      ],
      "name": "safeTransferFrom",
      "outputs": [],
      "stateMutability": "nonpayable",
      "type": "function"
    },
    {
      "inputs": [
        {
          "internalType": "address",
          "name": "_from",
          "type": "address"
        },
        {
          "internalType": "address",
          "name": "_to",
          "type": "address"
        },
        {
          "internalType": "uint256[]",
          "name": "_ids",
          "type": "uint256[]"
        },
        {
          "internalType": "uint256[]",
          "name": "_amounts",
          "type": "uint256[]"
        },
        {
          "internalType": "bytes",
          "name": "_data",
          "type": "bytes"
        }
      ],
      "name": "safeBatchTransferFrom",
      "outputs": [],
      "stateMutability": "nonpayable",
      "type": "function"
    },
    {
      "inputs": [
        {
          "internalType": "address",
          "name": "_from",
          "type": "address"
        },
        {
          "internalType": "uint256",
          "name": "_id",
          "type": "uint256"
        },
        {
          "internalType": "uint256",
          "name": "_quantity",
          "type": "uint256"
        }
      ],
      "name": "burn",
      "outputs": [],
      "stateMutability": "nonpayable",
      "type": "function"
    },
    {
      "inputs": [
        {
          "internalType": "address",
          "name": "_from",
          "type": "address"
        },
        {
          "internalType": "uint256[]",
          "name": "_ids",
          "type": "uint256[]"
        },
        {
          "internalType": "uint256[]",
          "name": "_quantities",
          "type": "uint256[]"
        }
      ],
      "name": "batchBurn",
      "outputs": [],
      "stateMutability": "nonpayable",
      "type": "function"
    }
  ],
  "bytecode": "0x60806040526003805460ff191690553480156200001b57600080fd5b5060405162003e2638038062003e268339810160408190526200003e91620006ac565b8383836040518060200160405280600081525062000062816200018c60201b60201c565b506200007762000071620001a5565b620001c1565b6006805460ff60a01b191690558251620000999060089060208601906200052d565b508151620000af9060099060208501906200052d565b50600780546001600160a01b0319166001600160a01b038316179055600880546200016b9190620000e0906200074f565b80601f01602080910402602001604051908101604052809291908181526020018280546200010e906200074f565b80156200015f5780601f1062000133576101008083540402835291602001916200015f565b820191906000526020600020905b8154815290600101906020018083116200014157829003601f168201915b50506200021392505050565b505081511590506200018257620001828162000278565b50505050620007bb565b8051620001a19060029060208401906200052d565b5050565b6000620001bc6200030660201b620013cf1760201c565b905090565b600680546001600160a01b038381166001600160a01b0319831681179093556040519116919082907f8be0079c531659141344cd1fd0a4f28419497f9722a3daafe3b4186f6b6457e090600090a35050565b60035460ff16156200025d5760405162461bcd60e51b815260206004820152600e60248201526d185b1c9958591e481a5b9a5d195960921b60448201526064015b60405180910390fd5b620002688162000365565b506003805460ff19166001179055565b6200028c62000286620001a5565b62000407565b620002f15760405162461bcd60e51b815260206004820152602e60248201527f455243313135355472616461626c65236f6e6c794f776e65723a2043414c4c4560448201526d292fa4a9afa727aa2fa7aba722a960911b606482015260840162000254565b8051620001a190600c9060208401906200052d565b6000333014156200035f57600080368080601f0160208091040260200160405190810160405280939291908181526020018383808284376000920191909152505050503601516001600160a01b03169150620003629050565b50335b90565b6040518060800160405280604f815260200162003dd7604f9139805160209182012082519282019290922060408051808201825260018152603160f81b90840152805180840194909452838101919091527fc89efdaa54c0f20c7adf612882df0950f5a951637e0307cdcb4c672f298b8bc660608401523060808401524660a0808501919091528151808503909101815260c090930190528151910120600455565b60006001600160a01b038216620004266006546001600160a01b031690565b6001600160a01b03161480620004555750620004556200044e6006546001600160a01b031690565b836200045b565b92915050565b60075460009062000481906001600160a01b031662000527602090811b6200142c17901c565b6200048f5750600062000455565b60075460405163c455279160e01b81526001600160a01b03858116600483015291821691841690829063c45527919060240160206040518083038186803b158015620004da57600080fd5b505afa158015620004ef573d6000803e3d6000fd5b505050506040513d601f19601f8201168201806040525081019062000515919062000686565b6001600160a01b031614949350505050565b3b151590565b8280546200053b906200074f565b90600052602060002090601f0160209004810192826200055f5760008555620005aa565b82601f106200057a57805160ff1916838001178555620005aa565b82800160010185558215620005aa579182015b82811115620005aa5782518255916020019190600101906200058d565b50620005b8929150620005bc565b5090565b5b80821115620005b85760008155600101620005bd565b600082601f830112620005e4578081fd5b81516001600160401b03808211156200060157620006016200078c565b604051601f8301601f19908116603f011681019082821181831017156200062c576200062c6200078c565b8160405283815260209250868385880101111562000648578485fd5b8491505b838210156200066b57858201830151818301840152908201906200064c565b838211156200067c57848385830101525b9695505050505050565b60006020828403121562000698578081fd5b8151620006a581620007a2565b9392505050565b60008060008060808587031215620006c2578283fd5b84516001600160401b0380821115620006d9578485fd5b620006e788838901620005d3565b95506020870151915080821115620006fd578485fd5b6200070b88838901620005d3565b9450604087015191506200071f82620007a2565b60608701519193508082111562000734578283fd5b506200074387828801620005d3565b91505092959194509250565b600181811c908216806200076457607f821691505b602082108114156200078657634e487b7160e01b600052602260045260246000fd5b50919050565b634e487b7160e01b600052604160045260246000fd5b6001600160a01b0381168114620007b857600080fd5b50565b61360c80620007cb6000396000f3fe6080604052600436106102035760003560e01c80635c975abb11610118578063bd85b039116100a0578063f242432a1161006f578063f242432a1461060d578063f2fde38b1461062d578063f5298aca1461064d578063f6eb127a1461066d578063f923e8c31461068d57600080fd5b8063bd85b0391461058c578063c311c523146105b9578063cd7c0326146105cd578063e985e9c5146105ed57600080fd5b8063862440e2116100e7578063862440e2146104e55780638da5cb5b1461050557806395d89b4114610537578063a22cb4651461054c578063b48ab8b61461056c57600080fd5b80635c975abb1461047c578063715018a61461049b578063731133e9146104b05780638456cb59146104d057600080fd5b806324d887851161019b5780633588ad7c1161016a5780633588ad7c146103bd5780633f4ba83a146103dd5780634060b25e146103f25780634e1273f4146104205780634f558e791461044d57600080fd5b806324d88785146103325780632d0335ab146103545780632eb2c2d61461038a5780633408e470146103aa57600080fd5b80630e89341c116101d75780630e89341c146102a05780630f7e5970146102c05780631e7d9dbb146102ed57806320379ee51461031d57600080fd5b8062fdd58e1461020857806301ffc9a71461023b57806306fdde031461026b5780630c53c51c1461028d575b600080fd5b34801561021457600080fd5b50610228610223366004612e08565b6106a2565b6040519081526020015b60405180910390f35b34801561024757600080fd5b5061025b610256366004612f87565b6106e2565b6040519015158152602001610232565b34801561027757600080fd5b50610280610732565b604051610232919061321c565b61028061029b366004612d8e565b6107c0565b3480156102ac57600080fd5b506102806102bb36600461300d565b61099d565b3480156102cc57600080fd5b50610280604051806040016040528060018152602001603160f81b81525081565b3480156102f957600080fd5b5061025b61030836600461300d565b6000908152600e602052604090205460ff1690565b34801561032957600080fd5b50600454610228565b34801561033e57600080fd5b5061035261034d366004612fdb565b610add565b005b34801561036057600080fd5b5061022861036f366004612af2565b6001600160a01b031660009081526005602052604090205490565b34801561039657600080fd5b506103526103a5366004612b46565b610b20565b3480156103b657600080fd5b5046610228565b3480156103c957600080fd5b506103526103d8366004613025565b610c18565b3480156103e957600080fd5b50610352610c7f565b3480156103fe57600080fd5b506040805180820190915260058152640322e312e360dc1b6020820152610280565b34801561042c57600080fd5b5061044061043b366004612ebb565b610cb0565b60405161023291906131e4565b34801561045957600080fd5b5061025b61046836600461300d565b6000908152600b6020526040902054151590565b34801561048857600080fd5b50600654600160a01b900460ff1661025b565b3480156104a757600080fd5b50610352610e11565b3480156104bc57600080fd5b506103526104cb366004612e67565b610e94565b3480156104dc57600080fd5b50610352610ecd565b3480156104f157600080fd5b50610352610500366004613025565b610efc565b34801561051157600080fd5b506006546001600160a01b03165b6040516001600160a01b039091168152602001610232565b34801561054357600080fd5b50610280610f5e565b34801561055857600080fd5b50610352610567366004612d5d565b610f6b565b34801561057857600080fd5b50610352610587366004612cc7565b61107f565b34801561059857600080fd5b506102286105a736600461300d565b6000908152600b602052604090205490565b3480156105c557600080fd5b50600161025b565b3480156105d957600080fd5b5060075461051f906001600160a01b031681565b3480156105f957600080fd5b5061025b610608366004612b0e565b6110b2565b34801561061957600080fd5b50610352610628366004612bef565b6110fc565b34801561063957600080fd5b50610352610648366004612af2565b61114c565b34801561065957600080fd5b50610352610668366004612e33565b611236565b34801561067957600080fd5b50610352610688366004612c55565b6112cd565b34801561069957600080fd5b506102806113c2565b6000806106af8484611432565b90506106bb83856114c6565b6106c557806106d8565b6106ce836114d1565b6106d890826133bf565b9150505b92915050565b60006001600160e01b03198216636cdb3d1360e11b148061071357506001600160e01b031982166303a24d0760e21b145b806106dc57506301ffc9a760e01b6001600160e01b03198316146106dc565b6008805461073f9061341a565b80601f016020809104026020016040519081016040528092919081815260200182805461076b9061341a565b80156107b85780601f1061078d576101008083540402835291602001916107b8565b820191906000526020600020905b81548152906001019060200180831161079b57829003601f168201915b505050505081565b60408051606081810183526001600160a01b038816600081815260056020908152908590205484528301529181018690526107fe87828787876114eb565b6108595760405162461bcd60e51b815260206004820152602160248201527f5369676e657220616e64207369676e617475726520646f206e6f74206d6174636044820152600d60fb1b60648201526084015b60405180910390fd5b6001600160a01b03871660009081526005602052604081208054600192906108829084906133bf565b90915550506040517f5845892132946850460bff5a0083f71031bc5bf9aadcd40f1de79423eac9b10b906108bb90899033908a90613118565b60405180910390a1600080306001600160a01b0316888a6040516020016108e39291906130e1565b60408051601f19818403018152908290526108fd916130c5565b6000604051808303816000865af19150503d806000811461093a576040519150601f19603f3d011682016040523d82523d6000602084013e61093f565b606091505b5091509150816109915760405162461bcd60e51b815260206004820152601c60248201527f46756e6374696f6e2063616c6c206e6f74207375636365737366756c000000006044820152606401610850565b98975050505050505050565b6000818152600d60205260408120805460609291906109bb9061341a565b80601f01602080910402602001604051908101604052809291908181526020018280546109e79061341a565b8015610a345780601f10610a0957610100808354040283529160200191610a34565b820191906000526020600020905b815481529060010190602001808311610a1757829003601f168201915b505050505090508051600014610a4a5792915050565b600c8054610a579061341a565b80601f0160208091040260200160405190810160405280929190818152602001828054610a839061341a565b8015610ad05780601f10610aa557610100808354040283529160200191610ad0565b820191906000526020600020905b815481529060010190602001808311610ab357829003601f168201915b5050505050915050919050565b610aed610ae86115db565b6115ea565b610b095760405162461bcd60e51b815260040161085090613324565b8051610b1c90600c906020840190612977565b5050565b8151835114610b975760405162461bcd60e51b815260206004820152603a60248201527f4173736574436f6e7472616374237361666542617463685472616e736665724660448201527f726f6d3a20494e56414c49445f4152524159535f4c454e4754480000000000006064820152608401610850565b60005b8351811015610c1057610bfe8686868481518110610bc857634e487b7160e01b600052603260045260246000fd5b6020026020010151868581518110610bf057634e487b7160e01b600052603260045260246000fd5b6020026020010151866110fc565b80610c0881613481565b915050610b9a565b505050505050565b610c23610ae86115db565b610c3f5760405162461bcd60e51b815260040161085090613324565b6000828152600e6020526040902054829060ff1615610c705760405162461bcd60e51b815260040161085090613277565b610c7a8383611633565b505050565b610c8a610ae86115db565b610ca65760405162461bcd60e51b815260040161085090613324565b610cae6116f9565b565b60608151835114610d155760405162461bcd60e51b815260206004820152602960248201527f455243313135353a206163636f756e747320616e6420696473206c656e677468604482015268040dad2e6dac2e8c6d60bb1b6064820152608401610850565b600083516001600160401b03811115610d3e57634e487b7160e01b600052604160045260246000fd5b604051908082528060200260200182016040528015610d67578160200160208202803683370190505b50905060005b8451811015610e0957610dce858281518110610d9957634e487b7160e01b600052603260045260246000fd5b6020026020010151858381518110610dc157634e487b7160e01b600052603260045260246000fd5b60200260200101516106a2565b828281518110610dee57634e487b7160e01b600052603260045260246000fd5b6020908102919091010152610e0281613481565b9050610d6d565b509392505050565b610e196115db565b6001600160a01b0316610e346006546001600160a01b031690565b6001600160a01b031614610e8a5760405162461bcd60e51b815260206004820181905260248201527f4f776e61626c653a2063616c6c6572206973206e6f7420746865206f776e65726044820152606401610850565b610cae600061179c565b610e9f610ae86115db565b610ebb5760405162461bcd60e51b815260040161085090613324565b610ec7848484846117ee565b50505050565b610ed8610ae86115db565b610ef45760405162461bcd60e51b815260040161085090613324565b610cae61180e565b610f07610ae86115db565b610f235760405162461bcd60e51b815260040161085090613324565b6000828152600e6020526040902054829060ff1615610f545760405162461bcd60e51b815260040161085090613277565b610c7a8383611874565b6009805461073f9061341a565b816001600160a01b0316610f7d6115db565b6001600160a01b03161415610fe65760405162461bcd60e51b815260206004820152602960248201527f455243313135353a2073657474696e6720617070726f76616c20737461747573604482015268103337b91039b2b63360b91b6064820152608401610850565b8060016000610ff36115db565b6001600160a01b03908116825260208083019390935260409182016000908120918716808252919093529120805460ff1916921515929092179091556110376115db565b6001600160a01b03167f17307eab39ab6107e8899845ad3d59bd9653f200f220920489ca2b5937696c3183604051611073911515815260200190565b60405180910390a35050565b61108a610ae86115db565b6110a65760405162461bcd60e51b815260040161085090613324565b610ec7848484846118c4565b60006110be8383611930565b156110cb575060016106dc565b6001600160a01b0380841660009081526001602090815260408083209386168352929052205460ff165b9392505050565b60006111088685611432565b90508281101561113f57611127858561112184876133d7565b85610e94565b801561113a5761113a86868684866119e0565b610c10565b610c1086868686866119e0565b6111546115db565b6001600160a01b031661116f6006546001600160a01b031690565b6001600160a01b0316146111c55760405162461bcd60e51b815260206004820181905260248201527f4f776e61626c653a2063616c6c6572206973206e6f7420746865206f776e65726044820152606401610850565b6001600160a01b03811661122a5760405162461bcd60e51b815260206004820152602660248201527f4f776e61626c653a206e6577206f776e657220697320746865207a65726f206160448201526564647265737360d01b6064820152608401610850565b6112338161179c565b50565b828282611244838383611c15565b6112c25760405162461bcd60e51b815260206004820152604360248201527f4173736574436f6e7472616374236f6e6c79546f6b656e416d6f756e744f776e60448201527f65643a204f4e4c595f544f4b454e5f414d4f554e545f4f574e45445f414c4c4f60648201526215d15160ea1b608482015260a401610850565b610c10868686611c2c565b60005b82518110156113b657611332848483815181106112fd57634e487b7160e01b600052603260045260246000fd5b602002602001015184848151811061132557634e487b7160e01b600052603260045260246000fd5b6020026020010151611c15565b6113a45760405162461bcd60e51b815260206004820152603860248201527f4173736574436f6e74726163742362617463684275726e3a204f4e4c595f544f60448201527f4b454e5f414d4f554e545f4f574e45445f414c4c4f57454400000000000000006064820152608401610850565b806113ae81613481565b9150506112d0565b50610c7a838383611c82565b600c805461073f9061341a565b60003330141561142657600080368080601f0160208091040260200160405190810160405280939291908181526020018383808284376000920191909152505050503601516001600160a01b031691506114299050565b50335b90565b3b151590565b60006001600160a01b03831661149e5760405162461bcd60e51b815260206004820152602b60248201527f455243313135353a2062616c616e636520717565727920666f7220746865207a60448201526a65726f206164647265737360a81b6064820152608401610850565b506000908152600a602090815260408083206001600160a01b03949094168352929052205490565b60006110f5826115ea565b6000818152600b60205260408120546106dc9060016133d7565b60006001600160a01b0386166115515760405162461bcd60e51b815260206004820152602560248201527f4e61746976654d6574615472616e73616374696f6e3a20494e56414c49445f5360448201526424a3a722a960d91b6064820152608401610850565b600161156461155f87611cd8565b611d55565b6040805160008152602081018083529290925260ff851690820152606081018690526080810185905260a0016020604051602081039080840390855afa1580156115b2573d6000803e3d6000fd5b505050602060405103516001600160a01b0316866001600160a01b031614905095945050505050565b60006115e56113cf565b905090565b6000816001600160a01b03166116086006546001600160a01b031690565b6001600160a01b031614806106dc57506106dc61162d6006546001600160a01b031690565b83611930565b600081511161169a5760405162461bcd60e51b815260206004820152602d60248201527f4173736574436f6e7472616374237365745065726d616e656e745552493a204f60448201526c4e4c595f56414c49445f55524960981b6064820152608401610850565b6000828152600e60205260409020805460ff191660011790556116bd8282611874565b817fa109ba539900bf1b633f956d63c96fc89b814c7287f7aa50a9216d0b55657207826040516116ed919061321c565b60405180910390a25050565b600654600160a01b900460ff166117495760405162461bcd60e51b815260206004820152601460248201527314185d5cd8589b194e881b9bdd081c185d5cd95960621b6044820152606401610850565b6006805460ff60a01b191690557f5db9ee0a495bf2e6ff9c91a7834c1ba4fdd244a5e8aa4e537bd38aeae4b073aa61177f6115db565b6040516001600160a01b03909116815260200160405180910390a1565b600680546001600160a01b038381166001600160a01b0319831681179093556040519116919082907f8be0079c531659141344cd1fd0a4f28419497f9722a3daafe3b4186f6b6457e090600090a35050565b6117fa84848484611d85565b600181511115610ec757610ec78382611874565b600654600160a01b900460ff16156118385760405162461bcd60e51b815260040161085090613372565b6006805460ff60a01b1916600160a01b1790557f62e78cea01bee320cd4e420270b5ea74000d11b0c9f74754ebdbfc544b05a25861177f6115db565b6000828152600d60209081526040909120825161189392840190612977565b50817f6bb7ff708619ba0610cba295a58592e0451dee2622938c8755667688daf3529b826040516116ed919061321c565b6118d084848484611eb4565b600181511115610ec75760005b83518110156119295761191784828151811061190957634e487b7160e01b600052603260045260246000fd5b602002602001015183611874565b8061192181613481565b9150506118dd565b5050505050565b6007546000906001600160a01b03163b61194c575060006106dc565b60075460405163c455279160e01b81526001600160a01b03858116600483015291821691841690829063c45527919060240160206040518083038186803b15801561199657600080fd5b505afa1580156119aa573d6000803e3d6000fd5b505050506040513d601f19601f820116820180604052508101906119ce9190612fbf565b6001600160a01b031614949350505050565b600654600160a01b900460ff1615611a0a5760405162461bcd60e51b815260040161085090613372565b84611a136115db565b6001600160a01b0316816001600160a01b03161480611a395750611a39816106086115db565b611a555760405162461bcd60e51b8152600401610850906132d4565b6001600160a01b038516611ab95760405162461bcd60e51b815260206004820152602560248201527f455243313135353a207472616e7366657220746f20746865207a65726f206164604482015264647265737360d81b6064820152608401610850565b6000611ac36115db565b9050611add818888611ad489612163565b61192989612163565b6000858152600a602090815260408083206001600160a01b038b16845290915290205484811015611b635760405162461bcd60e51b815260206004820152602a60248201527f455243313135353a20696e73756666696369656e742062616c616e636520666f60448201526939103a3930b739b332b960b11b6064820152608401610850565b611b6d85826133d7565b6000878152600a602090815260408083206001600160a01b038d81168552925280832093909355891681529081208054879290611bab9084906133bf565b909155505060408051878152602081018790526001600160a01b03808a16928b821692918616917fc3d58168c5ae7397731d063d5bbf3d657854427343f4c083240f7aacaa2d0f62910160405180910390a4611c0b8289898989896121bc565b5050505050505050565b600081611c2285856106a2565b1015949350505050565b82611c356115db565b6001600160a01b0316816001600160a01b03161480611c5b5750611c5b816106086115db565b611c775760405162461bcd60e51b8152600401610850906132d4565b610ec7848484612327565b82611c8b6115db565b6001600160a01b0316816001600160a01b03161480611cb15750611cb1816106086115db565b611ccd5760405162461bcd60e51b8152600401610850906132d4565b610ec784848461256f565b60006040518060800160405280604381526020016135946043913980516020918201208351848301516040808701518051908601209051611d38950193845260208401929092526001600160a01b03166040830152606082015260800190565b604051602081830303815290604052805190602001209050919050565b6000611d6060045490565b60405161190160f01b6020820152602281019190915260428101839052606201611d38565b600654600160a01b900460ff1615611daf5760405162461bcd60e51b815260040161085090613372565b6000611db96115db565b9050611dd481600087611dcb88612163565b61192988612163565b611dde848461281b565b6000848152600a602090815260408083206001600160a01b038916845290915281208054859290611e109084906133bf565b90915550506000848152600b602052604081208054859290611e339084906133bf565b9091555060009050611e4485612899565b9050856001600160a01b0316816001600160a01b0316836001600160a01b03167fc3d58168c5ae7397731d063d5bbf3d657854427343f4c083240f7aacaa2d0f628888604051611e9e929190918252602082015260400190565b60405180910390a4610c108282888888886121bc565b600654600160a01b900460ff1615611ede5760405162461bcd60e51b815260040161085090613372565b8151835114611f485760405162461bcd60e51b815260206004820152603060248201527f455243313135355472616461626c652362617463684d696e743a20494e56414c60448201526f09288be82a4a482b2a6be988a9c8ea8960831b6064820152608401610850565b82516000611f79858284611f6c57634e487b7160e01b600052603260045260246000fd5b6020026020010151612899565b90506000611f856115db565b905060005b838110156120f4576000878281518110611fb457634e487b7160e01b600052603260045260246000fd5b602002602001015190506000878381518110611fe057634e487b7160e01b600052603260045260246000fd5b60200260200101519050611ff4828261281b565b846001600160a01b031661200783612899565b6001600160a01b0316146120835760405162461bcd60e51b815260206004820152603760248201527f455243313135355472616461626c652362617463684d696e743a204d554c544960448201527f504c455f4f524947494e535f4e4f545f414c4c4f5745440000000000000000006064820152608401610850565b6000828152600a602090815260408083206001600160a01b038e168452909152812080548392906120b59084906133bf565b90915550506000828152600b6020526040812080548392906120d89084906133bf565b92505081905550505080806120ec90613481565b915050611f8a565b50866001600160a01b0316826001600160a01b0316826001600160a01b03167f4a39dc06d4c0dbc64b70af90fd698a233a518aa5d07e595d983b8c0526c8f7fb89896040516121449291906131f7565b60405180910390a461215a8183898989896128ad565b50505050505050565b604080516001808252818301909252606091600091906020808301908036833701905050905082816000815181106121ab57634e487b7160e01b600052603260045260246000fd5b602090810291909101015292915050565b6001600160a01b0384163b15610c105760405163f23a6e6160e01b81526001600160a01b0385169063f23a6e6190612200908990899088908890889060040161319f565b602060405180830381600087803b15801561221a57600080fd5b505af192505050801561224a575060408051601f3d908101601f1916820190925261224791810190612fa3565b60015b6122f7576122566134c8565b806308c379a01415612290575061226b6134df565b806122765750612292565b8060405162461bcd60e51b8152600401610850919061321c565b505b60405162461bcd60e51b815260206004820152603460248201527f455243313135353a207472616e7366657220746f206e6f6e20455243313135356044820152732932b1b2b4bb32b91034b6b83632b6b2b73a32b960611b6064820152608401610850565b6001600160e01b0319811663f23a6e6160e01b1461215a5760405162461bcd60e51b81526004016108509061322f565b600654600160a01b900460ff16156123515760405162461bcd60e51b815260040161085090613372565b6001600160a01b0383166123b55760405162461bcd60e51b815260206004820152602560248201527f45524331313535235f6275726e3a204255524e5f46524f4d5f5a45524f5f4144604482015264445245535360d81b6064820152608401610850565b600081116124115760405162461bcd60e51b815260206004820152602360248201527f45524331313535235f6275726e3a20414d4f554e545f4c4553535f5448414e5f6044820152624f4e4560e81b6064820152608401610850565b600061241b6115db565b905061244c8185600061242d87612163565b61243687612163565b5050604080516020810190915260009052505050565b6000838152600a602090815260408083206001600160a01b0388168452909152902054828110156124cd5760405162461bcd60e51b815260206004820152602560248201527f45524331313535235f6275726e3a20414d4f554e545f455843454544535f42416044820152644c414e434560d81b6064820152608401610850565b6124d783826133d7565b6000858152600a602090815260408083206001600160a01b038a168452825280832093909355868252600b905290812080548592906125179084906133d7565b909155505060408051858152602081018590526000916001600160a01b0388811692908616917fc3d58168c5ae7397731d063d5bbf3d657854427343f4c083240f7aacaa2d0f62910160405180910390a45050505050565b600654600160a01b900460ff16156125995760405162461bcd60e51b815260040161085090613372565b6001600160a01b0383166125ef5760405162461bcd60e51b815260206004820152601f60248201527f455243313135353a204255524e5f46524f4d5f5a45524f5f41444452455353006044820152606401610850565b805182511461264c5760405162461bcd60e51b8152602060048201526024808201527f455243313135353a204944535f414d4f554e54535f4c454e4754485f4d49534d604482015263082a886960e31b6064820152608401610850565b60006126566115db565b604080516020810190915260009052905060005b83518110156127bc57600084828151811061269557634e487b7160e01b600052603260045260246000fd5b6020026020010151905060008483815181106126c157634e487b7160e01b600052603260045260246000fd5b6020908102919091018101516000848152600a835260408082206001600160a01b038c1683529093529190912054909150818110156127555760405162461bcd60e51b815260206004820152602a60248201527f45524331313535235f6275726e42617463683a20414d4f554e545f455843454560448201526944535f42414c414e434560b01b6064820152608401610850565b61275f82826133d7565b6000848152600a602090815260408083206001600160a01b038d168452825280832093909355858252600b9052908120805484929061279f9084906133d7565b9250508190555050505080806127b490613481565b91505061266a565b5060006001600160a01b0316846001600160a01b0316826001600160a01b03167f4a39dc06d4c0dbc64b70af90fd698a233a518aa5d07e595d983b8c0526c8f7fb868660405161280d9291906131f7565b60405180910390a450505050565b612824826114d1565b811115610b1c5760405162461bcd60e51b815260206004820152603c60248201527f4173736574436f6e7472616374235f6265666f72654d696e743a205155414e5460448201527f4954595f455843454544535f544f4b454e5f535550504c595f434150000000006064820152608401610850565b60006106dc6006546001600160a01b031690565b6001600160a01b0384163b15610c105760405163bc197c8160e01b81526001600160a01b0385169063bc197c81906128f1908990899088908890889060040161314d565b602060405180830381600087803b15801561290b57600080fd5b505af192505050801561293b575060408051601f3d908101601f1916820190925261293891810190612fa3565b60015b612947576122566134c8565b6001600160e01b0319811663bc197c8160e01b1461215a5760405162461bcd60e51b81526004016108509061322f565b8280546129839061341a565b90600052602060002090601f0160209004810192826129a557600085556129eb565b82601f106129be57805160ff19168380011785556129eb565b828001600101855582156129eb579182015b828111156129eb5782518255916020019190600101906129d0565b506129f79291506129fb565b5090565b5b808211156129f757600081556001016129fc565b600082601f830112612a20578081fd5b81356020612a2d8261339c565b604051612a3a8282613455565b8381528281019150858301600585901b87018401881015612a59578586fd5b855b85811015612a7757813584529284019290840190600101612a5b565b5090979650505050505050565b600082601f830112612a94578081fd5b81356001600160401b03811115612aad57612aad6134b2565b604051612ac4601f8301601f191660200182613455565b818152846020838601011115612ad8578283fd5b816020850160208301379081016020019190915292915050565b600060208284031215612b03578081fd5b81356110f581613568565b60008060408385031215612b20578081fd5b8235612b2b81613568565b91506020830135612b3b81613568565b809150509250929050565b600080600080600060a08688031215612b5d578081fd5b8535612b6881613568565b94506020860135612b7881613568565b935060408601356001600160401b0380821115612b93578283fd5b612b9f89838a01612a10565b94506060880135915080821115612bb4578283fd5b612bc089838a01612a10565b93506080880135915080821115612bd5578283fd5b50612be288828901612a84565b9150509295509295909350565b600080600080600060a08688031215612c06578081fd5b8535612c1181613568565b94506020860135612c2181613568565b9350604086013592506060860135915060808601356001600160401b03811115612c49578182fd5b612be288828901612a84565b600080600060608486031215612c69578283fd5b8335612c7481613568565b925060208401356001600160401b0380821115612c8f578384fd5b612c9b87838801612a10565b93506040860135915080821115612cb0578283fd5b50612cbd86828701612a10565b9150509250925092565b60008060008060808587031215612cdc578384fd5b8435612ce781613568565b935060208501356001600160401b0380821115612d02578485fd5b612d0e88838901612a10565b94506040870135915080821115612d23578384fd5b612d2f88838901612a10565b93506060870135915080821115612d44578283fd5b50612d5187828801612a84565b91505092959194509250565b60008060408385031215612d6f578182fd5b8235612d7a81613568565b915060208301358015158114612b3b578182fd5b600080600080600060a08688031215612da5578283fd5b8535612db081613568565b945060208601356001600160401b03811115612dca578384fd5b612dd688828901612a84565b9450506040860135925060608601359150608086013560ff81168114612dfa578182fd5b809150509295509295909350565b60008060408385031215612e1a578182fd5b8235612e2581613568565b946020939093013593505050565b600080600060608486031215612e47578081fd5b8335612e5281613568565b95602085013595506040909401359392505050565b60008060008060808587031215612e7c578182fd5b8435612e8781613568565b9350602085013592506040850135915060608501356001600160401b03811115612eaf578182fd5b612d5187828801612a84565b60008060408385031215612ecd578182fd5b82356001600160401b0380821115612ee3578384fd5b818501915085601f830112612ef6578384fd5b81356020612f038261339c565b604051612f108282613455565b8381528281019150858301600585901b870184018b1015612f2f578889fd5b8896505b84871015612f5a578035612f4681613568565b835260019690960195918301918301612f33565b5096505086013592505080821115612f70578283fd5b50612f7d85828601612a10565b9150509250929050565b600060208284031215612f98578081fd5b81356110f58161357d565b600060208284031215612fb4578081fd5b81516110f58161357d565b600060208284031215612fd0578081fd5b81516110f581613568565b600060208284031215612fec578081fd5b81356001600160401b03811115613001578182fd5b6106d884828501612a84565b60006020828403121561301e578081fd5b5035919050565b60008060408385031215613037578182fd5b8235915060208301356001600160401b03811115613053578182fd5b612f7d85828601612a84565b6000815180845260208085019450808401835b8381101561308e57815187529582019590820190600101613072565b509495945050505050565b600081518084526130b18160208601602086016133ee565b601f01601f19169290920160200192915050565b600082516130d78184602087016133ee565b9190910192915050565b600083516130f38184602088016133ee565b60609390931b6bffffffffffffffffffffffff19169190920190815260140192915050565b6001600160a01b0384811682528316602082015260606040820181905260009061314490830184613099565b95945050505050565b6001600160a01b0386811682528516602082015260a0604082018190526000906131799083018661305f565b828103606084015261318b818661305f565b905082810360808401526109918185613099565b6001600160a01b03868116825285166020820152604081018490526060810183905260a0608082018190526000906131d990830184613099565b979650505050505050565b6020815260006110f5602083018461305f565b60408152600061320a604083018561305f565b8281036020840152613144818561305f565b6020815260006110f56020830184613099565b60208082526028908201527f455243313135353a204552433131353552656365697665722072656a656374656040820152676420746f6b656e7360c01b606082015260800190565b60208082526037908201527f4173736574436f6e7472616374236f6e6c79496d7065726d616e656e7455524960408201527f3a205552495f43414e4e4f545f42455f4348414e474544000000000000000000606082015260800190565b60208082526030908201527f455243313135355472616461626c65236f6e6c79417070726f7665643a20434160408201526f1313115497d393d517d0531313d5d15160821b606082015260800190565b6020808252602e908201527f455243313135355472616461626c65236f6e6c794f776e65723a2043414c4c4560408201526d292fa4a9afa727aa2fa7aba722a960911b606082015260800190565b60208082526010908201526f14185d5cd8589b194e881c185d5cd95960821b604082015260600190565b60006001600160401b038211156133b5576133b56134b2565b5060051b60200190565b600082198211156133d2576133d261349c565b500190565b6000828210156133e9576133e961349c565b500390565b60005b838110156134095781810151838201526020016133f1565b83811115610ec75750506000910152565b600181811c9082168061342e57607f821691505b6020821081141561344f57634e487b7160e01b600052602260045260246000fd5b50919050565b601f8201601f191681016001600160401b038111828210171561347a5761347a6134b2565b6040525050565b60006000198214156134955761349561349c565b5060010190565b634e487b7160e01b600052601160045260246000fd5b634e487b7160e01b600052604160045260246000fd5b600060033d111561142957600481823e5160e01c90565b600060443d10156134ed5790565b6040516003193d81016004833e81513d6001600160401b03816024840111818411171561351c57505050505090565b82850191508151818111156135345750505050505090565b843d870101602082850101111561354e5750505050505090565b61355d60208286010187613455565b509095945050505050565b6001600160a01b038116811461123357600080fd5b6001600160e01b03198116811461123357600080fdfe4d6574615472616e73616374696f6e2875696e74323536206e6f6e63652c616464726573732066726f6d2c62797465732066756e6374696f6e5369676e617475726529a26469706673582212203428853b0018b3b07a8cfd16ab9e568f627ff49fb49cc754e0779dd037c0f51464736f6c63430008040033454950373132446f6d61696e28737472696e67206e616d652c737472696e672076657273696f6e2c6164647265737320766572696679696e67436f6e74726163742c627974657333322073616c7429",
  "immutableReferences": {},
  "source": "// File: Opensea contracts/AssetContract.sol\r\n// File: contracts/TokenIdentifiers.sol\r\n\r\npragma solidity 0.8.4;\r\n\r\nimport \"./ERC1155Tradable.sol\";\r\nimport \"./Strings.sol\";\r\n\r\n/**\r\n * @title AssetContract\r\n * AssetContract - A contract for easily creating non-fungible assets on OpenSea.\r\n */\r\ncontract AssetContract is ERC1155Tradable {\r\n    event PermanentURI(string _value, uint256 indexed _id);\r\n\r\n    uint256 constant TOKEN_SUPPLY_CAP = 1;\r\n\r\n    string public templateURI;\r\n\r\n    // Optional mapping for token URIs\r\n    mapping(uint256 => string) private _tokenURI;\r\n\r\n    // Mapping for whether a token URI is set permanently\r\n    mapping(uint256 => bool) private _isPermanentURI;\r\n\r\n    modifier onlyTokenAmountOwned(\r\n        address _from,\r\n        uint256 _id,\r\n        uint256 _quantity\r\n    ) {\r\n        require(\r\n            _ownsTokenAmount(_from, _id, _quantity),\r\n            \"AssetContract#onlyTokenAmountOwned: ONLY_TOKEN_AMOUNT_OWNED_ALLOWED\"\r\n        );\r\n        _;\r\n    }\r\n\r\n    /**\r\n     * @dev Require the URI to be impermanent\r\n     */\r\n    modifier onlyImpermanentURI(uint256 id) {\r\n        require(\r\n            !isPermanentURI(id),\r\n            \"AssetContract#onlyImpermanentURI: URI_CANNOT_BE_CHANGED\"\r\n        );\r\n        _;\r\n    }\r\n\r\n    constructor(\r\n        string memory _name,\r\n        string memory _symbol,\r\n        address _proxyRegistryAddress,\r\n        string memory _templateURI\r\n    ) ERC1155Tradable(_name, _symbol, _proxyRegistryAddress) {\r\n        if (bytes(_templateURI).length > 0) {\r\n            setTemplateURI(_templateURI);\r\n        }\r\n    }\r\n\r\n    function openSeaVersion() public pure returns (string memory) {\r\n        return \"2.1.0\";\r\n    }\r\n\r\n    /**\r\n     * @dev Require _from to own a specified quantity of the token\r\n     */\r\n    function _ownsTokenAmount(\r\n        address _from,\r\n        uint256 _id,\r\n        uint256 _quantity\r\n    ) internal view returns (bool) {\r\n        return balanceOf(_from, _id) >= _quantity;\r\n    }\r\n\r\n    /**\r\n     * Compat for factory interfaces on OpenSea\r\n     * Indicates that this contract can return balances for\r\n     * tokens that haven't been minted yet\r\n     */\r\n    function supportsFactoryInterface() public pure returns (bool) {\r\n        return true;\r\n    }\r\n\r\n    function setTemplateURI(string memory _uri) public onlyOwnerOrProxy {\r\n        templateURI = _uri;\r\n    }\r\n\r\n    function setURI(uint256 _id, string memory _uri)\r\n        public\r\n        virtual\r\n        onlyOwnerOrProxy\r\n        onlyImpermanentURI(_id)\r\n    {\r\n        _setURI(_id, _uri);\r\n    }\r\n\r\n    function setPermanentURI(uint256 _id, string memory _uri)\r\n        public\r\n        virtual\r\n        onlyOwnerOrProxy\r\n        onlyImpermanentURI(_id)\r\n    {\r\n        _setPermanentURI(_id, _uri);\r\n    }\r\n\r\n    function isPermanentURI(uint256 _id) public view returns (bool) {\r\n        return _isPermanentURI[_id];\r\n    }\r\n\r\n    function uri(uint256 _id) public view override returns (string memory) {\r\n        string memory tokenUri = _tokenURI[_id];\r\n        if (bytes(tokenUri).length != 0) {\r\n            return tokenUri;\r\n        }\r\n        return templateURI;\r\n    }\r\n\r\n    function balanceOf(address _owner, uint256 _id)\r\n        public\r\n        view\r\n        virtual\r\n        override\r\n        returns (uint256)\r\n    {\r\n        uint256 balance = super.balanceOf(_owner, _id);\r\n        return\r\n            _isCreatorOrProxy(_id, _owner)\r\n                ? balance + _remainingSupply(_id)\r\n                : balance;\r\n    }\r\n\r\n    function safeTransferFrom(\r\n        address _from,\r\n        address _to,\r\n        uint256 _id,\r\n        uint256 _amount,\r\n        bytes memory _data\r\n    ) public override {\r\n        uint256 mintedBalance = super.balanceOf(_from, _id);\r\n        if (mintedBalance < _amount) {\r\n            // Only mint what _from doesn't already have\r\n            mint(_to, _id, _amount - mintedBalance, _data);\r\n            if (mintedBalance > 0) {\r\n                super.safeTransferFrom(_from, _to, _id, mintedBalance, _data);\r\n            }\r\n        } else {\r\n            super.safeTransferFrom(_from, _to, _id, _amount, _data);\r\n        }\r\n    }\r\n\r\n    function safeBatchTransferFrom(\r\n        address _from,\r\n        address _to,\r\n        uint256[] memory _ids,\r\n        uint256[] memory _amounts,\r\n        bytes memory _data\r\n    ) public override {\r\n        require(\r\n            _ids.length == _amounts.length,\r\n            \"AssetContract#safeBatchTransferFrom: INVALID_ARRAYS_LENGTH\"\r\n        );\r\n        for (uint256 i = 0; i < _ids.length; i++) {\r\n            safeTransferFrom(_from, _to, _ids[i], _amounts[i], _data);\r\n        }\r\n    }\r\n\r\n    function _beforeMint(uint256 _id, uint256 _quantity)\r\n        internal\r\n        view\r\n        override\r\n    {\r\n        require(\r\n            _quantity <= _remainingSupply(_id),\r\n            \"AssetContract#_beforeMint: QUANTITY_EXCEEDS_TOKEN_SUPPLY_CAP\"\r\n        );\r\n    }\r\n\r\n    // Overrides ERC1155Tradable burn to check for quantity owned\r\n    function burn(\r\n        address _from,\r\n        uint256 _id,\r\n        uint256 _quantity\r\n    ) public override onlyTokenAmountOwned(_from, _id, _quantity) {\r\n        super.burn(_from, _id, _quantity);\r\n    }\r\n\r\n    // Overrides ERC1155Tradable batchBurn to check for quantity owned\r\n    function batchBurn(\r\n        address _from,\r\n        uint256[] memory _ids,\r\n        uint256[] memory _quantities\r\n    ) public override {\r\n        for (uint256 i = 0; i < _ids.length; i++) {\r\n            require(\r\n                _ownsTokenAmount(_from, _ids[i], _quantities[i]),\r\n                \"AssetContract#batchBurn: ONLY_TOKEN_AMOUNT_OWNED_ALLOWED\"\r\n            );\r\n        }\r\n        super.batchBurn(_from, _ids, _quantities);\r\n    }\r\n\r\n    function _mint(\r\n        address _to,\r\n        uint256 _id,\r\n        uint256 _quantity,\r\n        bytes memory _data\r\n    ) internal override {\r\n        super._mint(_to, _id, _quantity, _data);\r\n        if (_data.length > 1) {\r\n            _setURI(_id, string(_data));\r\n        }\r\n    }\r\n\r\n    function _isCreatorOrProxy(uint256, address _address)\r\n        internal\r\n        view\r\n        virtual\r\n        returns (bool)\r\n    {\r\n        return _isOwnerOrProxy(_address);\r\n    }\r\n\r\n    function _remainingSupply(uint256 _id)\r\n        internal\r\n        view\r\n        virtual\r\n        returns (uint256)\r\n    {\r\n        return TOKEN_SUPPLY_CAP - totalSupply(_id);\r\n    }\r\n\r\n    // Override ERC1155Tradable for birth events\r\n    function _origin(\r\n        uint256 /* _id */\r\n    ) internal view virtual override returns (address) {\r\n        return owner();\r\n    }\r\n\r\n    function _batchMint(\r\n        address _to,\r\n        uint256[] memory _ids,\r\n        uint256[] memory _quantities,\r\n        bytes memory _data\r\n    ) internal virtual override {\r\n        super._batchMint(_to, _ids, _quantities, _data);\r\n        if (_data.length > 1) {\r\n            for (uint256 i = 0; i < _ids.length; i++) {\r\n                _setURI(_ids[i], string(_data));\r\n            }\r\n        }\r\n    }\r\n\r\n    function _setURI(uint256 _id, string memory _uri) internal {\r\n        _tokenURI[_id] = _uri;\r\n        emit URI(_uri, _id);\r\n    }\r\n\r\n    function _setPermanentURI(uint256 _id, string memory _uri)\r\n        internal\r\n        virtual\r\n    {\r\n        require(\r\n            bytes(_uri).length > 0,\r\n            \"AssetContract#setPermanentURI: ONLY_VALID_URI\"\r\n        );\r\n        _isPermanentURI[_id] = true;\r\n        _setURI(_id, _uri);\r\n        emit PermanentURI(_uri, _id);\r\n    }\r\n}\r\n\r\n/*\r\n  DESIGN NOTES:\r\n  Token ids are a concatenation of:\r\n * creator: hex address of the creator of the token. 160 bits\r\n * index: Index for this token (the regular ID), up to 2^56 - 1. 56 bits\r\n * supply: Supply cap for this token, up to 2^40 - 1 (1 trillion).  40 bits\r\n\r\n*/\r\n/**\r\n * @title TokenIdentifiers\r\n * support for authentication and metadata for token ids\r\n */\r\nlibrary TokenIdentifiers {\r\n    uint8 constant ADDRESS_BITS = 160;\r\n    uint8 constant INDEX_BITS = 56;\r\n    uint8 constant SUPPLY_BITS = 40;\r\n\r\n    uint256 constant SUPPLY_MASK = (uint256(1) << SUPPLY_BITS) - 1;\r\n    uint256 constant INDEX_MASK =\r\n        ((uint256(1) << INDEX_BITS) - 1) ^ SUPPLY_MASK;\r\n\r\n    function tokenMaxSupply(uint256 _id) internal pure returns (uint256) {\r\n        return _id & SUPPLY_MASK;\r\n    }\r\n\r\n    function tokenIndex(uint256 _id) internal pure returns (uint256) {\r\n        return _id & INDEX_MASK;\r\n    }\r\n\r\n    function tokenCreator(uint256 _id) internal pure returns (address) {\r\n        return address(uint160(_id >> (INDEX_BITS + SUPPLY_BITS)));\r\n    }\r\n}\r\n",
  "sourcePath": "D:\\anycallapp\\multichain-pegged-openstore\\destchain\\contracts\\lib\\AssetContract.sol",
  "compiler": {
    "name": "solc",
    "version": "0.8.4+commit.c7e474f2.Emscripten.clang"
  },
  "schemaVersion": "3.4.8",
  "updatedAt": "2022-07-12T05:05:27.532Z",
  "devdoc": {
    "kind": "dev",
    "methods": {
      "balanceOfBatch(address[],uint256[])": {
        "details": "See {IERC1155-balanceOfBatch}. Requirements: - `accounts` and `ids` must have the same length."
      },
      "batchBurn(address,uint256[],uint256[])": {
        "details": "Burns tokens for each id in _ids",
        "params": {
          "_from": "The address to burn tokens from",
          "_ids": "Array of token ids to burn",
          "_quantities": "Array of the amount to be burned"
        }
      },
      "batchMint(address,uint256[],uint256[],bytes)": {
        "details": "Mint tokens for each id in _ids",
        "params": {
          "_data": "Data to pass if receiver is contract",
          "_ids": "Array of ids to mint",
          "_quantities": "Array of amounts of tokens to mint per id",
          "_to": "The address to mint tokens to"
        }
      },
      "burn(address,uint256,uint256)": {
        "details": "Burns amount of a given token id",
        "params": {
          "_from": "The address to burn tokens from",
          "_id": "Token ID to burn",
          "_quantity": "Amount to burn"
        }
      },
      "exists(uint256)": {
        "details": "Returns whether the specified token is minted",
        "params": {
          "_id": "uint256 ID of the token to query the existence of"
        },
        "returns": {
          "_0": "bool whether the token exists"
        }
      },
      "mint(address,uint256,uint256,bytes)": {
        "details": "Mints some amount of tokens to an address",
        "params": {
          "_data": "Data to pass if receiver is contract",
          "_id": "Token ID to mint",
          "_quantity": "Amount of tokens to mint",
          "_to": "Address of the future owner of the token"
        }
      },
      "owner()": {
        "details": "Returns the address of the current owner."
      },
      "paused()": {
        "details": "Returns true if the contract is paused, and false otherwise."
      },
      "renounceOwnership()": {
        "details": "Leaves the contract without owner. It will not be possible to call `onlyOwner` functions anymore. Can only be called by the current owner. NOTE: Renouncing ownership will leave the contract without an owner, thereby removing any functionality that is only available to the owner."
      },
      "setApprovalForAll(address,bool)": {
        "details": "See {IERC1155-setApprovalForAll}."
      },
      "supportsInterface(bytes4)": {
        "details": "See {IERC165-supportsInterface}."
      },
      "totalSupply(uint256)": {
        "details": "Returns the total quantity for a token ID",
        "params": {
          "_id": "uint256 ID of the token to query"
        },
        "returns": {
          "_0": "amount of token in existence"
        }
      },
      "transferOwnership(address)": {
        "details": "Transfers ownership of the contract to a new account (`newOwner`). Can only be called by the current owner."
      }
    },
    "title": "AssetContract AssetContract - A contract for easily creating non-fungible assets on OpenSea.",
    "version": 1
  },
  "userdoc": {
    "kind": "user",
    "methods": {
      "isApprovedForAll(address,address)": {
        "notice": "Override isApprovedForAll to whitelist user's OpenSea proxy accounts to enable gas-free listings."
      },
      "supportsFactoryInterface()": {
        "notice": "Compat for factory interfaces on OpenSea Indicates that this contract can return balances for tokens that haven't been minted yet"
      }
    },
    "version": 1
  }
}