{
  "contractName": "ERC1155Gateway_MintBurn",
  "abi": [
    {
      "inputs": [
        {
          "internalType": "address",
          "name": "anyCallProxy",
          "type": "address"
        },
        {
          "internalType": "address",
          "name": "token",
          "type": "address"
        }
      ],
      "stateMutability": "nonpayable",
      "type": "constructor"
    },
    {
      "anonymous": false,
      "inputs": [
        {
          "indexed": false,
          "internalType": "address",
          "name": "admin",
          "type": "address"
        }
      ],
      "name": "LogAcceptAdmin",
      "type": "event"
    },
    {
      "anonymous": false,
      "inputs": [
        {
          "indexed": false,
          "internalType": "uint256",
          "name": "tokenId",
          "type": "uint256"
        },
        {
          "indexed": false,
          "internalType": "address",
          "name": "sender",
          "type": "address"
        },
        {
          "indexed": false,
          "internalType": "address",
          "name": "receiver",
          "type": "address"
        },
        {
          "indexed": false,
          "internalType": "uint256",
          "name": "toChainID",
          "type": "uint256"
        },
        {
          "indexed": false,
          "internalType": "uint256",
          "name": "swapoutSeq",
          "type": "uint256"
        }
      ],
      "name": "LogAnySwapOut",
      "type": "event"
    },
    {
      "anonymous": false,
      "inputs": [
        {
          "indexed": false,
          "internalType": "address",
          "name": "admin",
          "type": "address"
        }
      ],
      "name": "LogSetAdmin",
      "type": "event"
    },
    {
      "anonymous": false,
      "inputs": [
        {
          "indexed": false,
          "internalType": "address",
          "name": "oldadmin",
          "type": "address"
        },
        {
          "indexed": false,
          "internalType": "address",
          "name": "newadmin",
          "type": "address"
        }
      ],
      "name": "LogTransferAdmin",
      "type": "event"
    },
    {
      "inputs": [
        {
          "internalType": "uint256",
          "name": "tokenId",
          "type": "uint256"
        },
        {
          "internalType": "uint256",
          "name": "amount",
          "type": "uint256"
        },
        {
          "internalType": "address",
          "name": "receiver",
          "type": "address"
        },
        {
          "internalType": "uint256",
          "name": "destChainID",
          "type": "uint256"
        }
      ],
      "name": "Swapout",
      "outputs": [
        {
          "internalType": "uint256",
          "name": "",
          "type": "uint256"
        }
      ],
      "stateMutability": "payable",
      "type": "function"
    },
    {
      "inputs": [
        {
          "internalType": "uint256",
          "name": "tokenId",
          "type": "uint256"
        },
        {
          "internalType": "uint256",
          "name": "amount",
          "type": "uint256"
        },
        {
          "internalType": "address",
          "name": "receiver",
          "type": "address"
        },
        {
          "internalType": "uint256",
          "name": "destChainID",
          "type": "uint256"
        }
      ],
      "name": "Swapout_no_fallback",
      "outputs": [
        {
          "internalType": "uint256",
          "name": "",
          "type": "uint256"
        }
      ],
      "stateMutability": "payable",
      "type": "function"
    },
    {
      "inputs": [],
      "name": "acceptAdmin",
      "outputs": [],
      "stateMutability": "nonpayable",
      "type": "function"
    },
    {
      "inputs": [],
      "name": "admin",
      "outputs": [
        {
          "internalType": "address",
          "name": "",
          "type": "address"
        }
      ],
      "stateMutability": "view",
      "type": "function"
    },
    {
      "inputs": [],
      "name": "anyCallProxy",
      "outputs": [
        {
          "internalType": "address",
          "name": "",
          "type": "address"
        }
      ],
      "stateMutability": "view",
      "type": "function"
    },
    {
      "inputs": [
        {
          "internalType": "bytes",
          "name": "data",
          "type": "bytes"
        }
      ],
      "name": "anyExecute",
      "outputs": [
        {
          "internalType": "bool",
          "name": "success",
          "type": "bool"
        },
        {
          "internalType": "bytes",
          "name": "result",
          "type": "bytes"
        }
      ],
      "stateMutability": "nonpayable",
      "type": "function"
    },
    {
      "inputs": [
        {
          "internalType": "address",
          "name": "to",
          "type": "address"
        },
        {
          "internalType": "bytes",
          "name": "data",
          "type": "bytes"
        }
      ],
      "name": "anyFallback",
      "outputs": [],
      "stateMutability": "nonpayable",
      "type": "function"
    },
    {
      "inputs": [
        {
          "internalType": "address",
          "name": "to",
          "type": "address"
        }
      ],
      "name": "collectFee",
      "outputs": [
        {
          "internalType": "bool",
          "name": "",
          "type": "bool"
        }
      ],
      "stateMutability": "nonpayable",
      "type": "function"
    },
    {
      "inputs": [],
      "name": "flag",
      "outputs": [
        {
          "internalType": "uint256",
          "name": "",
          "type": "uint256"
        }
      ],
      "stateMutability": "view",
      "type": "function"
    },
    {
      "inputs": [
        {
          "internalType": "uint256",
          "name": "foreignChainID",
          "type": "uint256"
        }
      ],
      "name": "getPeer",
      "outputs": [
        {
          "internalType": "address",
          "name": "",
          "type": "address"
        }
      ],
      "stateMutability": "view",
      "type": "function"
    },
    {
      "inputs": [],
      "name": "name",
      "outputs": [
        {
          "internalType": "string",
          "name": "",
          "type": "string"
        }
      ],
      "stateMutability": "view",
      "type": "function"
    },
    {
      "inputs": [
        {
          "internalType": "uint256",
          "name": "",
          "type": "uint256"
        }
      ],
      "name": "peer",
      "outputs": [
        {
          "internalType": "address",
          "name": "",
          "type": "address"
        }
      ],
      "stateMutability": "view",
      "type": "function"
    },
    {
      "inputs": [],
      "name": "pendingAdmin",
      "outputs": [
        {
          "internalType": "address",
          "name": "",
          "type": "address"
        }
      ],
      "stateMutability": "view",
      "type": "function"
    },
    {
      "inputs": [
        {
          "internalType": "uint256",
          "name": "",
          "type": "uint256"
        }
      ],
      "name": "price",
      "outputs": [
        {
          "internalType": "uint256",
          "name": "",
          "type": "uint256"
        }
      ],
      "stateMutability": "view",
      "type": "function"
    },
    {
      "inputs": [
        {
          "internalType": "address",
          "name": "proxy",
          "type": "address"
        }
      ],
      "name": "setAnyCallProxy",
      "outputs": [],
      "stateMutability": "nonpayable",
      "type": "function"
    },
    {
      "inputs": [
        {
          "internalType": "uint256[]",
          "name": "chainIDs",
          "type": "uint256[]"
        },
        {
          "internalType": "address[]",
          "name": "peers",
          "type": "address[]"
        }
      ],
      "name": "setForeignGateway",
      "outputs": [],
      "stateMutability": "nonpayable",
      "type": "function"
    },
    {
      "inputs": [
        {
          "internalType": "uint256[]",
          "name": "chainIDs",
          "type": "uint256[]"
        },
        {
          "internalType": "address[]",
          "name": "peers",
          "type": "address[]"
        }
      ],
      "name": "setPeers",
      "outputs": [],
      "stateMutability": "nonpayable",
      "type": "function"
    },
    {
      "inputs": [
        {
          "internalType": "uint256[]",
          "name": "chainIDs",
          "type": "uint256[]"
        },
        {
          "internalType": "uint256[]",
          "name": "prices",
          "type": "uint256[]"
        }
      ],
      "name": "setPrice",
      "outputs": [],
      "stateMutability": "nonpayable",
      "type": "function"
    },
    {
      "inputs": [],
      "name": "swapoutSeq",
      "outputs": [
        {
          "internalType": "uint256",
          "name": "",
          "type": "uint256"
        }
      ],
      "stateMutability": "view",
      "type": "function"
    },
    {
      "inputs": [],
      "name": "token",
      "outputs": [
        {
          "internalType": "address",
          "name": "",
          "type": "address"
        }
      ],
      "stateMutability": "view",
      "type": "function"
    },
    {
      "inputs": [
        {
          "internalType": "address",
          "name": "newAdmin",
          "type": "address"
        }
      ],
      "name": "transferAdmin",
      "outputs": [],
      "stateMutability": "nonpayable",
      "type": "function"
    },
    {
      "inputs": [],
      "name": "setupERC721",
      "outputs": [],
      "stateMutability": "nonpayable",
      "type": "function"
    }
  ],
  "bytecode": "0x60806040523480156200001157600080fd5b5060405162001b6238038062001b628339810160408190526200003491620000fc565b600380546001600160a01b0319166001600160a01b0384161790556000600255818162000061336200008b565b600580546001600160a01b0319166001600160a01b03929092169190911790555062000133915050565b600080546001600160a01b0319166001600160a01b0383169081179091556040519081527fd9be138201bddb701e32a38e3dff605053c22b8f66e2a46b7f3aec9091f5a4149060200160405180910390a150565b80516001600160a01b0381168114620000f757600080fd5b919050565b600080604083850312156200010f578182fd5b6200011a83620000df565b91506200012a60208401620000df565b90509250929050565b611a1f80620001436000396000f3fe6080604052600436106101355760003560e01c80639abaf479116100ab578063c0bdd63e1161006f578063c0bdd63e14610387578063d0886681146103a7578063e41f9ef3146103ba578063f44a8afe146103da578063f851a440146103fa578063fc0c546a1461041a57600080fd5b80639abaf479146102f05780639cbe90711461031e578063a35fe8bf14610331578063a3d5645714610351578063a48ba5c61461036757600080fd5b80632de2c8ad116100fd5780632de2c8ad1461022557806367ebb6b214610245578063690bfd801461027b57806369b59e751461028a57806375829def146102ba578063890eba68146102da57600080fd5b806306fdde031461013a5780630e18b68114610165578063116a01a41461017c57806326782247146101ca57806326a49e37146101ea575b600080fd5b34801561014657600080fd5b5061014f61043a565b60405161015c9190611851565b60405180910390f35b34801561017157600080fd5b5061017a6104c8565b005b34801561018857600080fd5b506101b261019736600461166c565b6004602052600090815260409020546001600160a01b031681565b6040516001600160a01b03909116815260200161015c565b3480156101d657600080fd5b506001546101b2906001600160a01b031681565b3480156101f657600080fd5b5061021761020536600461166c565b60086020526000908152604090205481565b60405190815260200161015c565b34801561023157600080fd5b5061017a610240366004611508565b61053d565b34801561025157600080fd5b506101b261026036600461166c565b6000908152600460205260409020546001600160a01b031690565b34801561028757600080fd5b50005b34801561029657600080fd5b506102aa6102a5366004611387565b6105fe565b604051901515815260200161015c565b3480156102c657600080fd5b5061017a6102d5366004611387565b610672565b3480156102e657600080fd5b5061021760025481565b3480156102fc57600080fd5b5061031061030b3660046115c2565b6106ea565b60405161015c929190611836565b61021761032c36600461173b565b610909565b34801561033d57600080fd5b5061017a61034c3660046113c6565b610a11565b34801561035d57600080fd5b5061021760065481565b34801561037357600080fd5b5061017a61038236600461144f565b610c03565b34801561039357600080fd5b5061017a6103a2366004611387565b610cd1565b6102176103b536600461173b565b610d0a565b3480156103c657600080fd5b5061017a6103d53660046114b8565b610dac565b3480156103e657600080fd5b506003546101b2906001600160a01b031681565b34801561040657600080fd5b506000546101b2906001600160a01b031681565b34801561042657600080fd5b506005546101b2906001600160a01b031681565b6007805461044790611959565b80601f016020809104026020016040519081016040528092919081815260200182805461047390611959565b80156104c05780601f10610495576101008083540402835291602001916104c0565b820191906000526020600020905b8154815290600101906020018083116104a357829003601f168201915b505050505081565b6001546001600160a01b031633146104df57600080fd5b60018054600080546001600160a01b0383166001600160a01b031991821681179092559091169091556040519081527f803a94fb89b71a5b6268fe4f2ebd6f3883e006a025caa59244b9db7b150cb16d9060200160405180910390a1565b6000546001600160a01b0316331461055457600080fd5b60005b82518110156105f95781818151811061058057634e487b7160e01b600052603260045260246000fd5b6020026020010151600460008584815181106105ac57634e487b7160e01b600052603260045260246000fd5b6020026020010151815260200190815260200160002060006101000a8154816001600160a01b0302191690836001600160a01b0316021790555080806105f190611994565b915050610557565b505050565b600080546001600160a01b0316331461061657600080fd5b6000826001600160a01b03164760405160006040518083038185875af1925050503d8060008114610663576040519150601f19603f3d011682016040523d82523d6000602084013e610668565b606091505b5090949350505050565b6000546001600160a01b0316331461068957600080fd5b600180546001600160a01b038381166001600160a01b031983168117909355604080519190921680825260208201939093527f0ad836e1614da10ff391cfc802a39f547f3cdc42900fa72de16b085855c169d5910160405180910390a15050565b60006060600360009054906101000a90046001600160a01b03166001600160a01b031663c34c08e56040518163ffffffff1660e01b815260040160206040518083038186803b15801561073c57600080fd5b505afa158015610750573d6000803e3d6000fd5b505050506040513d601f19601f8201168201806040525081019061077491906113aa565b6001600160a01b0316336001600160a01b03161461079157600080fd5b600080600360009054906101000a90046001600160a01b03166001600160a01b031663c34c08e56040518163ffffffff1660e01b815260040160206040518083038186803b1580156107e257600080fd5b505afa1580156107f6573d6000803e3d6000fd5b505050506040513d601f19601f8201168201806040525081019061081a91906113aa565b6001600160a01b031663d0496d6a6040518163ffffffff1660e01b8152600401606060405180830381600087803b15801561085457600080fd5b505af1158015610868573d6000803e3d6000fd5b505050506040513d601f19601f8201168201806040525081019061088c9190611419565b5060008181526004602052604090205491935091506001600160a01b038084169116146108f35760405162461bcd60e51b815260206004820152601060248201526f18d85b1b081b9bdd08185b1b1bddd95960821b60448201526064015b60405180910390fd5b6108fe818787610e51565b505050509250929050565b60008181526008602052604081205434101561092457600080fd5b600080610932338888610e90565b915091508161094057600080fd5b6006805490600061095083611994565b91905055506000878733886006548660405160200161097496959493929190611864565b60408051601f198184030181529181526000878152600460205220549091506109a8906001600160a01b0316823088610fad565b600654604080518a81523360208201526001600160a01b03891681830152606081018890526080810192909252517f9584dfe28ed6ab973c2414e759ff69aeb2d5447efc8c1e575facfc10c8868c469181900360a00190a160065493505050505b949350505050565b600360009054906101000a90046001600160a01b03166001600160a01b031663c34c08e56040518163ffffffff1660e01b815260040160206040518083038186803b158015610a5f57600080fd5b505afa158015610a73573d6000803e3d6000fd5b505050506040513d601f19601f82011682018060405250810190610a9791906113aa565b6001600160a01b0316336001600160a01b031614610ab457600080fd5b6003546040805163c34c08e560e01b815290516000926001600160a01b03169163c34c08e5916004808301926020929190829003018186803b158015610af957600080fd5b505afa158015610b0d573d6000803e3d6000fd5b505050506040513d601f19601f82011682018060405250810190610b3191906113aa565b6001600160a01b031663d0496d6a6040518163ffffffff1660e01b8152600401606060405180830381600087803b158015610b6b57600080fd5b505af1158015610b7f573d6000803e3d6000fd5b505050506040513d601f19601f82011682018060405250810190610ba39190611419565b5090915050306001600160a01b03821614610bf35760405162461bcd60e51b815260206004820152601060248201526f18d85b1b081b9bdd08185b1b1bddd95960821b60448201526064016108ea565b610bfd838361109c565b50505050565b6000546001600160a01b03163314610c1a57600080fd5b60005b83811015610cca57828282818110610c4557634e487b7160e01b600052603260045260246000fd5b9050602002016020810190610c5a9190611387565b60046000878785818110610c7e57634e487b7160e01b600052603260045260246000fd5b90506020020135815260200190815260200160002060006101000a8154816001600160a01b0302191690836001600160a01b031602179055508080610cc290611994565b915050610c1d565b5050505050565b6000546001600160a01b03163314610ce857600080fd5b600380546001600160a01b0319166001600160a01b0392909216919091179055565b600081815260086020526040812054341015610d2557600080fd5b600080610d33338888610e90565b9150915081610d4157600080fd5b60068054906000610d5183611994565b919050555060008787338860065486604051602001610d7596959493929190611864565b60408051601f1981840301815291815260008781526004602052908120549192506109a8916001600160a01b031690839088610fad565b6000546001600160a01b03163314610dc357600080fd5b828114610dcf57600080fd5b60005b83811015610cca57828282818110610dfa57634e487b7160e01b600052603260045260246000fd5b9050602002013560086000878785818110610e2557634e487b7160e01b600052603260045260246000fd5b905060200201358152602001908152602001600020819055508080610e4990611994565b915050610dd2565b6000606081808080610e6587890189611684565b95505094505093509350610e7b848484846110d8565b610e8457600080fd5b50505050935093915050565b600554604051637a94c56560e11b81526001600160a01b038581166004830152602482018590526044820184905260009260609291169063f5298aca90606401600060405180830381600087803b158015610eea57600080fd5b505af1925050508015610efb575060015b610f175750506040805160208101909152600080825290610fa5565b6005546040516303a24d0760e21b8152600481018690526000916001600160a01b031690630e89341c9060240160006040518083038186803b158015610f5c57600080fd5b505afa158015610f70573d6000803e3d6000fd5b505050506040513d6000823e601f3d908101601f19168201604052610f989190810190611602565b600193509150610fa59050565b935093915050565b6002546002141561102b5760035460025460405163bd45c4e760e01b81526001600160a01b039092169163bd45c4e7913491610ff4918991899189918991906004016117c1565b6000604051808303818588803b15801561100d57600080fd5b505af1158015611021573d6000803e3d6000fd5b5050505050610bfd565b60035460025460405163bd45c4e760e01b81526001600160a01b039092169163bd45c4e7916110649188918891889188916004016117c1565b600060405180830381600087803b15801561107e57600080fd5b505af1158015611092573d6000803e3d6000fd5b5050505050505050565b6000808080806110ae86880188611684565b95509550509450945094506110c6858585858561114e565b6110cf57600080fd5b50505050505050565b60055460405163731133e960e01b81526000916001600160a01b03169063731133e99061110f9086908990899088906004016117ff565b600060405180830381600087803b15801561112957600080fd5b505af192505050801561113a575060015b61114657506000610a09565b506001610a09565b60055460405163731133e960e01b81526000916001600160a01b03169063731133e9906111859087908a908a9088906004016117ff565b600060405180830381600087803b15801561119f57600080fd5b505af19250505080156111b0575060015b6111bc575060006111c0565b5060015b6001600160a01b0384163b1561127c57604080518215156024820152604481018890526064810187905260848082018690528251808303909101815260a490910182526020810180516001600160e01b031663e0cce6cb60e01b17905290516001600160a01b038616906112359083906117a5565b6000604051808303816000865af19150503d8060008114611272576040519150601f19603f3d011682016040523d82523d6000602084013e611277565b606091505b505050505b95945050505050565b60008083601f840112611296578182fd5b50813567ffffffffffffffff8111156112ad578182fd5b6020830191508360208260051b85010111156112c857600080fd5b9250929050565b600082601f8301126112df578081fd5b813560206112f46112ef836118e1565b6118b0565b80838252828201915082860187848660051b8901011115611313578586fd5b855b8581101561133a578135611328816119d1565b84529284019290840190600101611315565b5090979650505050505050565b60008083601f840112611358578182fd5b50813567ffffffffffffffff81111561136f578182fd5b6020830191508360208285010111156112c857600080fd5b600060208284031215611398578081fd5b81356113a3816119d1565b9392505050565b6000602082840312156113bb578081fd5b81516113a3816119d1565b6000806000604084860312156113da578182fd5b83356113e5816119d1565b9250602084013567ffffffffffffffff811115611400578283fd5b61140c86828701611347565b9497909650939450505050565b60008060006060848603121561142d578283fd5b8351611438816119d1565b602085015160409095015190969495509392505050565b60008060008060408587031215611464578081fd5b843567ffffffffffffffff8082111561147b578283fd5b61148788838901611285565b9096509450602087013591508082111561149f578283fd5b506114ac87828801611285565b95989497509550505050565b600080600080604085870312156114cd578384fd5b843567ffffffffffffffff808211156114e4578586fd5b6114f088838901611285565b9096509450602087013591508082111561149f578384fd5b6000806040838503121561151a578182fd5b823567ffffffffffffffff80821115611531578384fd5b818501915085601f830112611544578384fd5b813560206115546112ef836118e1565b8083825282820191508286018a848660051b8901011115611573578889fd5b8896505b84871015611595578035835260019690960195918301918301611577565b50965050860135925050808211156115ab578283fd5b506115b8858286016112cf565b9150509250929050565b600080602083850312156115d4578182fd5b823567ffffffffffffffff8111156115ea578283fd5b6115f685828601611347565b90969095509350505050565b600060208284031215611613578081fd5b815167ffffffffffffffff811115611629578182fd5b8201601f81018413611639578182fd5b80516116476112ef82611905565b81815285602083850101111561165b578384fd5b61127c82602083016020860161192d565b60006020828403121561167d578081fd5b5035919050565b60008060008060008060c0878903121561169c578384fd5b863595506020870135945060408701356116b5816119d1565b935060608701356116c5816119d1565b92506080870135915060a087013567ffffffffffffffff8111156116e7578182fd5b8701601f810189136116f7578182fd5b80356117056112ef82611905565b8181528a6020838501011115611719578384fd5b8160208401602083013783602083830101528093505050509295509295509295565b60008060008060808587031215611750578182fd5b84359350602085013592506040850135611769816119d1565b9396929550929360600135925050565b6000815180845261179181602086016020860161192d565b601f01601f19169290920160200192915050565b600082516117b781846020870161192d565b9190910192915050565b600060018060a01b03808816835260a060208401526117e360a0840188611779565b9516604083015250606081019290925260809091015292915050565b60018060a01b038516815283602082015282604082015260806060820152600061182c6080830184611779565b9695505050505050565b8215158152604060208201526000610a096040830184611779565b6020815260006113a36020830184611779565b868152602081018690526001600160a01b038581166040830152841660608201526080810183905260c060a082018190526000906118a490830184611779565b98975050505050505050565b604051601f8201601f1916810167ffffffffffffffff811182821017156118d9576118d96119bb565b604052919050565b600067ffffffffffffffff8211156118fb576118fb6119bb565b5060051b60200190565b600067ffffffffffffffff82111561191f5761191f6119bb565b50601f01601f191660200190565b60005b83811015611948578181015183820152602001611930565b83811115610bfd5750506000910152565b600181811c9082168061196d57607f821691505b6020821081141561198e57634e487b7160e01b600052602260045260246000fd5b50919050565b60006000198214156119b457634e487b7160e01b81526011600452602481fd5b5060010190565b634e487b7160e01b600052604160045260246000fd5b6001600160a01b03811681146119e657600080fd5b5056fea2646970667358221220b0935205f5613f5c8e2324c1d64f2e7eac4020fb855fc0bed787084097d69a8b64736f6c63430008040033",
  "immutableReferences": {},
  "source": "// SPDX-License-Identifier: MIT\r\n\r\n/**\r\nERC1155 gateway for MC-Pegged-Openstore\r\nswapout = burn\r\nswapin = mint\r\n */\r\n\r\npragma solidity ^0.8.0;\r\n\r\nimport \"./ERC1155Gateway.sol\";\r\nimport \"./lib/Address.sol\";\r\n\r\ninterface IMCOpenstore {\r\n    function uri(uint256 _id) external view returns (string memory);\r\n\r\n    function mint(\r\n        address account,\r\n        uint256 tokenId,\r\n        uint256 amount,\r\n        bytes memory data\r\n    ) external;\r\n\r\n    function burn(\r\n        address account,\r\n        uint256 tokenId,\r\n        uint256 amount\r\n    ) external;\r\n}\r\n\r\ncontract ERC1155Gateway_MintBurn is ERC1155Gateway {\r\n    using Address for address;\r\n\r\n    constructor(address anyCallProxy, address token)\r\n        ERC1155Gateway(anyCallProxy, token)\r\n    {}\r\n\r\n    function setupERC721() external {\r\n        // Create ERC721 from template\r\n    }\r\n\r\n    function _swapout(\r\n        address sender,\r\n        uint256 tokenId,\r\n        uint256 amount\r\n    ) internal virtual override returns (bool, bytes memory) {\r\n        // Calc ERC721 collection and tokenId\r\n        // if is NFT\r\n        // - Find ERC721 contract\r\n        // - Burn ERC721\r\n        // else\r\n        try IMCOpenstore(token).burn(sender, tokenId, amount) {\r\n            bytes memory extraMsg = bytes(IMCOpenstore(token).uri(tokenId));\r\n            return (true, extraMsg);\r\n        } catch {\r\n            return (false, \"\");\r\n        }\r\n    }\r\n\r\n    function _swapin(\r\n        uint256 tokenId,\r\n        uint256 amount,\r\n        address receiver,\r\n        bytes memory extraMsg\r\n    ) internal override returns (bool) {\r\n        // Calc ERC721 collection and tokenId\r\n        // if is NFT, mint ERC721\r\n        // - Find ERC721 contract\r\n        // - Mint ERC721\r\n        // else\r\n        try IMCOpenstore(token).mint(receiver, tokenId, amount, extraMsg) {\r\n            return true;\r\n        } catch {\r\n            return false;\r\n        }\r\n    }\r\n\r\n    function _swapoutFallback(\r\n        uint256 tokenId,\r\n        uint256 amount,\r\n        address sender,\r\n        uint256 swapoutSeq,\r\n        bytes memory extraMsg\r\n    ) internal override returns (bool result) {\r\n        try IMCOpenstore(token).mint(sender, tokenId, amount, extraMsg) {\r\n            result = true;\r\n        } catch {\r\n            result = false;\r\n        }\r\n        if (sender.isContract()) {\r\n            bytes memory _data = abi.encodeWithSelector(\r\n                IGatewayClient.notifySwapoutFallback.selector,\r\n                result,\r\n                tokenId,\r\n                amount,\r\n                swapoutSeq\r\n            );\r\n            sender.call(_data);\r\n        }\r\n        return result;\r\n    }\r\n}\r\n",
  "sourcePath": "D:\\anycallapp\\multichain-pegged-openstore\\destchain\\contracts\\MCPeggedOpenstoreGateway.sol",
  "compiler": {
    "name": "solc",
    "version": "0.8.4+commit.c7e474f2.Emscripten.clang"
  },
  "schemaVersion": "3.4.8",
  "updatedAt": "2022-07-12T05:05:27.509Z",
  "devdoc": {
    "kind": "dev",
    "methods": {},
    "version": 1
  },
  "userdoc": {
    "kind": "user",
    "methods": {},
    "version": 1
  }
}