{
  "contractName": "ERC1155Tradable",
  "abi": [
    {
      "inputs": [
        {
          "internalType": "string",
          "name": "_name",
          "type": "string"
        },
        {
          "internalType": "string",
          "name": "_symbol",
          "type": "string"
        },
        {
          "internalType": "address",
          "name": "_proxyRegistryAddress",
          "type": "address"
        }
      ],
      "stateMutability": "nonpayable",
      "type": "constructor"
    },
    {
      "anonymous": false,
      "inputs": [
        {
          "indexed": true,
          "internalType": "address",
          "name": "account",
          "type": "address"
        },
        {
          "indexed": true,
          "internalType": "address",
          "name": "operator",
          "type": "address"
        },
        {
          "indexed": false,
          "internalType": "bool",
          "name": "approved",
          "type": "bool"
        }
      ],
      "name": "ApprovalForAll",
      "type": "event"
    },
    {
      "anonymous": false,
      "inputs": [
        {
          "indexed": false,
          "internalType": "address",
          "name": "userAddress",
          "type": "address"
        },
        {
          "indexed": false,
          "internalType": "address payable",
          "name": "relayerAddress",
          "type": "address"
        },
        {
          "indexed": false,
          "internalType": "bytes",
          "name": "functionSignature",
          "type": "bytes"
        }
      ],
      "name": "MetaTransactionExecuted",
      "type": "event"
    },
    {
      "anonymous": false,
      "inputs": [
        {
          "indexed": true,
          "internalType": "address",
          "name": "previousOwner",
          "type": "address"
        },
        {
          "indexed": true,
          "internalType": "address",
          "name": "newOwner",
          "type": "address"
        }
      ],
      "name": "OwnershipTransferred",
      "type": "event"
    },
    {
      "anonymous": false,
      "inputs": [
        {
          "indexed": false,
          "internalType": "address",
          "name": "account",
          "type": "address"
        }
      ],
      "name": "Paused",
      "type": "event"
    },
    {
      "anonymous": false,
      "inputs": [
        {
          "indexed": true,
          "internalType": "address",
          "name": "operator",
          "type": "address"
        },
        {
          "indexed": true,
          "internalType": "address",
          "name": "from",
          "type": "address"
        },
        {
          "indexed": true,
          "internalType": "address",
          "name": "to",
          "type": "address"
        },
        {
          "indexed": false,
          "internalType": "uint256[]",
          "name": "ids",
          "type": "uint256[]"
        },
        {
          "indexed": false,
          "internalType": "uint256[]",
          "name": "values",
          "type": "uint256[]"
        }
      ],
      "name": "TransferBatch",
      "type": "event"
    },
    {
      "anonymous": false,
      "inputs": [
        {
          "indexed": true,
          "internalType": "address",
          "name": "operator",
          "type": "address"
        },
        {
          "indexed": true,
          "internalType": "address",
          "name": "from",
          "type": "address"
        },
        {
          "indexed": true,
          "internalType": "address",
          "name": "to",
          "type": "address"
        },
        {
          "indexed": false,
          "internalType": "uint256",
          "name": "id",
          "type": "uint256"
        },
        {
          "indexed": false,
          "internalType": "uint256",
          "name": "value",
          "type": "uint256"
        }
      ],
      "name": "TransferSingle",
      "type": "event"
    },
    {
      "anonymous": false,
      "inputs": [
        {
          "indexed": false,
          "internalType": "string",
          "name": "value",
          "type": "string"
        },
        {
          "indexed": true,
          "internalType": "uint256",
          "name": "id",
          "type": "uint256"
        }
      ],
      "name": "URI",
      "type": "event"
    },
    {
      "anonymous": false,
      "inputs": [
        {
          "indexed": false,
          "internalType": "address",
          "name": "account",
          "type": "address"
        }
      ],
      "name": "Unpaused",
      "type": "event"
    },
    {
      "inputs": [],
      "name": "ERC712_VERSION",
      "outputs": [
        {
          "internalType": "string",
          "name": "",
          "type": "string"
        }
      ],
      "stateMutability": "view",
      "type": "function"
    },
    {
      "inputs": [
        {
          "internalType": "address",
          "name": "userAddress",
          "type": "address"
        },
        {
          "internalType": "bytes",
          "name": "functionSignature",
          "type": "bytes"
        },
        {
          "internalType": "bytes32",
          "name": "sigR",
          "type": "bytes32"
        },
        {
          "internalType": "bytes32",
          "name": "sigS",
          "type": "bytes32"
        },
        {
          "internalType": "uint8",
          "name": "sigV",
          "type": "uint8"
        }
      ],
      "name": "executeMetaTransaction",
      "outputs": [
        {
          "internalType": "bytes",
          "name": "",
          "type": "bytes"
        }
      ],
      "stateMutability": "payable",
      "type": "function"
    },
    {
      "inputs": [],
      "name": "getChainId",
      "outputs": [
        {
          "internalType": "uint256",
          "name": "",
          "type": "uint256"
        }
      ],
      "stateMutability": "view",
      "type": "function"
    },
    {
      "inputs": [],
      "name": "getDomainSeperator",
      "outputs": [
        {
          "internalType": "bytes32",
          "name": "",
          "type": "bytes32"
        }
      ],
      "stateMutability": "view",
      "type": "function"
    },
    {
      "inputs": [
        {
          "internalType": "address",
          "name": "user",
          "type": "address"
        }
      ],
      "name": "getNonce",
      "outputs": [
        {
          "internalType": "uint256",
          "name": "nonce",
          "type": "uint256"
        }
      ],
      "stateMutability": "view",
      "type": "function"
    },
    {
      "inputs": [],
      "name": "name",
      "outputs": [
        {
          "internalType": "string",
          "name": "",
          "type": "string"
        }
      ],
      "stateMutability": "view",
      "type": "function"
    },
    {
      "inputs": [],
      "name": "owner",
      "outputs": [
        {
          "internalType": "address",
          "name": "",
          "type": "address"
        }
      ],
      "stateMutability": "view",
      "type": "function"
    },
    {
      "inputs": [],
      "name": "paused",
      "outputs": [
        {
          "internalType": "bool",
          "name": "",
          "type": "bool"
        }
      ],
      "stateMutability": "view",
      "type": "function"
    },
    {
      "inputs": [],
      "name": "proxyRegistryAddress",
      "outputs": [
        {
          "internalType": "address",
          "name": "",
          "type": "address"
        }
      ],
      "stateMutability": "view",
      "type": "function"
    },
    {
      "inputs": [],
      "name": "renounceOwnership",
      "outputs": [],
      "stateMutability": "nonpayable",
      "type": "function"
    },
    {
      "inputs": [
        {
          "internalType": "address",
          "name": "operator",
          "type": "address"
        },
        {
          "internalType": "bool",
          "name": "approved",
          "type": "bool"
        }
      ],
      "name": "setApprovalForAll",
      "outputs": [],
      "stateMutability": "nonpayable",
      "type": "function"
    },
    {
      "inputs": [
        {
          "internalType": "bytes4",
          "name": "interfaceId",
          "type": "bytes4"
        }
      ],
      "name": "supportsInterface",
      "outputs": [
        {
          "internalType": "bool",
          "name": "",
          "type": "bool"
        }
      ],
      "stateMutability": "view",
      "type": "function"
    },
    {
      "inputs": [],
      "name": "symbol",
      "outputs": [
        {
          "internalType": "string",
          "name": "",
          "type": "string"
        }
      ],
      "stateMutability": "view",
      "type": "function"
    },
    {
      "inputs": [
        {
          "internalType": "address",
          "name": "newOwner",
          "type": "address"
        }
      ],
      "name": "transferOwnership",
      "outputs": [],
      "stateMutability": "nonpayable",
      "type": "function"
    },
    {
      "inputs": [
        {
          "internalType": "uint256",
          "name": "",
          "type": "uint256"
        }
      ],
      "name": "uri",
      "outputs": [
        {
          "internalType": "string",
          "name": "",
          "type": "string"
        }
      ],
      "stateMutability": "view",
      "type": "function"
    },
    {
      "inputs": [],
      "name": "pause",
      "outputs": [],
      "stateMutability": "nonpayable",
      "type": "function"
    },
    {
      "inputs": [],
      "name": "unpause",
      "outputs": [],
      "stateMutability": "nonpayable",
      "type": "function"
    },
    {
      "inputs": [
        {
          "internalType": "address",
          "name": "account",
          "type": "address"
        },
        {
          "internalType": "uint256",
          "name": "id",
          "type": "uint256"
        }
      ],
      "name": "balanceOf",
      "outputs": [
        {
          "internalType": "uint256",
          "name": "",
          "type": "uint256"
        }
      ],
      "stateMutability": "view",
      "type": "function"
    },
    {
      "inputs": [
        {
          "internalType": "address[]",
          "name": "accounts",
          "type": "address[]"
        },
        {
          "internalType": "uint256[]",
          "name": "ids",
          "type": "uint256[]"
        }
      ],
      "name": "balanceOfBatch",
      "outputs": [
        {
          "internalType": "uint256[]",
          "name": "",
          "type": "uint256[]"
        }
      ],
      "stateMutability": "view",
      "type": "function"
    },
    {
      "inputs": [
        {
          "internalType": "uint256",
          "name": "_id",
          "type": "uint256"
        }
      ],
      "name": "totalSupply",
      "outputs": [
        {
          "internalType": "uint256",
          "name": "",
          "type": "uint256"
        }
      ],
      "stateMutability": "view",
      "type": "function"
    },
    {
      "inputs": [
        {
          "internalType": "address",
          "name": "_owner",
          "type": "address"
        },
        {
          "internalType": "address",
          "name": "_operator",
          "type": "address"
        }
      ],
      "name": "isApprovedForAll",
      "outputs": [
        {
          "internalType": "bool",
          "name": "isOperator",
          "type": "bool"
        }
      ],
      "stateMutability": "view",
      "type": "function"
    },
    {
      "inputs": [
        {
          "internalType": "address",
          "name": "from",
          "type": "address"
        },
        {
          "internalType": "address",
          "name": "to",
          "type": "address"
        },
        {
          "internalType": "uint256",
          "name": "id",
          "type": "uint256"
        },
        {
          "internalType": "uint256",
          "name": "amount",
          "type": "uint256"
        },
        {
          "internalType": "bytes",
          "name": "data",
          "type": "bytes"
        }
      ],
      "name": "safeTransferFrom",
      "outputs": [],
      "stateMutability": "nonpayable",
      "type": "function"
    },
    {
      "inputs": [
        {
          "internalType": "address",
          "name": "from",
          "type": "address"
        },
        {
          "internalType": "address",
          "name": "to",
          "type": "address"
        },
        {
          "internalType": "uint256[]",
          "name": "ids",
          "type": "uint256[]"
        },
        {
          "internalType": "uint256[]",
          "name": "amounts",
          "type": "uint256[]"
        },
        {
          "internalType": "bytes",
          "name": "data",
          "type": "bytes"
        }
      ],
      "name": "safeBatchTransferFrom",
      "outputs": [],
      "stateMutability": "nonpayable",
      "type": "function"
    },
    {
      "inputs": [
        {
          "internalType": "address",
          "name": "_to",
          "type": "address"
        },
        {
          "internalType": "uint256",
          "name": "_id",
          "type": "uint256"
        },
        {
          "internalType": "uint256",
          "name": "_quantity",
          "type": "uint256"
        },
        {
          "internalType": "bytes",
          "name": "_data",
          "type": "bytes"
        }
      ],
      "name": "mint",
      "outputs": [],
      "stateMutability": "nonpayable",
      "type": "function"
    },
    {
      "inputs": [
        {
          "internalType": "address",
          "name": "_to",
          "type": "address"
        },
        {
          "internalType": "uint256[]",
          "name": "_ids",
          "type": "uint256[]"
        },
        {
          "internalType": "uint256[]",
          "name": "_quantities",
          "type": "uint256[]"
        },
        {
          "internalType": "bytes",
          "name": "_data",
          "type": "bytes"
        }
      ],
      "name": "batchMint",
      "outputs": [],
      "stateMutability": "nonpayable",
      "type": "function"
    },
    {
      "inputs": [
        {
          "internalType": "address",
          "name": "_from",
          "type": "address"
        },
        {
          "internalType": "uint256",
          "name": "_id",
          "type": "uint256"
        },
        {
          "internalType": "uint256",
          "name": "_quantity",
          "type": "uint256"
        }
      ],
      "name": "burn",
      "outputs": [],
      "stateMutability": "nonpayable",
      "type": "function"
    },
    {
      "inputs": [
        {
          "internalType": "address",
          "name": "_from",
          "type": "address"
        },
        {
          "internalType": "uint256[]",
          "name": "_ids",
          "type": "uint256[]"
        },
        {
          "internalType": "uint256[]",
          "name": "_quantities",
          "type": "uint256[]"
        }
      ],
      "name": "batchBurn",
      "outputs": [],
      "stateMutability": "nonpayable",
      "type": "function"
    },
    {
      "inputs": [
        {
          "internalType": "uint256",
          "name": "_id",
          "type": "uint256"
        }
      ],
      "name": "exists",
      "outputs": [
        {
          "internalType": "bool",
          "name": "",
          "type": "bool"
        }
      ],
      "stateMutability": "view",
      "type": "function"
    }
  ],
  "bytecode": "0x60806040526003805460ff191690553480156200001b57600080fd5b5060405162003488380380620034888339810160408190526200003e91620004af565b60408051602081019091526000815262000058816200016a565b506200006d6200006762000183565b6200019f565b6006805460ff60a01b1916905582516200008f90600890602086019062000356565b508151620000a590600990602085019062000356565b50600780546001600160a01b0319166001600160a01b03831617905560088054620001619190620000d69062000538565b80601f0160208091040260200160405190810160405280929190818152602001828054620001049062000538565b8015620001555780601f10620001295761010080835404028352916020019162000155565b820191906000526020600020905b8154815290600101906020018083116200013757829003601f168201915b5050620001f192505050565b5050506200058b565b80516200017f90600290602084019062000356565b5050565b60006200019a6200025560201b6200134d1760201c565b905090565b600680546001600160a01b038381166001600160a01b0319831681179093556040519116919082907f8be0079c531659141344cd1fd0a4f28419497f9722a3daafe3b4186f6b6457e090600090a35050565b60035460ff16156200023a5760405162461bcd60e51b815260206004820152600e60248201526d185b1c9958591e481a5b9a5d195960921b604482015260640160405180910390fd5b6200024581620002b4565b506003805460ff19166001179055565b600033301415620002ae57600080368080601f0160208091040260200160405190810160405280939291908181526020018383808284376000920191909152505050503601516001600160a01b03169150620002b19050565b50335b90565b6040518060800160405280604f815260200162003439604f9139805160209182012082519282019290922060408051808201825260018152603160f81b90840152805180840194909452838101919091527fc89efdaa54c0f20c7adf612882df0950f5a951637e0307cdcb4c672f298b8bc660608401523060808401524660a0808501919091528151808503909101815260c090930190528151910120600455565b828054620003649062000538565b90600052602060002090601f016020900481019282620003885760008555620003d3565b82601f10620003a357805160ff1916838001178555620003d3565b82800160010185558215620003d3579182015b82811115620003d3578251825591602001919060010190620003b6565b50620003e1929150620003e5565b5090565b5b80821115620003e15760008155600101620003e6565b600082601f8301126200040d578081fd5b81516001600160401b03808211156200042a576200042a62000575565b604051601f8301601f19908116603f0116810190828211818310171562000455576200045562000575565b8160405283815260209250868385880101111562000471578485fd5b8491505b8382101562000494578582018301518183018401529082019062000475565b83821115620004a557848385830101525b9695505050505050565b600080600060608486031215620004c4578283fd5b83516001600160401b0380821115620004db578485fd5b620004e987838801620003fc565b94506020860151915080821115620004ff578384fd5b506200050e86828701620003fc565b604086015190935090506001600160a01b03811681146200052d578182fd5b809150509250925092565b600181811c908216806200054d57607f821691505b602082108114156200056f57634e487b7160e01b600052602260045260246000fd5b50919050565b634e487b7160e01b600052604160045260246000fd5b612e9e806200059b6000396000f3fe6080604052600436106101b65760003560e01c8063715018a6116100ec578063bd85b0391161008a578063f242432a11610064578063f242432a146104ee578063f2fde38b1461050e578063f5298aca1461052e578063f6eb127a1461054e57600080fd5b8063bd85b03914610481578063cd7c0326146104ae578063e985e9c5146104ce57600080fd5b80638da5cb5b116100c65780638da5cb5b146103fa57806395d89b411461042c578063a22cb46514610441578063b48ab8b61461046157600080fd5b8063715018a6146103b0578063731133e9146103c55780638456cb59146103e557600080fd5b80632d0335ab116101595780633f4ba83a116101335780633f4ba83a146103205780634e1273f4146103355780634f558e79146103625780635c975abb1461039157600080fd5b80632d0335ab146102b55780632eb2c2d6146102eb5780633408e4701461030d57600080fd5b80630c53c51c116101955780630c53c51c146102405780630e89341c146102535780630f7e59701461027357806320379ee5146102a057600080fd5b8062fdd58e146101bb57806301ffc9a7146101ee57806306fdde031461021e575b600080fd5b3480156101c757600080fd5b506101db6101d636600461268b565b61056e565b6040519081526020015b60405180910390f35b3480156101fa57600080fd5b5061020e61020936600461280c565b61060a565b60405190151581526020016101e5565b34801561022a57600080fd5b5061023361065a565b6040516101e59190612a35565b61023361024e366004612610565b6106e8565b34801561025f57600080fd5b5061023361026e366004612860565b6108c0565b34801561027f57600080fd5b50610233604051806040016040528060018152602001603160f81b81525081565b3480156102ac57600080fd5b506004546101db565b3480156102c157600080fd5b506101db6102d0366004612370565b6001600160a01b031660009081526005602052604090205490565b3480156102f757600080fd5b5061030b6103063660046123c4565b610954565b005b34801561031957600080fd5b50466101db565b34801561032c57600080fd5b5061030b610bdb565b34801561034157600080fd5b5061035561035036600461273f565b610c11565b6040516101e591906129fd565b34801561036e57600080fd5b5061020e61037d366004612860565b6000908152600b6020526040902054151590565b34801561039d57600080fd5b50600654600160a01b900460ff1661020e565b3480156103bc57600080fd5b5061030b610d73565b3480156103d157600080fd5b5061030b6103e03660046126ea565b610df6565b3480156103f157600080fd5b5061030b610e2f565b34801561040657600080fd5b506006546001600160a01b03165b6040516001600160a01b0390911681526020016101e5565b34801561043857600080fd5b50610233610e5e565b34801561044d57600080fd5b5061030b61045c3660046125df565b610e6b565b34801561046d57600080fd5b5061030b61047c366004612548565b610f7f565b34801561048d57600080fd5b506101db61049c366004612860565b6000908152600b602052604090205490565b3480156104ba57600080fd5b50600754610414906001600160a01b031681565b3480156104da57600080fd5b5061020e6104e936600461238c565b610fb2565b3480156104fa57600080fd5b5061030b61050936600461246e565b610ffc565b34801561051a57600080fd5b5061030b610529366004612370565b6111b7565b34801561053a57600080fd5b5061030b6105493660046126b6565b6112a1565b34801561055a57600080fd5b5061030b6105693660046124d5565b6112f7565b60006001600160a01b0383166105df5760405162461bcd60e51b815260206004820152602b60248201527f455243313135353a2062616c616e636520717565727920666f7220746865207a60448201526a65726f206164647265737360a81b60648201526084015b60405180910390fd5b506000818152600a602090815260408083206001600160a01b03861684529091529020545b92915050565b60006001600160e01b03198216636cdb3d1360e11b148061063b57506001600160e01b031982166303a24d0760e21b145b8061060457506301ffc9a760e01b6001600160e01b0319831614610604565b6008805461066790612caa565b80601f016020809104026020016040519081016040528092919081815260200182805461069390612caa565b80156106e05780601f106106b5576101008083540402835291602001916106e0565b820191906000526020600020905b8154815290600101906020018083116106c357829003601f168201915b505050505081565b60408051606081810183526001600160a01b0388166000818152600560209081529085902054845283015291810186905261072687828787876113aa565b61077c5760405162461bcd60e51b815260206004820152602160248201527f5369676e657220616e64207369676e617475726520646f206e6f74206d6174636044820152600d60fb1b60648201526084016105d6565b6001600160a01b03871660009081526005602052604081208054600192906107a5908490612c4f565b90915550506040517f5845892132946850460bff5a0083f71031bc5bf9aadcd40f1de79423eac9b10b906107de90899033908a90612931565b60405180910390a1600080306001600160a01b0316888a6040516020016108069291906128fa565b60408051601f1981840301815290829052610820916128de565b6000604051808303816000865af19150503d806000811461085d576040519150601f19603f3d011682016040523d82523d6000602084013e610862565b606091505b5091509150816108b45760405162461bcd60e51b815260206004820152601c60248201527f46756e6374696f6e2063616c6c206e6f74207375636365737366756c0000000060448201526064016105d6565b98975050505050505050565b6060600280546108cf90612caa565b80601f01602080910402602001604051908101604052809291908181526020018280546108fb90612caa565b80156109485780601f1061091d57610100808354040283529160200191610948565b820191906000526020600020905b81548152906001019060200180831161092b57829003601f168201915b50505050509050919050565b600654600160a01b900460ff161561097e5760405162461bcd60e51b81526004016105d690612b72565b8461098761149a565b6001600160a01b0316816001600160a01b031614806109ad57506109ad816104e961149a565b6109c95760405162461bcd60e51b81526004016105d690612ad4565b82518451146109ea5760405162461bcd60e51b81526004016105d690612a90565b6001600160a01b038516610a105760405162461bcd60e51b81526004016105d690612b9c565b6000610a1a61149a565b905060005b8551811015610b6c576000868281518110610a4a57634e487b7160e01b600052603260045260246000fd5b602002602001015190506000868381518110610a7657634e487b7160e01b600052603260045260246000fd5b6020908102919091018101516000848152600a835260408082206001600160a01b038f168352909352919091205490915081811015610ac75760405162461bcd60e51b81526004016105d690612be1565b610ad18282612c67565b600a600085815260200190815260200160002060008d6001600160a01b03166001600160a01b031681526020019081526020016000208190555081600a600085815260200190815260200160002060008c6001600160a01b03166001600160a01b031681526020019081526020016000206000828254610b519190612c4f565b9250508190555050505080610b6590612d12565b9050610a1f565b50856001600160a01b0316876001600160a01b0316826001600160a01b03167f4a39dc06d4c0dbc64b70af90fd698a233a518aa5d07e595d983b8c0526c8f7fb8888604051610bbc929190612a10565b60405180910390a4610bd28188888888886114b1565b50505050505050565b610beb610be661149a565b61161c565b610c075760405162461bcd60e51b81526004016105d690612b24565b610c0f611665565b565b60608151835114610c765760405162461bcd60e51b815260206004820152602960248201527f455243313135353a206163636f756e747320616e6420696473206c656e677468604482015268040dad2e6dac2e8c6d60bb1b60648201526084016105d6565b6000835167ffffffffffffffff811115610ca057634e487b7160e01b600052604160045260246000fd5b604051908082528060200260200182016040528015610cc9578160200160208202803683370190505b50905060005b8451811015610d6b57610d30858281518110610cfb57634e487b7160e01b600052603260045260246000fd5b6020026020010151858381518110610d2357634e487b7160e01b600052603260045260246000fd5b602002602001015161056e565b828281518110610d5057634e487b7160e01b600052603260045260246000fd5b6020908102919091010152610d6481612d12565b9050610ccf565b509392505050565b610d7b61149a565b6001600160a01b0316610d966006546001600160a01b031690565b6001600160a01b031614610dec5760405162461bcd60e51b815260206004820181905260248201527f4f776e61626c653a2063616c6c6572206973206e6f7420746865206f776e657260448201526064016105d6565b610c0f6000611708565b610e01610be661149a565b610e1d5760405162461bcd60e51b81526004016105d690612b24565b610e298484848461175a565b50505050565b610e3a610be661149a565b610e565760405162461bcd60e51b81526004016105d690612b24565b610c0f61185f565b6009805461066790612caa565b816001600160a01b0316610e7d61149a565b6001600160a01b03161415610ee65760405162461bcd60e51b815260206004820152602960248201527f455243313135353a2073657474696e6720617070726f76616c20737461747573604482015268103337b91039b2b63360b91b60648201526084016105d6565b8060016000610ef361149a565b6001600160a01b03908116825260208083019390935260409182016000908120918716808252919093529120805460ff191692151592909217909155610f3761149a565b6001600160a01b03167f17307eab39ab6107e8899845ad3d59bd9653f200f220920489ca2b5937696c3183604051610f73911515815260200190565b60405180910390a35050565b610f8a610be661149a565b610fa65760405162461bcd60e51b81526004016105d690612b24565b610e29848484846118c5565b6000610fbe8383611b55565b15610fcb57506001610604565b6001600160a01b0380841660009081526001602090815260408083209386168352929052205460ff165b9392505050565b600654600160a01b900460ff16156110265760405162461bcd60e51b81526004016105d690612b72565b8461102f61149a565b6001600160a01b0316816001600160a01b031614806110555750611055816104e961149a565b6110715760405162461bcd60e51b81526004016105d690612ad4565b6001600160a01b0385166110975760405162461bcd60e51b81526004016105d690612b9c565b60006110a161149a565b90506110c28188886110b289611c05565b6110bb89611c05565b5050505050565b6000858152600a602090815260408083206001600160a01b038b168452909152902054848110156111055760405162461bcd60e51b81526004016105d690612be1565b61110f8582612c67565b6000878152600a602090815260408083206001600160a01b038d8116855292528083209390935589168152908120805487929061114d908490612c4f565b909155505060408051878152602081018790526001600160a01b03808a16928b821692918616917fc3d58168c5ae7397731d063d5bbf3d657854427343f4c083240f7aacaa2d0f62910160405180910390a46111ad828989898989611c5e565b5050505050505050565b6111bf61149a565b6001600160a01b03166111da6006546001600160a01b031690565b6001600160a01b0316146112305760405162461bcd60e51b815260206004820181905260248201527f4f776e61626c653a2063616c6c6572206973206e6f7420746865206f776e657260448201526064016105d6565b6001600160a01b0381166112955760405162461bcd60e51b815260206004820152602660248201527f4f776e61626c653a206e6577206f776e657220697320746865207a65726f206160448201526564647265737360d01b60648201526084016105d6565b61129e81611708565b50565b826112aa61149a565b6001600160a01b0316816001600160a01b031614806112d057506112d0816104e961149a565b6112ec5760405162461bcd60e51b81526004016105d690612ad4565b610e29848484611d28565b8261130061149a565b6001600160a01b0316816001600160a01b031614806113265750611326816104e961149a565b6113425760405162461bcd60e51b81526004016105d690612ad4565b610e29848484611f70565b6000333014156113a457600080368080601f0160208091040260200160405190810160405280939291908181526020018383808284376000920191909152505050503601516001600160a01b031691506113a79050565b50335b90565b60006001600160a01b0386166114105760405162461bcd60e51b815260206004820152602560248201527f4e61746976654d6574615472616e73616374696f6e3a20494e56414c49445f5360448201526424a3a722a960d91b60648201526084016105d6565b600161142361141e876121e0565b61225d565b6040805160008152602081018083529290925260ff851690820152606081018690526080810185905260a0016020604051602081039080840390855afa158015611471573d6000803e3d6000fd5b505050602060405103516001600160a01b0316866001600160a01b031614905095945050505050565b60006114a461134d565b905090565b505050505050565b6001600160a01b0384163b156114a95760405163bc197c8160e01b81526001600160a01b0385169063bc197c81906114f59089908990889088908890600401612966565b602060405180830381600087803b15801561150f57600080fd5b505af192505050801561153f575060408051601f3d908101601f1916820190925261153c91810190612828565b60015b6115ec5761154b612d59565b806308c379a014156115855750611560612d70565b8061156b5750611587565b8060405162461bcd60e51b81526004016105d69190612a35565b505b60405162461bcd60e51b815260206004820152603460248201527f455243313135353a207472616e7366657220746f206e6f6e20455243313135356044820152732932b1b2b4bb32b91034b6b83632b6b2b73a32b960611b60648201526084016105d6565b6001600160e01b0319811663bc197c8160e01b14610bd25760405162461bcd60e51b81526004016105d690612a48565b6000816001600160a01b031661163a6006546001600160a01b031690565b6001600160a01b03161480610604575061060461165f6006546001600160a01b031690565b83611b55565b600654600160a01b900460ff166116b55760405162461bcd60e51b815260206004820152601460248201527314185d5cd8589b194e881b9bdd081c185d5cd95960621b60448201526064016105d6565b6006805460ff60a01b191690557f5db9ee0a495bf2e6ff9c91a7834c1ba4fdd244a5e8aa4e537bd38aeae4b073aa6116eb61149a565b6040516001600160a01b03909116815260200160405180910390a1565b600680546001600160a01b038381166001600160a01b0319831681179093556040519116919082907f8be0079c531659141344cd1fd0a4f28419497f9722a3daafe3b4186f6b6457e090600090a35050565b600654600160a01b900460ff16156117845760405162461bcd60e51b81526004016105d690612b72565b600061178e61149a565b90506117a9816000876117a088611c05565b6110bb88611c05565b6000848152600a602090815260408083206001600160a01b0389168452909152812080548592906117db908490612c4f565b90915550506000848152600b6020526040812080548592906117fe908490612c4f565b909155505060408051858152602081018590526000916001600160a01b03808916928492918616917fc3d58168c5ae7397731d063d5bbf3d657854427343f4c083240f7aacaa2d0f62910160405180910390a46114a9828288888888611c5e565b600654600160a01b900460ff16156118895760405162461bcd60e51b81526004016105d690612b72565b6006805460ff60a01b1916600160a01b1790557f62e78cea01bee320cd4e420270b5ea74000d11b0c9f74754ebdbfc544b05a2586116eb61149a565b600654600160a01b900460ff16156118ef5760405162461bcd60e51b81526004016105d690612b72565b81518351146119595760405162461bcd60e51b815260206004820152603060248201527f455243313135355472616461626c652362617463684d696e743a20494e56414c60448201526f09288be82a4a482b2a6be988a9c8ea8960831b60648201526084016105d6565b8251600061198585828461197d57634e487b7160e01b600052603260045260246000fd5b506000919050565b9050600061199161149a565b905060005b83811015611aef5760008782815181106119c057634e487b7160e01b600052603260045260246000fd5b6020026020010151905060008783815181106119ec57634e487b7160e01b600052603260045260246000fd5b602002602001015190506001600160a01b03851660006001600160a01b031614611a7e5760405162461bcd60e51b815260206004820152603760248201527f455243313135355472616461626c652362617463684d696e743a204d554c544960448201527f504c455f4f524947494e535f4e4f545f414c4c4f57454400000000000000000060648201526084016105d6565b6000828152600a602090815260408083206001600160a01b038e16845290915281208054839290611ab0908490612c4f565b90915550506000828152600b602052604081208054839290611ad3908490612c4f565b9250508190555050508080611ae790612d12565b915050611996565b50866001600160a01b0316826001600160a01b0316826001600160a01b03167f4a39dc06d4c0dbc64b70af90fd698a233a518aa5d07e595d983b8c0526c8f7fb8989604051611b3f929190612a10565b60405180910390a4610bd28183898989896114b1565b6007546000906001600160a01b03163b611b7157506000610604565b60075460405163c455279160e01b81526001600160a01b03858116600483015291821691841690829063c45527919060240160206040518083038186803b158015611bbb57600080fd5b505afa158015611bcf573d6000803e3d6000fd5b505050506040513d601f19601f82011682018060405250810190611bf39190612844565b6001600160a01b031614949350505050565b60408051600180825281830190925260609160009190602080830190803683370190505090508281600081518110611c4d57634e487b7160e01b600052603260045260246000fd5b602090810291909101015292915050565b6001600160a01b0384163b156114a95760405163f23a6e6160e01b81526001600160a01b0385169063f23a6e6190611ca290899089908890889088906004016129b8565b602060405180830381600087803b158015611cbc57600080fd5b505af1925050508015611cec575060408051601f3d908101601f19168201909252611ce991810190612828565b60015b611cf85761154b612d59565b6001600160e01b0319811663f23a6e6160e01b14610bd25760405162461bcd60e51b81526004016105d690612a48565b600654600160a01b900460ff1615611d525760405162461bcd60e51b81526004016105d690612b72565b6001600160a01b038316611db65760405162461bcd60e51b815260206004820152602560248201527f45524331313535235f6275726e3a204255524e5f46524f4d5f5a45524f5f4144604482015264445245535360d81b60648201526084016105d6565b60008111611e125760405162461bcd60e51b815260206004820152602360248201527f45524331313535235f6275726e3a20414d4f554e545f4c4553535f5448414e5f6044820152624f4e4560e81b60648201526084016105d6565b6000611e1c61149a565b9050611e4d81856000611e2e87611c05565b611e3787611c05565b5050604080516020810190915260009052505050565b6000838152600a602090815260408083206001600160a01b038816845290915290205482811015611ece5760405162461bcd60e51b815260206004820152602560248201527f45524331313535235f6275726e3a20414d4f554e545f455843454544535f42416044820152644c414e434560d81b60648201526084016105d6565b611ed88382612c67565b6000858152600a602090815260408083206001600160a01b038a168452825280832093909355868252600b90529081208054859290611f18908490612c67565b909155505060408051858152602081018590526000916001600160a01b0388811692908616917fc3d58168c5ae7397731d063d5bbf3d657854427343f4c083240f7aacaa2d0f62910160405180910390a45050505050565b600654600160a01b900460ff1615611f9a5760405162461bcd60e51b81526004016105d690612b72565b6001600160a01b038316611ff05760405162461bcd60e51b815260206004820152601f60248201527f455243313135353a204255524e5f46524f4d5f5a45524f5f414444524553530060448201526064016105d6565b80518251146120115760405162461bcd60e51b81526004016105d690612a90565b600061201b61149a565b604080516020810190915260009052905060005b835181101561218157600084828151811061205a57634e487b7160e01b600052603260045260246000fd5b60200260200101519050600084838151811061208657634e487b7160e01b600052603260045260246000fd5b6020908102919091018101516000848152600a835260408082206001600160a01b038c16835290935291909120549091508181101561211a5760405162461bcd60e51b815260206004820152602a60248201527f45524331313535235f6275726e42617463683a20414d4f554e545f455843454560448201526944535f42414c414e434560b01b60648201526084016105d6565b6121248282612c67565b6000848152600a602090815260408083206001600160a01b038d168452825280832093909355858252600b90529081208054849290612164908490612c67565b92505081905550505050808061217990612d12565b91505061202f565b5060006001600160a01b0316846001600160a01b0316826001600160a01b03167f4a39dc06d4c0dbc64b70af90fd698a233a518aa5d07e595d983b8c0526c8f7fb86866040516121d2929190612a10565b60405180910390a450505050565b6000604051806080016040528060438152602001612e266043913980516020918201208351848301516040808701518051908601209051612240950193845260208401929092526001600160a01b03166040830152606082015260800190565b604051602081830303815290604052805190602001209050919050565b600061226860045490565b60405161190160f01b6020820152602281019190915260428101839052606201612240565b600082601f83011261229d578081fd5b813560206122aa82612c2b565b6040516122b78282612ce5565b8381528281019150858301600585901b870184018810156122d6578586fd5b855b858110156122f4578135845292840192908401906001016122d8565b5090979650505050505050565b600082601f830112612311578081fd5b813567ffffffffffffffff81111561232b5761232b612d43565b604051612342601f8301601f191660200182612ce5565b818152846020838601011115612356578283fd5b816020850160208301379081016020019190915292915050565b600060208284031215612381578081fd5b8135610ff581612dfa565b6000806040838503121561239e578081fd5b82356123a981612dfa565b915060208301356123b981612dfa565b809150509250929050565b600080600080600060a086880312156123db578081fd5b85356123e681612dfa565b945060208601356123f681612dfa565b9350604086013567ffffffffffffffff80821115612412578283fd5b61241e89838a0161228d565b94506060880135915080821115612433578283fd5b61243f89838a0161228d565b93506080880135915080821115612454578283fd5b5061246188828901612301565b9150509295509295909350565b600080600080600060a08688031215612485578081fd5b853561249081612dfa565b945060208601356124a081612dfa565b93506040860135925060608601359150608086013567ffffffffffffffff8111156124c9578182fd5b61246188828901612301565b6000806000606084860312156124e9578283fd5b83356124f481612dfa565b9250602084013567ffffffffffffffff80821115612510578384fd5b61251c8783880161228d565b93506040860135915080821115612531578283fd5b5061253e8682870161228d565b9150509250925092565b6000806000806080858703121561255d578384fd5b843561256881612dfa565b9350602085013567ffffffffffffffff80821115612584578485fd5b6125908883890161228d565b945060408701359150808211156125a5578384fd5b6125b18883890161228d565b935060608701359150808211156125c6578283fd5b506125d387828801612301565b91505092959194509250565b600080604083850312156125f1578182fd5b82356125fc81612dfa565b9150602083013580151581146123b9578182fd5b600080600080600060a08688031215612627578283fd5b853561263281612dfa565b9450602086013567ffffffffffffffff81111561264d578384fd5b61265988828901612301565b9450506040860135925060608601359150608086013560ff8116811461267d578182fd5b809150509295509295909350565b6000806040838503121561269d578182fd5b82356126a881612dfa565b946020939093013593505050565b6000806000606084860312156126ca578081fd5b83356126d581612dfa565b95602085013595506040909401359392505050565b600080600080608085870312156126ff578182fd5b843561270a81612dfa565b93506020850135925060408501359150606085013567ffffffffffffffff811115612733578182fd5b6125d387828801612301565b60008060408385031215612751578182fd5b823567ffffffffffffffff80821115612768578384fd5b818501915085601f83011261277b578384fd5b8135602061278882612c2b565b6040516127958282612ce5565b8381528281019150858301600585901b870184018b10156127b4578889fd5b8896505b848710156127df5780356127cb81612dfa565b8352600196909601959183019183016127b8565b50965050860135925050808211156127f5578283fd5b506128028582860161228d565b9150509250929050565b60006020828403121561281d578081fd5b8135610ff581612e0f565b600060208284031215612839578081fd5b8151610ff581612e0f565b600060208284031215612855578081fd5b8151610ff581612dfa565b600060208284031215612871578081fd5b5035919050565b6000815180845260208085019450808401835b838110156128a75781518752958201959082019060010161288b565b509495945050505050565b600081518084526128ca816020860160208601612c7e565b601f01601f19169290920160200192915050565b600082516128f0818460208701612c7e565b9190910192915050565b6000835161290c818460208801612c7e565b60609390931b6bffffffffffffffffffffffff19169190920190815260140192915050565b6001600160a01b0384811682528316602082015260606040820181905260009061295d908301846128b2565b95945050505050565b6001600160a01b0386811682528516602082015260a06040820181905260009061299290830186612878565b82810360608401526129a48186612878565b905082810360808401526108b481856128b2565b6001600160a01b03868116825285166020820152604081018490526060810183905260a0608082018190526000906129f2908301846128b2565b979650505050505050565b602081526000610ff56020830184612878565b604081526000612a236040830185612878565b828103602084015261295d8185612878565b602081526000610ff560208301846128b2565b60208082526028908201527f455243313135353a204552433131353552656365697665722072656a656374656040820152676420746f6b656e7360c01b606082015260800190565b60208082526024908201527f455243313135353a204944535f414d4f554e54535f4c454e4754485f4d49534d604082015263082a886960e31b606082015260800190565b60208082526030908201527f455243313135355472616461626c65236f6e6c79417070726f7665643a20434160408201526f1313115497d393d517d0531313d5d15160821b606082015260800190565b6020808252602e908201527f455243313135355472616461626c65236f6e6c794f776e65723a2043414c4c4560408201526d292fa4a9afa727aa2fa7aba722a960911b606082015260800190565b60208082526010908201526f14185d5cd8589b194e881c185d5cd95960821b604082015260600190565b60208082526025908201527f455243313135353a207472616e7366657220746f20746865207a65726f206164604082015264647265737360d81b606082015260800190565b6020808252602a908201527f455243313135353a20696e73756666696369656e742062616c616e636520666f60408201526939103a3930b739b332b960b11b606082015260800190565b600067ffffffffffffffff821115612c4557612c45612d43565b5060051b60200190565b60008219821115612c6257612c62612d2d565b500190565b600082821015612c7957612c79612d2d565b500390565b60005b83811015612c99578181015183820152602001612c81565b83811115610e295750506000910152565b600181811c90821680612cbe57607f821691505b60208210811415612cdf57634e487b7160e01b600052602260045260246000fd5b50919050565b601f8201601f1916810167ffffffffffffffff81118282101715612d0b57612d0b612d43565b6040525050565b6000600019821415612d2657612d26612d2d565b5060010190565b634e487b7160e01b600052601160045260246000fd5b634e487b7160e01b600052604160045260246000fd5b600060033d11156113a757600481823e5160e01c90565b600060443d1015612d7e5790565b6040516003193d81016004833e81513d67ffffffffffffffff8160248401118184111715612dae57505050505090565b8285019150815181811115612dc65750505050505090565b843d8701016020828501011115612de05750505050505090565b612def60208286010187612ce5565b509095945050505050565b6001600160a01b038116811461129e57600080fd5b6001600160e01b03198116811461129e57600080fdfe4d6574615472616e73616374696f6e2875696e74323536206e6f6e63652c616464726573732066726f6d2c62797465732066756e6374696f6e5369676e617475726529a2646970667358221220e2b8becd9b128a197fbfa962105f75480e3d13ec81c4a14bce430ef62fe5912d64736f6c63430008040033454950373132446f6d61696e28737472696e67206e616d652c737472696e672076657273696f6e2c6164647265737320766572696679696e67436f6e74726163742c627974657333322073616c7429",
  "immutableReferences": {},
  "source": "// File: contracts/ERC1155Tradable.sol\r\n\r\npragma solidity 0.8.4;\r\n\r\nimport \"./Address.sol\";\r\nimport \"./Ownable.sol\";\r\nimport \"./ERC1155.sol\";\r\nimport \"./ContextMixin.sol\";\r\nimport \"./Pausable.sol\";\r\nimport \"./MetaTransaction.sol\";\r\n\r\ncontract OwnableDelegateProxy {}\r\n\r\ncontract ProxyRegistry {\r\n    mapping(address => OwnableDelegateProxy) public proxies;\r\n}\r\n\r\n/**\r\n * @title ERC1155Tradable\r\n * ERC1155Tradable - ERC1155 contract that whitelists an operator address, has create and mint functionality, and supports useful standards from OpenZeppelin,\r\n  like exists(), name(), symbol(), and totalSupply()\r\n */\r\ncontract ERC1155Tradable is\r\n    ContextMixin,\r\n    ERC1155,\r\n    NativeMetaTransaction,\r\n    Ownable,\r\n    Pausable\r\n{\r\n    using Address for address;\r\n\r\n    // Proxy registry address\r\n    address public proxyRegistryAddress;\r\n    // Contract name\r\n    string public name;\r\n    // Contract symbol\r\n    string public symbol;\r\n\r\n    // Mapping from token ID to account balances\r\n    mapping(uint256 => mapping(address => uint256)) private balances;\r\n\r\n    mapping(uint256 => uint256) private _supply;\r\n\r\n    constructor(\r\n        string memory _name,\r\n        string memory _symbol,\r\n        address _proxyRegistryAddress\r\n    ) ERC1155(\"\") {\r\n        name = _name;\r\n        symbol = _symbol;\r\n        proxyRegistryAddress = _proxyRegistryAddress;\r\n        _initializeEIP712(name);\r\n    }\r\n\r\n    /**\r\n     * @dev Throws if called by any account other than the owner or their proxy\r\n     */\r\n    modifier onlyOwnerOrProxy() {\r\n        require(\r\n            _isOwnerOrProxy(_msgSender()),\r\n            \"ERC1155Tradable#onlyOwner: CALLER_IS_NOT_OWNER\"\r\n        );\r\n        _;\r\n    }\r\n\r\n    /**\r\n     * @dev Throws if called by any account other than _from or their proxy\r\n     */\r\n    modifier onlyApproved(address _from) {\r\n        require(\r\n            _from == _msgSender() || isApprovedForAll(_from, _msgSender()),\r\n            \"ERC1155Tradable#onlyApproved: CALLER_NOT_ALLOWED\"\r\n        );\r\n        _;\r\n    }\r\n\r\n    function _isOwnerOrProxy(address _address) internal view returns (bool) {\r\n        return owner() == _address || _isProxyForUser(owner(), _address);\r\n    }\r\n\r\n    function pause() external onlyOwnerOrProxy {\r\n        _pause();\r\n    }\r\n\r\n    function unpause() external onlyOwnerOrProxy {\r\n        _unpause();\r\n    }\r\n\r\n    /**\r\n     * @dev See {IERC1155-balanceOf}.\r\n     *\r\n     * Requirements:\r\n     *\r\n     * - `account` cannot be the zero address.\r\n     */\r\n    function balanceOf(address account, uint256 id)\r\n        public\r\n        view\r\n        virtual\r\n        override\r\n        returns (uint256)\r\n    {\r\n        require(\r\n            account != address(0),\r\n            \"ERC1155: balance query for the zero address\"\r\n        );\r\n        return balances[id][account];\r\n    }\r\n\r\n    /**\r\n     * @dev See {IERC1155-balanceOfBatch}.\r\n     *\r\n     * Requirements:\r\n     *\r\n     * - `accounts` and `ids` must have the same length.\r\n     */\r\n    function balanceOfBatch(address[] memory accounts, uint256[] memory ids)\r\n        public\r\n        view\r\n        virtual\r\n        override\r\n        returns (uint256[] memory)\r\n    {\r\n        require(\r\n            accounts.length == ids.length,\r\n            \"ERC1155: accounts and ids length mismatch\"\r\n        );\r\n\r\n        uint256[] memory batchBalances = new uint256[](accounts.length);\r\n\r\n        for (uint256 i = 0; i < accounts.length; ++i) {\r\n            batchBalances[i] = balanceOf(accounts[i], ids[i]);\r\n        }\r\n\r\n        return batchBalances;\r\n    }\r\n\r\n    /**\r\n     * @dev Returns the total quantity for a token ID\r\n     * @param _id uint256 ID of the token to query\r\n     * @return amount of token in existence\r\n     */\r\n    function totalSupply(uint256 _id) public view returns (uint256) {\r\n        return _supply[_id];\r\n    }\r\n\r\n    /**\r\n     * Override isApprovedForAll to whitelist user's OpenSea proxy accounts to enable gas-free listings.\r\n     */\r\n    function isApprovedForAll(address _owner, address _operator)\r\n        public\r\n        view\r\n        override\r\n        returns (bool isOperator)\r\n    {\r\n        // Whitelist OpenSea proxy contracts for easy trading.\r\n        if (_isProxyForUser(_owner, _operator)) {\r\n            return true;\r\n        }\r\n\r\n        return super.isApprovedForAll(_owner, _operator);\r\n    }\r\n\r\n    /**\r\n     * @dev See {IERC1155-safeTransferFrom}.\r\n     */\r\n    function safeTransferFrom(\r\n        address from,\r\n        address to,\r\n        uint256 id,\r\n        uint256 amount,\r\n        bytes memory data\r\n    ) public virtual override whenNotPaused onlyApproved(from) {\r\n        require(to != address(0), \"ERC1155: transfer to the zero address\");\r\n\r\n        address operator = _msgSender();\r\n\r\n        _beforeTokenTransfer(\r\n            operator,\r\n            from,\r\n            to,\r\n            asSingletonArray(id),\r\n            asSingletonArray(amount),\r\n            data\r\n        );\r\n\r\n        uint256 fromBalance = balances[id][from];\r\n        require(\r\n            fromBalance >= amount,\r\n            \"ERC1155: insufficient balance for transfer\"\r\n        );\r\n        balances[id][from] = fromBalance - amount;\r\n        balances[id][to] += amount;\r\n\r\n        emit TransferSingle(operator, from, to, id, amount);\r\n\r\n        doSafeTransferAcceptanceCheck(operator, from, to, id, amount, data);\r\n    }\r\n\r\n    /**\r\n     * @dev See {IERC1155-safeBatchTransferFrom}.\r\n     */\r\n    function safeBatchTransferFrom(\r\n        address from,\r\n        address to,\r\n        uint256[] memory ids,\r\n        uint256[] memory amounts,\r\n        bytes memory data\r\n    ) public virtual override whenNotPaused onlyApproved(from) {\r\n        require(\r\n            ids.length == amounts.length,\r\n            \"ERC1155: IDS_AMOUNTS_LENGTH_MISMATCH\"\r\n        );\r\n        require(to != address(0), \"ERC1155: transfer to the zero address\");\r\n\r\n        address operator = _msgSender();\r\n\r\n        _beforeTokenTransfer(operator, from, to, ids, amounts, data);\r\n\r\n        for (uint256 i = 0; i < ids.length; ++i) {\r\n            uint256 id = ids[i];\r\n            uint256 amount = amounts[i];\r\n\r\n            uint256 fromBalance = balances[id][from];\r\n            require(\r\n                fromBalance >= amount,\r\n                \"ERC1155: insufficient balance for transfer\"\r\n            );\r\n            balances[id][from] = fromBalance - amount;\r\n            balances[id][to] += amount;\r\n        }\r\n\r\n        emit TransferBatch(operator, from, to, ids, amounts);\r\n\r\n        doSafeBatchTransferAcceptanceCheck(\r\n            operator,\r\n            from,\r\n            to,\r\n            ids,\r\n            amounts,\r\n            data\r\n        );\r\n    }\r\n\r\n    /**\r\n     * @dev Hook to be called right before minting\r\n     * @param _id          Token ID to mint\r\n     * @param _quantity    Amount of tokens to mint\r\n     */\r\n    function _beforeMint(uint256 _id, uint256 _quantity) internal virtual {}\r\n\r\n    /**\r\n     * @dev Mints some amount of tokens to an address\r\n     * @param _to          Address of the future owner of the token\r\n     * @param _id          Token ID to mint\r\n     * @param _quantity    Amount of tokens to mint\r\n     * @param _data        Data to pass if receiver is contract\r\n     */\r\n    function mint(\r\n        address _to,\r\n        uint256 _id,\r\n        uint256 _quantity,\r\n        bytes memory _data\r\n    ) public virtual onlyOwnerOrProxy {\r\n        _mint(_to, _id, _quantity, _data);\r\n    }\r\n\r\n    /**\r\n     * @dev Mint tokens for each id in _ids\r\n     * @param _to          The address to mint tokens to\r\n     * @param _ids         Array of ids to mint\r\n     * @param _quantities  Array of amounts of tokens to mint per id\r\n     * @param _data        Data to pass if receiver is contract\r\n     */\r\n    function batchMint(\r\n        address _to,\r\n        uint256[] memory _ids,\r\n        uint256[] memory _quantities,\r\n        bytes memory _data\r\n    ) public virtual onlyOwnerOrProxy {\r\n        _batchMint(_to, _ids, _quantities, _data);\r\n    }\r\n\r\n    /**\r\n     * @dev Burns amount of a given token id\r\n     * @param _from          The address to burn tokens from\r\n     * @param _id          Token ID to burn\r\n     * @param _quantity    Amount to burn\r\n     */\r\n    function burn(\r\n        address _from,\r\n        uint256 _id,\r\n        uint256 _quantity\r\n    ) public virtual onlyApproved(_from) {\r\n        _burn(_from, _id, _quantity);\r\n    }\r\n\r\n    /**\r\n     * @dev Burns tokens for each id in _ids\r\n     * @param _from          The address to burn tokens from\r\n     * @param _ids         Array of token ids to burn\r\n     * @param _quantities  Array of the amount to be burned\r\n     */\r\n    function batchBurn(\r\n        address _from,\r\n        uint256[] memory _ids,\r\n        uint256[] memory _quantities\r\n    ) public virtual onlyApproved(_from) {\r\n        _burnBatch(_from, _ids, _quantities);\r\n    }\r\n\r\n    /**\r\n     * @dev Returns whether the specified token is minted\r\n     * @param _id uint256 ID of the token to query the existence of\r\n     * @return bool whether the token exists\r\n     */\r\n    function exists(uint256 _id) public view returns (bool) {\r\n        return _supply[_id] > 0;\r\n    }\r\n\r\n    // Overrides ERC1155 _mint to allow changing birth events to creator transfers,\r\n    // and to set _supply\r\n    function _mint(\r\n        address _to,\r\n        uint256 _id,\r\n        uint256 _amount,\r\n        bytes memory _data\r\n    ) internal virtual override whenNotPaused {\r\n        address operator = _msgSender();\r\n\r\n        _beforeTokenTransfer(\r\n            operator,\r\n            address(0),\r\n            _to,\r\n            asSingletonArray(_id),\r\n            asSingletonArray(_amount),\r\n            _data\r\n        );\r\n\r\n        _beforeMint(_id, _amount);\r\n\r\n        // Add _amount\r\n        balances[_id][_to] += _amount;\r\n        _supply[_id] += _amount;\r\n\r\n        // Origin of token will be the _from parameter\r\n        address origin = _origin(_id);\r\n\r\n        // Emit event\r\n        emit TransferSingle(operator, origin, _to, _id, _amount);\r\n\r\n        // Calling onReceive method if recipient is contract\r\n        doSafeTransferAcceptanceCheck(\r\n            operator,\r\n            origin,\r\n            _to,\r\n            _id,\r\n            _amount,\r\n            _data\r\n        );\r\n    }\r\n\r\n    // Overrides ERC1155MintBurn to change the batch birth events to creator transfers, and to set _supply\r\n    function _batchMint(\r\n        address _to,\r\n        uint256[] memory _ids,\r\n        uint256[] memory _amounts,\r\n        bytes memory _data\r\n    ) internal virtual whenNotPaused {\r\n        require(\r\n            _ids.length == _amounts.length,\r\n            \"ERC1155Tradable#batchMint: INVALID_ARRAYS_LENGTH\"\r\n        );\r\n\r\n        // Number of mints to execute\r\n        uint256 nMint = _ids.length;\r\n\r\n        // Origin of tokens will be the _from parameter\r\n        address origin = _origin(_ids[0]);\r\n\r\n        address operator = _msgSender();\r\n\r\n        _beforeTokenTransfer(operator, address(0), _to, _ids, _amounts, _data);\r\n\r\n        // Executing all minting\r\n        for (uint256 i = 0; i < nMint; i++) {\r\n            // Update storage balance\r\n            uint256 id = _ids[i];\r\n            uint256 amount = _amounts[i];\r\n            _beforeMint(id, amount);\r\n            require(\r\n                _origin(id) == origin,\r\n                \"ERC1155Tradable#batchMint: MULTIPLE_ORIGINS_NOT_ALLOWED\"\r\n            );\r\n            balances[id][_to] += amount;\r\n            _supply[id] += amount;\r\n        }\r\n\r\n        // Emit batch mint event\r\n        emit TransferBatch(operator, origin, _to, _ids, _amounts);\r\n\r\n        // Calling onReceive method if recipient is contract\r\n        doSafeBatchTransferAcceptanceCheck(\r\n            operator,\r\n            origin,\r\n            _to,\r\n            _ids,\r\n            _amounts,\r\n            _data\r\n        );\r\n    }\r\n\r\n    /**\r\n     * @dev Destroys `amount` tokens of token type `id` from `account`\r\n     *\r\n     * Requirements:\r\n     *\r\n     * - `account` cannot be the zero address.\r\n     * - `account` must have at least `amount` tokens of token type `id`.\r\n     */\r\n    function _burn(\r\n        address account,\r\n        uint256 id,\r\n        uint256 amount\r\n    ) internal override whenNotPaused {\r\n        require(account != address(0), \"ERC1155#_burn: BURN_FROM_ZERO_ADDRESS\");\r\n        require(amount > 0, \"ERC1155#_burn: AMOUNT_LESS_THAN_ONE\");\r\n\r\n        address operator = _msgSender();\r\n\r\n        _beforeTokenTransfer(\r\n            operator,\r\n            account,\r\n            address(0),\r\n            asSingletonArray(id),\r\n            asSingletonArray(amount),\r\n            \"\"\r\n        );\r\n\r\n        uint256 accountBalance = balances[id][account];\r\n        require(\r\n            accountBalance >= amount,\r\n            \"ERC1155#_burn: AMOUNT_EXCEEDS_BALANCE\"\r\n        );\r\n        balances[id][account] = accountBalance - amount;\r\n        _supply[id] -= amount;\r\n\r\n        emit TransferSingle(operator, account, address(0), id, amount);\r\n    }\r\n\r\n    /**\r\n     * @dev xref:ROOT:erc1155.adoc#batch-operations[Batched] version of {_burn}.\r\n     *\r\n     * Requirements:\r\n     *\r\n     * - `ids` and `amounts` must have the same length.\r\n     */\r\n    function _burnBatch(\r\n        address account,\r\n        uint256[] memory ids,\r\n        uint256[] memory amounts\r\n    ) internal override whenNotPaused {\r\n        require(account != address(0), \"ERC1155: BURN_FROM_ZERO_ADDRESS\");\r\n        require(\r\n            ids.length == amounts.length,\r\n            \"ERC1155: IDS_AMOUNTS_LENGTH_MISMATCH\"\r\n        );\r\n\r\n        address operator = _msgSender();\r\n\r\n        _beforeTokenTransfer(operator, account, address(0), ids, amounts, \"\");\r\n\r\n        for (uint256 i = 0; i < ids.length; i++) {\r\n            uint256 id = ids[i];\r\n            uint256 amount = amounts[i];\r\n\r\n            uint256 accountBalance = balances[id][account];\r\n            require(\r\n                accountBalance >= amount,\r\n                \"ERC1155#_burnBatch: AMOUNT_EXCEEDS_BALANCE\"\r\n            );\r\n            balances[id][account] = accountBalance - amount;\r\n            _supply[id] -= amount;\r\n        }\r\n\r\n        emit TransferBatch(operator, account, address(0), ids, amounts);\r\n    }\r\n\r\n    // Override this to change birth events' _from address\r\n    function _origin(\r\n        uint256 /* _id */\r\n    ) internal view virtual returns (address) {\r\n        return address(0);\r\n    }\r\n\r\n    // PROXY HELPER METHODS\r\n\r\n    function _isProxyForUser(address _user, address _address)\r\n        internal\r\n        view\r\n        virtual\r\n        returns (bool)\r\n    {\r\n        if (!proxyRegistryAddress.isContract()) {\r\n            return false;\r\n        }\r\n        ProxyRegistry proxyRegistry = ProxyRegistry(proxyRegistryAddress);\r\n        return address(proxyRegistry.proxies(_user)) == _address;\r\n    }\r\n\r\n    // Copied from OpenZeppelin\r\n    // https://github.com/OpenZeppelin/openzeppelin-contracts/blob/c3ae4790c71b7f53cc8fff743536dcb7031fed74/contracts/token/ERC1155/ERC1155.sol#L394\r\n    function doSafeTransferAcceptanceCheck(\r\n        address operator,\r\n        address from,\r\n        address to,\r\n        uint256 id,\r\n        uint256 amount,\r\n        bytes memory data\r\n    ) private {\r\n        if (to.isContract()) {\r\n            try\r\n                IERC1155Receiver(to).onERC1155Received(\r\n                    operator,\r\n                    from,\r\n                    id,\r\n                    amount,\r\n                    data\r\n                )\r\n            returns (bytes4 response) {\r\n                if (\r\n                    response != IERC1155Receiver(to).onERC1155Received.selector\r\n                ) {\r\n                    revert(\"ERC1155: ERC1155Receiver rejected tokens\");\r\n                }\r\n            } catch Error(string memory reason) {\r\n                revert(reason);\r\n            } catch {\r\n                revert(\"ERC1155: transfer to non ERC1155Receiver implementer\");\r\n            }\r\n        }\r\n    }\r\n\r\n    // Copied from OpenZeppelin\r\n    // https://github.com/OpenZeppelin/openzeppelin-contracts/blob/c3ae4790c71b7f53cc8fff743536dcb7031fed74/contracts/token/ERC1155/ERC1155.sol#L417\r\n    function doSafeBatchTransferAcceptanceCheck(\r\n        address operator,\r\n        address from,\r\n        address to,\r\n        uint256[] memory ids,\r\n        uint256[] memory amounts,\r\n        bytes memory data\r\n    ) internal {\r\n        if (to.isContract()) {\r\n            try\r\n                IERC1155Receiver(to).onERC1155BatchReceived(\r\n                    operator,\r\n                    from,\r\n                    ids,\r\n                    amounts,\r\n                    data\r\n                )\r\n            returns (bytes4 response) {\r\n                if (\r\n                    response !=\r\n                    IERC1155Receiver(to).onERC1155BatchReceived.selector\r\n                ) {\r\n                    revert(\"ERC1155: ERC1155Receiver rejected tokens\");\r\n                }\r\n            } catch Error(string memory reason) {\r\n                revert(reason);\r\n            } catch {\r\n                revert(\"ERC1155: transfer to non ERC1155Receiver implementer\");\r\n            }\r\n        }\r\n    }\r\n\r\n    // Copied from OpenZeppelin\r\n    // https://github.com/OpenZeppelin/openzeppelin-contracts/blob/c3ae4790c71b7f53cc8fff743536dcb7031fed74/contracts/token/ERC1155/ERC1155.sol#L440\r\n    function asSingletonArray(uint256 element)\r\n        private\r\n        pure\r\n        returns (uint256[] memory)\r\n    {\r\n        uint256[] memory array = new uint256[](1);\r\n        array[0] = element;\r\n\r\n        return array;\r\n    }\r\n\r\n    /**\r\n     * This is used instead of msg.sender as transactions won't be sent by the original token owner, but by OpenSea.\r\n     */\r\n    function _msgSender() internal view override returns (address sender) {\r\n        return ContextMixin.msgSender();\r\n    }\r\n}\r\n",
  "sourcePath": "D:\\anycallapp\\multichain-pegged-openstore\\destchain\\contracts\\lib\\ERC1155Tradable.sol",
  "compiler": {
    "name": "solc",
    "version": "0.8.4+commit.c7e474f2.Emscripten.clang"
  },
  "schemaVersion": "3.4.8",
  "updatedAt": "2022-07-12T05:05:27.607Z",
  "devdoc": {
    "kind": "dev",
    "methods": {
      "balanceOf(address,uint256)": {
        "details": "See {IERC1155-balanceOf}. Requirements: - `account` cannot be the zero address."
      },
      "balanceOfBatch(address[],uint256[])": {
        "details": "See {IERC1155-balanceOfBatch}. Requirements: - `accounts` and `ids` must have the same length."
      },
      "batchBurn(address,uint256[],uint256[])": {
        "details": "Burns tokens for each id in _ids",
        "params": {
          "_from": "The address to burn tokens from",
          "_ids": "Array of token ids to burn",
          "_quantities": "Array of the amount to be burned"
        }
      },
      "batchMint(address,uint256[],uint256[],bytes)": {
        "details": "Mint tokens for each id in _ids",
        "params": {
          "_data": "Data to pass if receiver is contract",
          "_ids": "Array of ids to mint",
          "_quantities": "Array of amounts of tokens to mint per id",
          "_to": "The address to mint tokens to"
        }
      },
      "burn(address,uint256,uint256)": {
        "details": "Burns amount of a given token id",
        "params": {
          "_from": "The address to burn tokens from",
          "_id": "Token ID to burn",
          "_quantity": "Amount to burn"
        }
      },
      "exists(uint256)": {
        "details": "Returns whether the specified token is minted",
        "params": {
          "_id": "uint256 ID of the token to query the existence of"
        },
        "returns": {
          "_0": "bool whether the token exists"
        }
      },
      "mint(address,uint256,uint256,bytes)": {
        "details": "Mints some amount of tokens to an address",
        "params": {
          "_data": "Data to pass if receiver is contract",
          "_id": "Token ID to mint",
          "_quantity": "Amount of tokens to mint",
          "_to": "Address of the future owner of the token"
        }
      },
      "owner()": {
        "details": "Returns the address of the current owner."
      },
      "paused()": {
        "details": "Returns true if the contract is paused, and false otherwise."
      },
      "renounceOwnership()": {
        "details": "Leaves the contract without owner. It will not be possible to call `onlyOwner` functions anymore. Can only be called by the current owner. NOTE: Renouncing ownership will leave the contract without an owner, thereby removing any functionality that is only available to the owner."
      },
      "safeBatchTransferFrom(address,address,uint256[],uint256[],bytes)": {
        "details": "See {IERC1155-safeBatchTransferFrom}."
      },
      "safeTransferFrom(address,address,uint256,uint256,bytes)": {
        "details": "See {IERC1155-safeTransferFrom}."
      },
      "setApprovalForAll(address,bool)": {
        "details": "See {IERC1155-setApprovalForAll}."
      },
      "supportsInterface(bytes4)": {
        "details": "See {IERC165-supportsInterface}."
      },
      "totalSupply(uint256)": {
        "details": "Returns the total quantity for a token ID",
        "params": {
          "_id": "uint256 ID of the token to query"
        },
        "returns": {
          "_0": "amount of token in existence"
        }
      },
      "transferOwnership(address)": {
        "details": "Transfers ownership of the contract to a new account (`newOwner`). Can only be called by the current owner."
      },
      "uri(uint256)": {
        "details": "See {IERC1155MetadataURI-uri}. This implementation returns the same URI for *all* token types. It relies on the token type ID substitution mechanism https://eips.ethereum.org/EIPS/eip-1155#metadata[defined in the EIP]. Clients calling this function must replace the `\\{id\\}` substring with the actual token type ID."
      }
    },
    "title": "ERC1155Tradable ERC1155Tradable - ERC1155 contract that whitelists an operator address, has create and mint functionality, and supports useful standards from OpenZeppelin, like exists(), name(), symbol(), and totalSupply()",
    "version": 1
  },
  "userdoc": {
    "kind": "user",
    "methods": {
      "isApprovedForAll(address,address)": {
        "notice": "Override isApprovedForAll to whitelist user's OpenSea proxy accounts to enable gas-free listings."
      }
    },
    "version": 1
  }
}