{
  "contractName": "MC_AssetContractShared",
  "abi": [
    {
      "inputs": [
        {
          "internalType": "string",
          "name": "_name",
          "type": "string"
        },
        {
          "internalType": "string",
          "name": "_symbol",
          "type": "string"
        },
        {
          "internalType": "string",
          "name": "_templateURI",
          "type": "string"
        },
        {
          "internalType": "address",
          "name": "_migrationAddress",
          "type": "address"
        }
      ],
      "stateMutability": "nonpayable",
      "type": "constructor"
    },
    {
      "anonymous": false,
      "inputs": [
        {
          "indexed": true,
          "internalType": "address",
          "name": "account",
          "type": "address"
        },
        {
          "indexed": true,
          "internalType": "address",
          "name": "operator",
          "type": "address"
        },
        {
          "indexed": false,
          "internalType": "bool",
          "name": "approved",
          "type": "bool"
        }
      ],
      "name": "ApprovalForAll",
      "type": "event"
    },
    {
      "anonymous": false,
      "inputs": [
        {
          "indexed": true,
          "internalType": "uint256",
          "name": "_id",
          "type": "uint256"
        },
        {
          "indexed": true,
          "internalType": "address",
          "name": "_creator",
          "type": "address"
        }
      ],
      "name": "CreatorChanged",
      "type": "event"
    },
    {
      "anonymous": false,
      "inputs": [
        {
          "indexed": false,
          "internalType": "address",
          "name": "userAddress",
          "type": "address"
        },
        {
          "indexed": false,
          "internalType": "address payable",
          "name": "relayerAddress",
          "type": "address"
        },
        {
          "indexed": false,
          "internalType": "bytes",
          "name": "functionSignature",
          "type": "bytes"
        }
      ],
      "name": "MetaTransactionExecuted",
      "type": "event"
    },
    {
      "anonymous": false,
      "inputs": [
        {
          "indexed": true,
          "internalType": "address",
          "name": "previousOwner",
          "type": "address"
        },
        {
          "indexed": true,
          "internalType": "address",
          "name": "newOwner",
          "type": "address"
        }
      ],
      "name": "OwnershipTransferred",
      "type": "event"
    },
    {
      "anonymous": false,
      "inputs": [
        {
          "indexed": false,
          "internalType": "address",
          "name": "account",
          "type": "address"
        }
      ],
      "name": "Paused",
      "type": "event"
    },
    {
      "anonymous": false,
      "inputs": [
        {
          "indexed": false,
          "internalType": "string",
          "name": "_value",
          "type": "string"
        },
        {
          "indexed": true,
          "internalType": "uint256",
          "name": "_id",
          "type": "uint256"
        }
      ],
      "name": "PermanentURI",
      "type": "event"
    },
    {
      "anonymous": false,
      "inputs": [
        {
          "indexed": true,
          "internalType": "address",
          "name": "operator",
          "type": "address"
        },
        {
          "indexed": true,
          "internalType": "address",
          "name": "from",
          "type": "address"
        },
        {
          "indexed": true,
          "internalType": "address",
          "name": "to",
          "type": "address"
        },
        {
          "indexed": false,
          "internalType": "uint256[]",
          "name": "ids",
          "type": "uint256[]"
        },
        {
          "indexed": false,
          "internalType": "uint256[]",
          "name": "values",
          "type": "uint256[]"
        }
      ],
      "name": "TransferBatch",
      "type": "event"
    },
    {
      "anonymous": false,
      "inputs": [
        {
          "indexed": true,
          "internalType": "address",
          "name": "operator",
          "type": "address"
        },
        {
          "indexed": true,
          "internalType": "address",
          "name": "from",
          "type": "address"
        },
        {
          "indexed": true,
          "internalType": "address",
          "name": "to",
          "type": "address"
        },
        {
          "indexed": false,
          "internalType": "uint256",
          "name": "id",
          "type": "uint256"
        },
        {
          "indexed": false,
          "internalType": "uint256",
          "name": "value",
          "type": "uint256"
        }
      ],
      "name": "TransferSingle",
      "type": "event"
    },
    {
      "anonymous": false,
      "inputs": [
        {
          "indexed": false,
          "internalType": "string",
          "name": "value",
          "type": "string"
        },
        {
          "indexed": true,
          "internalType": "uint256",
          "name": "id",
          "type": "uint256"
        }
      ],
      "name": "URI",
      "type": "event"
    },
    {
      "anonymous": false,
      "inputs": [
        {
          "indexed": false,
          "internalType": "address",
          "name": "account",
          "type": "address"
        }
      ],
      "name": "Unpaused",
      "type": "event"
    },
    {
      "inputs": [],
      "name": "ERC712_VERSION",
      "outputs": [
        {
          "internalType": "string",
          "name": "",
          "type": "string"
        }
      ],
      "stateMutability": "view",
      "type": "function"
    },
    {
      "inputs": [
        {
          "internalType": "address",
          "name": "_owner",
          "type": "address"
        },
        {
          "internalType": "uint256",
          "name": "_id",
          "type": "uint256"
        }
      ],
      "name": "balanceOf",
      "outputs": [
        {
          "internalType": "uint256",
          "name": "",
          "type": "uint256"
        }
      ],
      "stateMutability": "view",
      "type": "function"
    },
    {
      "inputs": [
        {
          "internalType": "address[]",
          "name": "accounts",
          "type": "address[]"
        },
        {
          "internalType": "uint256[]",
          "name": "ids",
          "type": "uint256[]"
        }
      ],
      "name": "balanceOfBatch",
      "outputs": [
        {
          "internalType": "uint256[]",
          "name": "",
          "type": "uint256[]"
        }
      ],
      "stateMutability": "view",
      "type": "function"
    },
    {
      "inputs": [
        {
          "internalType": "address",
          "name": "_from",
          "type": "address"
        },
        {
          "internalType": "uint256[]",
          "name": "_ids",
          "type": "uint256[]"
        },
        {
          "internalType": "uint256[]",
          "name": "_quantities",
          "type": "uint256[]"
        }
      ],
      "name": "batchBurn",
      "outputs": [],
      "stateMutability": "nonpayable",
      "type": "function"
    },
    {
      "inputs": [
        {
          "internalType": "address",
          "name": "_from",
          "type": "address"
        },
        {
          "internalType": "uint256",
          "name": "_id",
          "type": "uint256"
        },
        {
          "internalType": "uint256",
          "name": "_quantity",
          "type": "uint256"
        }
      ],
      "name": "burn",
      "outputs": [],
      "stateMutability": "nonpayable",
      "type": "function"
    },
    {
      "inputs": [
        {
          "internalType": "address",
          "name": "userAddress",
          "type": "address"
        },
        {
          "internalType": "bytes",
          "name": "functionSignature",
          "type": "bytes"
        },
        {
          "internalType": "bytes32",
          "name": "sigR",
          "type": "bytes32"
        },
        {
          "internalType": "bytes32",
          "name": "sigS",
          "type": "bytes32"
        },
        {
          "internalType": "uint8",
          "name": "sigV",
          "type": "uint8"
        }
      ],
      "name": "executeMetaTransaction",
      "outputs": [
        {
          "internalType": "bytes",
          "name": "",
          "type": "bytes"
        }
      ],
      "stateMutability": "payable",
      "type": "function"
    },
    {
      "inputs": [
        {
          "internalType": "uint256",
          "name": "_id",
          "type": "uint256"
        }
      ],
      "name": "exists",
      "outputs": [
        {
          "internalType": "bool",
          "name": "",
          "type": "bool"
        }
      ],
      "stateMutability": "view",
      "type": "function"
    },
    {
      "inputs": [],
      "name": "gateway",
      "outputs": [
        {
          "internalType": "address",
          "name": "",
          "type": "address"
        }
      ],
      "stateMutability": "view",
      "type": "function"
    },
    {
      "inputs": [],
      "name": "getChainId",
      "outputs": [
        {
          "internalType": "uint256",
          "name": "",
          "type": "uint256"
        }
      ],
      "stateMutability": "view",
      "type": "function"
    },
    {
      "inputs": [],
      "name": "getDomainSeperator",
      "outputs": [
        {
          "internalType": "bytes32",
          "name": "",
          "type": "bytes32"
        }
      ],
      "stateMutability": "view",
      "type": "function"
    },
    {
      "inputs": [
        {
          "internalType": "address",
          "name": "user",
          "type": "address"
        }
      ],
      "name": "getNonce",
      "outputs": [
        {
          "internalType": "uint256",
          "name": "nonce",
          "type": "uint256"
        }
      ],
      "stateMutability": "view",
      "type": "function"
    },
    {
      "inputs": [
        {
          "internalType": "address",
          "name": "_owner",
          "type": "address"
        },
        {
          "internalType": "address",
          "name": "_operator",
          "type": "address"
        }
      ],
      "name": "isApprovedForAll",
      "outputs": [
        {
          "internalType": "bool",
          "name": "isOperator",
          "type": "bool"
        }
      ],
      "stateMutability": "view",
      "type": "function"
    },
    {
      "inputs": [
        {
          "internalType": "uint256",
          "name": "_id",
          "type": "uint256"
        }
      ],
      "name": "isPermanentURI",
      "outputs": [
        {
          "internalType": "bool",
          "name": "",
          "type": "bool"
        }
      ],
      "stateMutability": "view",
      "type": "function"
    },
    {
      "inputs": [],
      "name": "migrationTarget",
      "outputs": [
        {
          "internalType": "contract MC_AssetContractShared",
          "name": "",
          "type": "address"
        }
      ],
      "stateMutability": "view",
      "type": "function"
    },
    {
      "inputs": [],
      "name": "name",
      "outputs": [
        {
          "internalType": "string",
          "name": "",
          "type": "string"
        }
      ],
      "stateMutability": "view",
      "type": "function"
    },
    {
      "inputs": [],
      "name": "openSeaVersion",
      "outputs": [
        {
          "internalType": "string",
          "name": "",
          "type": "string"
        }
      ],
      "stateMutability": "pure",
      "type": "function"
    },
    {
      "inputs": [],
      "name": "owner",
      "outputs": [
        {
          "internalType": "address",
          "name": "",
          "type": "address"
        }
      ],
      "stateMutability": "view",
      "type": "function"
    },
    {
      "inputs": [],
      "name": "pause",
      "outputs": [],
      "stateMutability": "nonpayable",
      "type": "function"
    },
    {
      "inputs": [],
      "name": "paused",
      "outputs": [
        {
          "internalType": "bool",
          "name": "",
          "type": "bool"
        }
      ],
      "stateMutability": "view",
      "type": "function"
    },
    {
      "inputs": [],
      "name": "proxyRegistryAddress",
      "outputs": [
        {
          "internalType": "address",
          "name": "",
          "type": "address"
        }
      ],
      "stateMutability": "view",
      "type": "function"
    },
    {
      "inputs": [],
      "name": "renounceOwnership",
      "outputs": [],
      "stateMutability": "nonpayable",
      "type": "function"
    },
    {
      "inputs": [
        {
          "internalType": "address",
          "name": "_from",
          "type": "address"
        },
        {
          "internalType": "address",
          "name": "_to",
          "type": "address"
        },
        {
          "internalType": "uint256[]",
          "name": "_ids",
          "type": "uint256[]"
        },
        {
          "internalType": "uint256[]",
          "name": "_amounts",
          "type": "uint256[]"
        },
        {
          "internalType": "bytes",
          "name": "_data",
          "type": "bytes"
        }
      ],
      "name": "safeBatchTransferFrom",
      "outputs": [],
      "stateMutability": "nonpayable",
      "type": "function"
    },
    {
      "inputs": [
        {
          "internalType": "address",
          "name": "_from",
          "type": "address"
        },
        {
          "internalType": "address",
          "name": "_to",
          "type": "address"
        },
        {
          "internalType": "uint256",
          "name": "_id",
          "type": "uint256"
        },
        {
          "internalType": "uint256",
          "name": "_amount",
          "type": "uint256"
        },
        {
          "internalType": "bytes",
          "name": "_data",
          "type": "bytes"
        }
      ],
      "name": "safeTransferFrom",
      "outputs": [],
      "stateMutability": "nonpayable",
      "type": "function"
    },
    {
      "inputs": [
        {
          "internalType": "address",
          "name": "operator",
          "type": "address"
        },
        {
          "internalType": "bool",
          "name": "approved",
          "type": "bool"
        }
      ],
      "name": "setApprovalForAll",
      "outputs": [],
      "stateMutability": "nonpayable",
      "type": "function"
    },
    {
      "inputs": [
        {
          "internalType": "string",
          "name": "_uri",
          "type": "string"
        }
      ],
      "name": "setTemplateURI",
      "outputs": [],
      "stateMutability": "nonpayable",
      "type": "function"
    },
    {
      "inputs": [],
      "name": "supportsFactoryInterface",
      "outputs": [
        {
          "internalType": "bool",
          "name": "",
          "type": "bool"
        }
      ],
      "stateMutability": "pure",
      "type": "function"
    },
    {
      "inputs": [
        {
          "internalType": "bytes4",
          "name": "interfaceId",
          "type": "bytes4"
        }
      ],
      "name": "supportsInterface",
      "outputs": [
        {
          "internalType": "bool",
          "name": "",
          "type": "bool"
        }
      ],
      "stateMutability": "view",
      "type": "function"
    },
    {
      "inputs": [],
      "name": "symbol",
      "outputs": [
        {
          "internalType": "string",
          "name": "",
          "type": "string"
        }
      ],
      "stateMutability": "view",
      "type": "function"
    },
    {
      "inputs": [],
      "name": "templateURI",
      "outputs": [
        {
          "internalType": "string",
          "name": "",
          "type": "string"
        }
      ],
      "stateMutability": "view",
      "type": "function"
    },
    {
      "inputs": [
        {
          "internalType": "uint256",
          "name": "_id",
          "type": "uint256"
        }
      ],
      "name": "totalSupply",
      "outputs": [
        {
          "internalType": "uint256",
          "name": "",
          "type": "uint256"
        }
      ],
      "stateMutability": "view",
      "type": "function"
    },
    {
      "inputs": [
        {
          "internalType": "address",
          "name": "newOwner",
          "type": "address"
        }
      ],
      "name": "transferOwnership",
      "outputs": [],
      "stateMutability": "nonpayable",
      "type": "function"
    },
    {
      "inputs": [],
      "name": "unpause",
      "outputs": [],
      "stateMutability": "nonpayable",
      "type": "function"
    },
    {
      "inputs": [
        {
          "internalType": "uint256",
          "name": "_id",
          "type": "uint256"
        }
      ],
      "name": "uri",
      "outputs": [
        {
          "internalType": "string",
          "name": "",
          "type": "string"
        }
      ],
      "stateMutability": "view",
      "type": "function"
    },
    {
      "inputs": [
        {
          "internalType": "address",
          "name": "gateway_",
          "type": "address"
        }
      ],
      "name": "setGateway",
      "outputs": [],
      "stateMutability": "nonpayable",
      "type": "function"
    },
    {
      "inputs": [],
      "name": "disableMigrate",
      "outputs": [],
      "stateMutability": "nonpayable",
      "type": "function"
    },
    {
      "inputs": [
        {
          "components": [
            {
              "internalType": "uint256",
              "name": "id",
              "type": "uint256"
            },
            {
              "internalType": "address",
              "name": "owner",
              "type": "address"
            }
          ],
          "internalType": "struct MC_AssetContractShared.Ownership[]",
          "name": "_ownerships",
          "type": "tuple[]"
        }
      ],
      "name": "migrate",
      "outputs": [],
      "stateMutability": "nonpayable",
      "type": "function"
    },
    {
      "inputs": [
        {
          "internalType": "address",
          "name": "_to",
          "type": "address"
        },
        {
          "internalType": "uint256",
          "name": "_id",
          "type": "uint256"
        },
        {
          "internalType": "uint256",
          "name": "_quantity",
          "type": "uint256"
        },
        {
          "internalType": "bytes",
          "name": "_data",
          "type": "bytes"
        }
      ],
      "name": "mint",
      "outputs": [],
      "stateMutability": "nonpayable",
      "type": "function"
    },
    {
      "inputs": [
        {
          "internalType": "address",
          "name": "_to",
          "type": "address"
        },
        {
          "internalType": "uint256[]",
          "name": "_ids",
          "type": "uint256[]"
        },
        {
          "internalType": "uint256[]",
          "name": "_quantities",
          "type": "uint256[]"
        },
        {
          "internalType": "bytes",
          "name": "_data",
          "type": "bytes"
        }
      ],
      "name": "batchMint",
      "outputs": [],
      "stateMutability": "nonpayable",
      "type": "function"
    },
    {
      "inputs": [
        {
          "internalType": "uint256",
          "name": "_id",
          "type": "uint256"
        },
        {
          "internalType": "string",
          "name": "_uri",
          "type": "string"
        }
      ],
      "name": "setURI",
      "outputs": [],
      "stateMutability": "nonpayable",
      "type": "function"
    },
    {
      "inputs": [
        {
          "internalType": "uint256",
          "name": "_id",
          "type": "uint256"
        },
        {
          "internalType": "string",
          "name": "_uri",
          "type": "string"
        }
      ],
      "name": "setPermanentURI",
      "outputs": [],
      "stateMutability": "nonpayable",
      "type": "function"
    },
    {
      "inputs": [
        {
          "internalType": "uint256",
          "name": "_id",
          "type": "uint256"
        },
        {
          "internalType": "address",
          "name": "_to",
          "type": "address"
        }
      ],
      "name": "setCreator",
      "outputs": [],
      "stateMutability": "nonpayable",
      "type": "function"
    },
    {
      "inputs": [
        {
          "internalType": "uint256",
          "name": "_id",
          "type": "uint256"
        }
      ],
      "name": "creator",
      "outputs": [
        {
          "internalType": "address",
          "name": "",
          "type": "address"
        }
      ],
      "stateMutability": "view",
      "type": "function"
    },
    {
      "inputs": [
        {
          "internalType": "uint256",
          "name": "_id",
          "type": "uint256"
        }
      ],
      "name": "maxSupply",
      "outputs": [
        {
          "internalType": "uint256",
          "name": "",
          "type": "uint256"
        }
      ],
      "stateMutability": "pure",
      "type": "function"
    }
  ],
  "bytecode": "0x60806040526003805460ff191690553480156200001b57600080fd5b50604051620049f2380380620049f28339810160408190526200003e91620006da565b8383600084838383604051806020016040528060008152506200006781620001ba60201b60201c565b506200007c62000076620001d3565b620001ef565b6006805460ff60a01b1916905582516200009e9060089060208601906200055b565b508151620000b49060099060208501906200055b565b50600780546001600160a01b0319166001600160a01b03831617905560088054620001709190620000e5906200077c565b80601f016020809104026020016040519081016040528092919081815260200182805462000113906200077c565b8015620001645780601f10620001385761010080835404028352916020019162000164565b820191906000526020600020905b8154815290600101906020018083116200014657829003601f168201915b50506200024192505050565b5050815115905062000187576200018781620002a6565b50506001600f555050601080546001600160a01b0319166001600160a01b039290921691909117905550620007e8915050565b8051620001cf9060029060208401906200055b565b5050565b6000620001ea6200033460201b62001bed1760201c565b905090565b600680546001600160a01b038381166001600160a01b0319831681179093556040519116919082907f8be0079c531659141344cd1fd0a4f28419497f9722a3daafe3b4186f6b6457e090600090a35050565b60035460ff16156200028b5760405162461bcd60e51b815260206004820152600e60248201526d185b1c9958591e481a5b9a5d195960921b60448201526064015b60405180910390fd5b620002968162000393565b506003805460ff19166001179055565b620002ba620002b4620001d3565b62000435565b6200031f5760405162461bcd60e51b815260206004820152602e60248201527f455243313135355472616461626c65236f6e6c794f776e65723a2043414c4c4560448201526d292fa4a9afa727aa2fa7aba722a960911b606482015260840162000282565b8051620001cf90600c9060208401906200055b565b6000333014156200038d57600080368080601f0160208091040260200160405190810160405280939291908181526020018383808284376000920191909152505050503601516001600160a01b03169150620003909050565b50335b90565b6040518060800160405280604f8152602001620049a3604f9139805160209182012082519282019290922060408051808201825260018152603160f81b90840152805180840194909452838101919091527fc89efdaa54c0f20c7adf612882df0950f5a951637e0307cdcb4c672f298b8bc660608401523060808401524660a0808501919091528151808503909101815260c090930190528151910120600455565b60006001600160a01b038216620004546006546001600160a01b031690565b6001600160a01b03161480620004835750620004836200047c6006546001600160a01b031690565b8362000489565b92915050565b600754600090620004af906001600160a01b031662000555602090811b62001c4a17901c565b620004bd5750600062000483565b60075460405163c455279160e01b81526001600160a01b03858116600483015291821691841690829063c45527919060240160206040518083038186803b1580156200050857600080fd5b505afa1580156200051d573d6000803e3d6000fd5b505050506040513d601f19601f82011682018060405250810190620005439190620006b4565b6001600160a01b031614949350505050565b3b151590565b82805462000569906200077c565b90600052602060002090601f0160209004810192826200058d5760008555620005d8565b82601f10620005a857805160ff1916838001178555620005d8565b82800160010185558215620005d8579182015b82811115620005d8578251825591602001919060010190620005bb565b50620005e6929150620005ea565b5090565b5b80821115620005e65760008155600101620005eb565b600082601f83011262000612578081fd5b81516001600160401b03808211156200062f576200062f620007b9565b604051601f8301601f19908116603f011681019082821181831017156200065a576200065a620007b9565b8160405283815260209250868385880101111562000676578485fd5b8491505b838210156200069957858201830151818301840152908201906200067a565b83821115620006aa57848385830101525b9695505050505050565b600060208284031215620006c6578081fd5b8151620006d381620007cf565b9392505050565b60008060008060808587031215620006f0578283fd5b84516001600160401b038082111562000707578485fd5b620007158883890162000601565b955060208701519150808211156200072b578485fd5b620007398883890162000601565b945060408701519150808211156200074f578384fd5b506200075e8782880162000601565b92505060608501516200077181620007cf565b939692955090935050565b600181811c908216806200079157607f821691505b60208210811415620007b357634e487b7160e01b600052602260045260246000fd5b50919050565b634e487b7160e01b600052604160045260246000fd5b6001600160a01b0381168114620007e557600080fd5b50565b6141ab80620007f86000396000f3fe60806040526004361061025b5760003560e01c80635b51acff11610144578063a22cb465116100b6578063e985e9c51161007a578063e985e9c51461073e578063f242432a1461075e578063f2fde38b1461077e578063f5298aca1461079e578063f6eb127a146107be578063f923e8c3146107de57600080fd5b8063a22cb4651461069d578063b48ab8b6146106bd578063bd85b039146106dd578063c311c5231461070a578063cd7c03261461071e57600080fd5b8063862440e211610108578063862440e2146105ea578063869f75941461060a5780638da5cb5b1461062a57806390646b4a1461064857806391686f531461066857806395d89b411461068857600080fd5b80635b51acff146105615780635c975abb14610581578063715018a6146105a0578063731133e9146105b55780638456cb59146105d557600080fd5b806324d88785116101dd5780633588ad7c116101a15780633588ad7c146104825780633f4ba83a146104a25780634060b25e146104b75780634e1273f4146104e55780634f558e7914610512578063510b51581461054157600080fd5b806324d88785146103d95780632d0335ab146103f95780632eb2c2d61461042f5780632f1c982c1461044f5780633408e4701461046f57600080fd5b80630e89341c116102245780630e89341c1461030f5780630f7e59701461032f578063116191b61461035c5780631e7d9dbb1461039457806320379ee5146103c457600080fd5b8062fdd58e1461026057806301ffc9a71461029357806306fdde03146102c35780630bb2465a146102e55780630c53c51c146102fc575b600080fd5b34801561026c57600080fd5b5061028061027b366004613660565b6107f3565b6040519081526020015b60405180910390f35b34801561029f57600080fd5b506102b36102ae3660046138a9565b610833565b604051901515815260200161028a565b3480156102cf57600080fd5b506102d8610883565b60405161028a9190613bf7565b3480156102f157600080fd5b506102fa610911565b005b6102d861030a3660046135e6565b610975565b34801561031b57600080fd5b506102d861032a3660046139ac565b610b4d565b34801561033b57600080fd5b506102d8604051806040016040528060018152602001603160f81b81525081565b34801561036857600080fd5b5060115461037c906001600160a01b031681565b6040516001600160a01b03909116815260200161028a565b3480156103a057600080fd5b506102b36103af3660046139ac565b6000908152600e602052604090205460ff1690565b3480156103d057600080fd5b50600454610280565b3480156103e557600080fd5b506102fa6103f43660046138fd565b610c8d565b34801561040557600080fd5b5061028061041436600461334a565b6001600160a01b031660009081526005602052604090205490565b34801561043b57600080fd5b506102fa61044a36600461339e565b610cd0565b34801561045b57600080fd5b506102fa61046a3660046137df565b610dc8565b34801561047b57600080fd5b5046610280565b34801561048e57600080fd5b506102fa61049d366004613a00565b6111c2565b3480156104ae57600080fd5b506102fa611269565b3480156104c357600080fd5b506040805180820190915260058152640322e312e360dc1b60208201526102d8565b3480156104f157600080fd5b50610505610500366004613713565b61129a565b60405161028a9190613bbf565b34801561051e57600080fd5b506102b361052d3660046139ac565b6000908152600b6020526040902054151590565b34801561054d57600080fd5b5061037c61055c3660046139ac565b6113fb565b34801561056d57600080fd5b5060105461037c906001600160a01b031681565b34801561058d57600080fd5b50600654600160a01b900460ff166102b3565b3480156105ac57600080fd5b506102fa61143d565b3480156105c157600080fd5b506102fa6105d03660046136bf565b611490565b3480156105e157600080fd5b506102fa611529565b3480156105f657600080fd5b506102fa610605366004613a00565b611558565b34801561061657600080fd5b506102806106253660046139ac565b6115e4565b34801561063657600080fd5b506006546001600160a01b031661037c565b34801561065457600080fd5b506102fa61066336600461334a565b6115ef565b34801561067457600080fd5b506102fa6106833660046139dc565b61165a565b34801561069457600080fd5b506102d861174c565b3480156106a957600080fd5b506102fa6106b83660046135b5565b611759565b3480156106c957600080fd5b506102fa6106d836600461351f565b61186d565b3480156106e957600080fd5b506102806106f83660046139ac565b6000908152600b602052604090205490565b34801561071657600080fd5b5060016102b3565b34801561072a57600080fd5b5060075461037c906001600160a01b031681565b34801561074a57600080fd5b506102b3610759366004613366565b6118fb565b34801561076a57600080fd5b506102fa610779366004613447565b611945565b34801561078a57600080fd5b506102fa61079936600461334a565b611995565b3480156107aa57600080fd5b506102fa6107b936600461368b565b611a4f565b3480156107ca57600080fd5b506102fa6107d93660046134ad565b611ae6565b3480156107ea57600080fd5b506102d8611be0565b6000806108008484611c50565b905061080c8385611ce4565b6108165780610829565b61081f83611cef565b6108299082613f14565b9150505b92915050565b60006001600160e01b03198216636cdb3d1360e11b148061086457506001600160e01b031982166303a24d0760e21b145b8061082d57506301ffc9a760e01b6001600160e01b031983161461082d565b6008805461089090613f94565b80601f01602080910402602001604051908101604052809291908181526020018280546108bc90613f94565b80156109095780601f106108de57610100808354040283529160200191610909565b820191906000526020600020905b8154815290600101906020018083116108ec57829003601f168201915b505050505081565b610919611d11565b6001600160a01b03166109346006546001600160a01b031690565b6001600160a01b0316146109635760405162461bcd60e51b815260040161095a90613e95565b60405180910390fd5b601080546001600160a01b0319169055565b60408051606081810183526001600160a01b038816600081815260056020908152908590205484528301529181018690526109b38782878787611d20565b610a095760405162461bcd60e51b815260206004820152602160248201527f5369676e657220616e64207369676e617475726520646f206e6f74206d6174636044820152600d60fb1b606482015260840161095a565b6001600160a01b0387166000908152600560205260408120805460019290610a32908490613f14565b90915550506040517f5845892132946850460bff5a0083f71031bc5bf9aadcd40f1de79423eac9b10b90610a6b90899033908a90613af3565b60405180910390a1600080306001600160a01b0316888a604051602001610a93929190613abc565b60408051601f1981840301815290829052610aad91613aa0565b6000604051808303816000865af19150503d8060008114610aea576040519150601f19603f3d011682016040523d82523d6000602084013e610aef565b606091505b509150915081610b415760405162461bcd60e51b815260206004820152601c60248201527f46756e6374696f6e2063616c6c206e6f74207375636365737366756c00000000604482015260640161095a565b98975050505050505050565b6000818152600d6020526040812080546060929190610b6b90613f94565b80601f0160208091040260200160405190810160405280929190818152602001828054610b9790613f94565b8015610be45780601f10610bb957610100808354040283529160200191610be4565b820191906000526020600020905b815481529060010190602001808311610bc757829003601f168201915b505050505090508051600014610bfa5792915050565b600c8054610c0790613f94565b80601f0160208091040260200160405190810160405280929190818152602001828054610c3390613f94565b8015610c805780601f10610c5557610100808354040283529160200191610c80565b820191906000526020600020905b815481529060010190602001808311610c6357829003601f168201915b5050505050915050919050565b610c9d610c98611d11565b611e10565b610cb95760405162461bcd60e51b815260040161095a90613e1d565b8051610ccc90600c9060208401906131e6565b5050565b8151835114610d475760405162461bcd60e51b815260206004820152603a60248201527f4173736574436f6e7472616374237361666542617463685472616e736665724660448201527f726f6d3a20494e56414c49445f4152524159535f4c454e475448000000000000606482015260840161095a565b60005b8351811015610dc057610dae8686868481518110610d7857634e487b7160e01b600052603260045260246000fd5b6020026020010151868581518110610da057634e487b7160e01b600052603260045260246000fd5b602002602001015186611945565b80610db881614020565b915050610d4a565b505050505050565b610dd0611d11565b6001600160a01b0316610deb6006546001600160a01b031690565b6001600160a01b031614610e115760405162461bcd60e51b815260040161095a90613e95565b6010546001600160a01b031680610e805760405162461bcd60e51b815260206004820152602d60248201527f4173736574436f6e7472616374536861726564236d6967726174653a204d494760448201526c1490551157d11254d050931151609a1b606482015260840161095a565b6000816001600160a01b031663f923e8c36040518163ffffffff1660e01b815260040160006040518083038186803b158015610ebb57600080fd5b505afa158015610ecf573d6000803e3d6000fd5b505050506040513d6000823e601f3d908101601f19168201604052610ef7919081019061392f565b905060005b83518110156111bc576000848281518110610f2757634e487b7160e01b600052603260045260246000fd5b60200260200101516000015190506000858381518110610f5757634e487b7160e01b600052603260045260246000fd5b602002602001015160200151905060006001600160a01b0316816001600160a01b03161415610fe65760405162461bcd60e51b815260206004820152603560248201527f4173736574436f6e7472616374536861726564236d6967726174653a205a455260448201527413d7d05111149154d4d7d393d517d0531313d5d151605a1b606482015260840161095a565b604051627eeac760e11b81526001600160a01b038281166004830152602482018490526000919087169062fdd58e9060440160206040518083038186803b15801561103057600080fd5b505afa158015611044573d6000803e3d6000fd5b505050506040513d601f19601f8201168201806040525081019061106891906139c4565b905080611077575050506111ac565b61109282848360405180602001604052806000815250611e59565b845160208601206040516303a24d0760e21b8152600481018590526001600160a01b03881690630e89341c9060240160006040518083038186803b1580156110d957600080fd5b505afa1580156110ed573d6000803e3d6000fd5b505050506040513d6000823e601f3d908101601f19168201604052611115919081019061392f565b80519060200120146111a8576040516303a24d0760e21b8152600481018490526111a89084906001600160a01b03891690630e89341c9060240160006040518083038186803b15801561116757600080fd5b505afa15801561117b573d6000803e3d6000fd5b505050506040513d6000823e601f3d908101601f191682016040526111a3919081019061392f565b611e79565b5050505b6111b581614020565b9050610efc565b50505050565b816111d4816111cf611d11565b611f3f565b6111f05760405162461bcd60e51b815260040161095a90613c52565b6000838152600e6020526040902054839060ff16156112215760405162461bcd60e51b815260040161095a90613cb0565b8361123c61122d611d11565b8261123784611f63565b611f7e565b6112585760405162461bcd60e51b815260040161095a90613db2565b6112628585611e79565b5050505050565b611274610c98611d11565b6112905760405162461bcd60e51b815260040161095a90613e1d565b611298611f95565b565b606081518351146112ff5760405162461bcd60e51b815260206004820152602960248201527f455243313135353a206163636f756e747320616e6420696473206c656e677468604482015268040dad2e6dac2e8c6d60bb1b606482015260840161095a565b600083516001600160401b0381111561132857634e487b7160e01b600052604160045260246000fd5b604051908082528060200260200182016040528015611351578160200160208202803683370190505b50905060005b84518110156113f3576113b885828151811061138357634e487b7160e01b600052603260045260246000fd5b60200260200101518583815181106113ab57634e487b7160e01b600052603260045260246000fd5b60200260200101516107f3565b8282815181106113d857634e487b7160e01b600052603260045260246000fd5b60209081029190910101526113ec81614020565b9050611357565b509392505050565b6000818152601260205260408120546001600160a01b03161561143457506000908152601260205260409020546001600160a01b031690565b61082d82612038565b611445611d11565b6001600160a01b03166114606006546001600160a01b031690565b6001600160a01b0316146114865760405162461bcd60e51b815260040161095a90613e95565b6112986000612052565b6002600f5414156114e35760405162461bcd60e51b815260206004820152601f60248201527f5265656e7472616e637947756172643a207265656e7472616e742063616c6c00604482015260640161095a565b6002600f556011546001600160a01b031633146115125760405162461bcd60e51b815260040161095a90613d0d565b61151e84848484611e59565b50506001600f555050565b611534610c98611d11565b6115505760405162461bcd60e51b815260040161095a90613e1d565b6112986120a4565b81611565816111cf611d11565b6115815760405162461bcd60e51b815260040161095a90613c52565b6000838152600e6020526040902054839060ff16156115b25760405162461bcd60e51b815260040161095a90613cb0565b836115be61122d611d11565b6115da5760405162461bcd60e51b815260040161095a90613db2565b611262858561210a565b600061082d82611f63565b6115f7611d11565b6001600160a01b03166116126006546001600160a01b031690565b6001600160a01b0316146116385760405162461bcd60e51b815260040161095a90613e95565b601180546001600160a01b0319166001600160a01b0392909216919091179055565b81611667816111cf611d11565b6116835760405162461bcd60e51b815260040161095a90613c52565b6001600160a01b0382166116f25760405162461bcd60e51b815260206004820152603060248201527f4173736574436f6e74726163745368617265642373657443726561746f723a2060448201526f24a72b20a624a22fa0a2222922a9a99760811b606482015260840161095a565b60008381526012602052604080822080546001600160a01b0319166001600160a01b0386169081179091559051909185917f39071c63e44267bfdefc7b625c0df99d3ce2e6ff98d9f5e9e8a7ab43cdf5000d9190a3505050565b6009805461089090613f94565b816001600160a01b031661176b611d11565b6001600160a01b031614156117d45760405162461bcd60e51b815260206004820152602960248201527f455243313135353a2073657474696e6720617070726f76616c20737461747573604482015268103337b91039b2b63360b91b606482015260840161095a565b80600160006117e1611d11565b6001600160a01b03908116825260208083019390935260409182016000908120918716808252919093529120805460ff191692151592909217909155611825611d11565b6001600160a01b03167f17307eab39ab6107e8899845ad3d59bd9653f200f220920489ca2b5937696c3183604051611861911515815260200190565b60405180910390a35050565b6002600f5414156118c05760405162461bcd60e51b815260206004820152601f60248201527f5265656e7472616e637947756172643a207265656e7472616e742063616c6c00604482015260640161095a565b6002600f556011546001600160a01b031633146118ef5760405162461bcd60e51b815260040161095a90613d0d565b61151e8484848461215a565b600061190783836121bf565b156119145750600161082d565b6001600160a01b0380841660009081526001602090815260408083209386168352929052205460ff165b9392505050565b60006119518685611c50565b90508281101561198857611970858561196a8487613f51565b85611490565b801561198357611983868686848661226f565b610dc0565b610dc0868686868661226f565b61199d611d11565b6001600160a01b03166119b86006546001600160a01b031690565b6001600160a01b0316146119de5760405162461bcd60e51b815260040161095a90613e95565b6001600160a01b038116611a435760405162461bcd60e51b815260206004820152602660248201527f4f776e61626c653a206e6577206f776e657220697320746865207a65726f206160448201526564647265737360d01b606482015260840161095a565b611a4c81612052565b50565b828282611a5d838383611f7e565b611adb5760405162461bcd60e51b815260206004820152604360248201527f4173736574436f6e7472616374236f6e6c79546f6b656e416d6f756e744f776e60448201527f65643a204f4e4c595f544f4b454e5f414d4f554e545f4f574e45445f414c4c4f60648201526215d15160ea1b608482015260a40161095a565b610dc08686866124a4565b60005b8251811015611bcf57611b4b84848381518110611b1657634e487b7160e01b600052603260045260246000fd5b6020026020010151848481518110611b3e57634e487b7160e01b600052603260045260246000fd5b6020026020010151611f7e565b611bbd5760405162461bcd60e51b815260206004820152603860248201527f4173736574436f6e74726163742362617463684275726e3a204f4e4c595f544f60448201527f4b454e5f414d4f554e545f4f574e45445f414c4c4f5745440000000000000000606482015260840161095a565b80611bc781614020565b915050611ae9565b50611bdb8383836124fa565b505050565b600c805461089090613f94565b600033301415611c4457600080368080601f0160208091040260200160405190810160405280939291908181526020018383808284376000920191909152505050503601516001600160a01b03169150611c479050565b50335b90565b3b151590565b60006001600160a01b038316611cbc5760405162461bcd60e51b815260206004820152602b60248201527f455243313135353a2062616c616e636520717565727920666f7220746865207a60448201526a65726f206164647265737360a81b606482015260840161095a565b506000908152600a602090815260408083206001600160a01b03949094168352929052205490565b600061193e82611e10565b6000818152600b6020526040812054611d07836115e4565b61082d9190613f51565b6000611d1b611bed565b905090565b60006001600160a01b038616611d865760405162461bcd60e51b815260206004820152602560248201527f4e61746976654d6574615472616e73616374696f6e3a20494e56414c49445f5360448201526424a3a722a960d91b606482015260840161095a565b6001611d99611d9487612550565b6125cd565b6040805160008152602081018083529290925260ff851690820152606081018690526080810185905260a0016020604051602081039080840390855afa158015611de7573d6000803e3d6000fd5b505050602060405103516001600160a01b0316866001600160a01b031614905095945050505050565b6000816001600160a01b0316611e2e6006546001600160a01b031690565b6001600160a01b0316148061082d575061082d611e536006546001600160a01b031690565b836121bf565b611e65848484846125fd565b6001815111156111bc576111bc838261210a565b6000815111611ee05760405162461bcd60e51b815260206004820152602d60248201527f4173736574436f6e7472616374237365745065726d616e656e745552493a204f60448201526c4e4c595f56414c49445f55524960981b606482015260840161095a565b6000828152600e60205260409020805460ff19166001179055611f03828261210a565b817fa109ba539900bf1b633f956d63c96fc89b814c7287f7aa50a9216d0b5565720782604051611f339190613bf7565b60405180910390a25050565b600080611f4b846113fb565b6001600160a01b039081169084161491505092915050565b6000611f76600165010000000000613f51565b909116919050565b600081611f8b85856107f3565b1015949350505050565b600654600160a01b900460ff16611fe55760405162461bcd60e51b815260206004820152601460248201527314185d5cd8589b194e881b9bdd081c185d5cd95960621b604482015260640161095a565b6006805460ff60a01b191690557f5db9ee0a495bf2e6ff9c91a7834c1ba4fdd244a5e8aa4e537bd38aeae4b073aa61201b611d11565b6040516001600160a01b03909116815260200160405180910390a1565b600061204660286038613f2c565b60ff169190911c919050565b600680546001600160a01b038381166001600160a01b0319831681179093556040519116919082907f8be0079c531659141344cd1fd0a4f28419497f9722a3daafe3b4186f6b6457e090600090a35050565b600654600160a01b900460ff16156120ce5760405162461bcd60e51b815260040161095a90613e6b565b6006805460ff60a01b1916600160a01b1790557f62e78cea01bee320cd4e420270b5ea74000d11b0c9f74754ebdbfc544b05a25861201b611d11565b6000828152600d602090815260409091208251612129928401906131e6565b50817f6bb7ff708619ba0610cba295a58592e0451dee2622938c8755667688daf3529b82604051611f339190613bf7565b6121668484848461272c565b6001815111156111bc5760005b8351811015611262576121ad84828151811061219f57634e487b7160e01b600052603260045260246000fd5b60200260200101518361210a565b806121b781614020565b915050612173565b6007546000906001600160a01b03163b6121db5750600061082d565b60075460405163c455279160e01b81526001600160a01b03858116600483015291821691841690829063c45527919060240160206040518083038186803b15801561222557600080fd5b505afa158015612239573d6000803e3d6000fd5b505050506040513d601f19601f8201168201806040525081019061225d91906138e1565b6001600160a01b031614949350505050565b600654600160a01b900460ff16156122995760405162461bcd60e51b815260040161095a90613e6b565b846122a2611d11565b6001600160a01b0316816001600160a01b031614806122c857506122c881610759611d11565b6122e45760405162461bcd60e51b815260040161095a90613d62565b6001600160a01b0385166123485760405162461bcd60e51b815260206004820152602560248201527f455243313135353a207472616e7366657220746f20746865207a65726f206164604482015264647265737360d81b606482015260840161095a565b6000612352611d11565b905061236c818888612363896129db565b611262896129db565b6000858152600a602090815260408083206001600160a01b038b168452909152902054848110156123f25760405162461bcd60e51b815260206004820152602a60248201527f455243313135353a20696e73756666696369656e742062616c616e636520666f60448201526939103a3930b739b332b960b11b606482015260840161095a565b6123fc8582613f51565b6000878152600a602090815260408083206001600160a01b038d8116855292528083209390935589168152908120805487929061243a908490613f14565b909155505060408051878152602081018790526001600160a01b03808a16928b821692918616917fc3d58168c5ae7397731d063d5bbf3d657854427343f4c083240f7aacaa2d0f62910160405180910390a461249a828989898989612a34565b5050505050505050565b826124ad611d11565b6001600160a01b0316816001600160a01b031614806124d357506124d381610759611d11565b6124ef5760405162461bcd60e51b815260040161095a90613d62565b6111bc848484612b9f565b82612503611d11565b6001600160a01b0316816001600160a01b03161480612529575061252981610759611d11565b6125455760405162461bcd60e51b815260040161095a90613d62565b6111bc848484612de7565b600060405180608001604052806043815260200161413360439139805160209182012083518483015160408087015180519086012090516125b0950193845260208401929092526001600160a01b03166040830152606082015260800190565b604051602081830303815290604052805190602001209050919050565b60006125d860045490565b60405161190160f01b60208201526022810191909152604281018390526062016125b0565b600654600160a01b900460ff16156126275760405162461bcd60e51b815260040161095a90613e6b565b6000612631611d11565b905061264c81600087612643886129db565b611262886129db565b6126568484613093565b6000848152600a602090815260408083206001600160a01b038916845290915281208054859290612688908490613f14565b90915550506000848152600b6020526040812080548592906126ab908490613f14565b90915550600090506126bc85613111565b9050856001600160a01b0316816001600160a01b0316836001600160a01b03167fc3d58168c5ae7397731d063d5bbf3d657854427343f4c083240f7aacaa2d0f628888604051612716929190918252602082015260400190565b60405180910390a4610dc0828288888888612a34565b600654600160a01b900460ff16156127565760405162461bcd60e51b815260040161095a90613e6b565b81518351146127c05760405162461bcd60e51b815260206004820152603060248201527f455243313135355472616461626c652362617463684d696e743a20494e56414c60448201526f09288be82a4a482b2a6be988a9c8ea8960831b606482015260840161095a565b825160006127f18582846127e457634e487b7160e01b600052603260045260246000fd5b6020026020010151613111565b905060006127fd611d11565b905060005b8381101561296c57600087828151811061282c57634e487b7160e01b600052603260045260246000fd5b60200260200101519050600087838151811061285857634e487b7160e01b600052603260045260246000fd5b6020026020010151905061286c8282613093565b846001600160a01b031661287f83613111565b6001600160a01b0316146128fb5760405162461bcd60e51b815260206004820152603760248201527f455243313135355472616461626c652362617463684d696e743a204d554c544960448201527f504c455f4f524947494e535f4e4f545f414c4c4f574544000000000000000000606482015260840161095a565b6000828152600a602090815260408083206001600160a01b038e1684529091528120805483929061292d908490613f14565b90915550506000828152600b602052604081208054839290612950908490613f14565b925050819055505050808061296490614020565b915050612802565b50866001600160a01b0316826001600160a01b0316826001600160a01b03167f4a39dc06d4c0dbc64b70af90fd698a233a518aa5d07e595d983b8c0526c8f7fb89896040516129bc929190613bd2565b60405180910390a46129d281838989898961311c565b50505050505050565b60408051600180825281830190925260609160009190602080830190803683370190505090508281600081518110612a2357634e487b7160e01b600052603260045260246000fd5b602090810291909101015292915050565b6001600160a01b0384163b15610dc05760405163f23a6e6160e01b81526001600160a01b0385169063f23a6e6190612a789089908990889088908890600401613b7a565b602060405180830381600087803b158015612a9257600080fd5b505af1925050508015612ac2575060408051601f3d908101601f19168201909252612abf918101906138c5565b60015b612b6f57612ace614067565b806308c379a01415612b085750612ae361407e565b80612aee5750612b0a565b8060405162461bcd60e51b815260040161095a9190613bf7565b505b60405162461bcd60e51b815260206004820152603460248201527f455243313135353a207472616e7366657220746f206e6f6e20455243313135356044820152732932b1b2b4bb32b91034b6b83632b6b2b73a32b960611b606482015260840161095a565b6001600160e01b0319811663f23a6e6160e01b146129d25760405162461bcd60e51b815260040161095a90613c0a565b600654600160a01b900460ff1615612bc95760405162461bcd60e51b815260040161095a90613e6b565b6001600160a01b038316612c2d5760405162461bcd60e51b815260206004820152602560248201527f45524331313535235f6275726e3a204255524e5f46524f4d5f5a45524f5f4144604482015264445245535360d81b606482015260840161095a565b60008111612c895760405162461bcd60e51b815260206004820152602360248201527f45524331313535235f6275726e3a20414d4f554e545f4c4553535f5448414e5f6044820152624f4e4560e81b606482015260840161095a565b6000612c93611d11565b9050612cc481856000612ca5876129db565b612cae876129db565b5050604080516020810190915260009052505050565b6000838152600a602090815260408083206001600160a01b038816845290915290205482811015612d455760405162461bcd60e51b815260206004820152602560248201527f45524331313535235f6275726e3a20414d4f554e545f455843454544535f42416044820152644c414e434560d81b606482015260840161095a565b612d4f8382613f51565b6000858152600a602090815260408083206001600160a01b038a168452825280832093909355868252600b90529081208054859290612d8f908490613f51565b909155505060408051858152602081018590526000916001600160a01b0388811692908616917fc3d58168c5ae7397731d063d5bbf3d657854427343f4c083240f7aacaa2d0f62910160405180910390a45050505050565b600654600160a01b900460ff1615612e115760405162461bcd60e51b815260040161095a90613e6b565b6001600160a01b038316612e675760405162461bcd60e51b815260206004820152601f60248201527f455243313135353a204255524e5f46524f4d5f5a45524f5f4144445245535300604482015260640161095a565b8051825114612ec45760405162461bcd60e51b8152602060048201526024808201527f455243313135353a204944535f414d4f554e54535f4c454e4754485f4d49534d604482015263082a886960e31b606482015260840161095a565b6000612ece611d11565b604080516020810190915260009052905060005b8351811015613034576000848281518110612f0d57634e487b7160e01b600052603260045260246000fd5b602002602001015190506000848381518110612f3957634e487b7160e01b600052603260045260246000fd5b6020908102919091018101516000848152600a835260408082206001600160a01b038c168352909352919091205490915081811015612fcd5760405162461bcd60e51b815260206004820152602a60248201527f45524331313535235f6275726e42617463683a20414d4f554e545f455843454560448201526944535f42414c414e434560b01b606482015260840161095a565b612fd78282613f51565b6000848152600a602090815260408083206001600160a01b038d168452825280832093909355858252600b90529081208054849290613017908490613f51565b92505081905550505050808061302c90614020565b915050612ee2565b5060006001600160a01b0316846001600160a01b0316826001600160a01b03167f4a39dc06d4c0dbc64b70af90fd698a233a518aa5d07e595d983b8c0526c8f7fb8686604051613085929190613bd2565b60405180910390a450505050565b61309c82611cef565b811115610ccc5760405162461bcd60e51b815260206004820152603c60248201527f4173736574436f6e7472616374235f6265666f72654d696e743a205155414e5460448201527f4954595f455843454544535f544f4b454e5f535550504c595f43415000000000606482015260840161095a565b600061082d82612038565b6001600160a01b0384163b15610dc05760405163bc197c8160e01b81526001600160a01b0385169063bc197c81906131609089908990889088908890600401613b28565b602060405180830381600087803b15801561317a57600080fd5b505af19250505080156131aa575060408051601f3d908101601f191682019092526131a7918101906138c5565b60015b6131b657612ace614067565b6001600160e01b0319811663bc197c8160e01b146129d25760405162461bcd60e51b815260040161095a90613c0a565b8280546131f290613f94565b90600052602060002090601f016020900481019282613214576000855561325a565b82601f1061322d57805160ff191683800117855561325a565b8280016001018555821561325a579182015b8281111561325a57825182559160200191906001019061323f565b5061326692915061326a565b5090565b5b80821115613266576000815560010161326b565b600082601f83011261328f578081fd5b8135602061329c82613eca565b6040516132a98282613ff4565b8381528281019150858301600585901b870184018810156132c8578586fd5b855b858110156132e6578135845292840192908401906001016132ca565b5090979650505050505050565b600082601f830112613303578081fd5b813561330e81613eed565b60405161331b8282613ff4565b82815285602084870101111561332f578384fd5b82602086016020830137918201602001929092529392505050565b60006020828403121561335b578081fd5b813561193e81614107565b60008060408385031215613378578081fd5b823561338381614107565b9150602083013561339381614107565b809150509250929050565b600080600080600060a086880312156133b5578081fd5b85356133c081614107565b945060208601356133d081614107565b935060408601356001600160401b03808211156133eb578283fd5b6133f789838a0161327f565b9450606088013591508082111561340c578283fd5b61341889838a0161327f565b9350608088013591508082111561342d578283fd5b5061343a888289016132f3565b9150509295509295909350565b600080600080600060a0868803121561345e578283fd5b853561346981614107565b9450602086013561347981614107565b9350604086013592506060860135915060808601356001600160401b038111156134a1578182fd5b61343a888289016132f3565b6000806000606084860312156134c1578081fd5b83356134cc81614107565b925060208401356001600160401b03808211156134e7578283fd5b6134f38783880161327f565b93506040860135915080821115613508578283fd5b506135158682870161327f565b9150509250925092565b60008060008060808587031215613534578182fd5b843561353f81614107565b935060208501356001600160401b038082111561355a578384fd5b6135668883890161327f565b9450604087013591508082111561357b578384fd5b6135878883890161327f565b9350606087013591508082111561359c578283fd5b506135a9878288016132f3565b91505092959194509250565b600080604083850312156135c7578182fd5b82356135d281614107565b915060208301358015158114613393578182fd5b600080600080600060a086880312156135fd578283fd5b853561360881614107565b945060208601356001600160401b03811115613622578384fd5b61362e888289016132f3565b9450506040860135925060608601359150608086013560ff81168114613652578182fd5b809150509295509295909350565b60008060408385031215613672578182fd5b823561367d81614107565b946020939093013593505050565b60008060006060848603121561369f578081fd5b83356136aa81614107565b95602085013595506040909401359392505050565b600080600080608085870312156136d4578182fd5b84356136df81614107565b9350602085013592506040850135915060608501356001600160401b03811115613707578182fd5b6135a9878288016132f3565b60008060408385031215613725578182fd5b82356001600160401b038082111561373b578384fd5b818501915085601f83011261374e578384fd5b8135602061375b82613eca565b6040516137688282613ff4565b8381528281019150858301600585901b870184018b1015613787578889fd5b8896505b848710156137b257803561379e81614107565b83526001969096019591830191830161378b565b50965050860135925050808211156137c8578283fd5b506137d58582860161327f565b9150509250929050565b600060208083850312156137f1578182fd5b82356001600160401b03811115613806578283fd5b8301601f81018513613816578283fd5b803561382181613eca565b6040805161382f8382613ff4565b8381528581019250848601600685901b860187018a101561384e578788fd5b8795505b8486101561389c5782818b031215613868578788fd5b825161387381613fcf565b813581528782013561388481614107565b81890152845260019590950194928601928201613852565b5098975050505050505050565b6000602082840312156138ba578081fd5b813561193e8161411c565b6000602082840312156138d6578081fd5b815161193e8161411c565b6000602082840312156138f2578081fd5b815161193e81614107565b60006020828403121561390e578081fd5b81356001600160401b03811115613923578182fd5b610829848285016132f3565b600060208284031215613940578081fd5b81516001600160401b03811115613955578182fd5b8201601f81018413613965578182fd5b805161397081613eed565b60405161397d8282613ff4565b828152866020848601011115613991578485fd5b6139a2836020830160208701613f68565b9695505050505050565b6000602082840312156139bd578081fd5b5035919050565b6000602082840312156139d5578081fd5b5051919050565b600080604083850312156139ee578182fd5b82359150602083013561339381614107565b60008060408385031215613a12578182fd5b8235915060208301356001600160401b03811115613a2e578182fd5b6137d5858286016132f3565b6000815180845260208085019450808401835b83811015613a6957815187529582019590820190600101613a4d565b509495945050505050565b60008151808452613a8c816020860160208601613f68565b601f01601f19169290920160200192915050565b60008251613ab2818460208701613f68565b9190910192915050565b60008351613ace818460208801613f68565b60609390931b6bffffffffffffffffffffffff19169190920190815260140192915050565b6001600160a01b03848116825283166020820152606060408201819052600090613b1f90830184613a74565b95945050505050565b6001600160a01b0386811682528516602082015260a060408201819052600090613b5490830186613a3a565b8281036060840152613b668186613a3a565b90508281036080840152610b418185613a74565b6001600160a01b03868116825285166020820152604081018490526060810183905260a060808201819052600090613bb490830184613a74565b979650505050505050565b60208152600061193e6020830184613a3a565b604081526000613be56040830185613a3a565b8281036020840152613b1f8185613a3a565b60208152600061193e6020830184613a74565b60208082526028908201527f455243313135353a204552433131353552656365697665722072656a656374656040820152676420746f6b656e7360c01b606082015260800190565b602080825260409082018190527f4173736574436f6e74726163745368617265642363726561746f724f6e6c793a908201527f204f4e4c595f43524541544f525f4f525f474154455741595f414c4c4f574544606082015260800190565b60208082526037908201527f4173736574436f6e7472616374236f6e6c79496d7065726d616e656e7455524960408201527f3a205552495f43414e4e4f545f42455f4348414e474544000000000000000000606082015260800190565b60208082526035908201527f4173736574436f6e74726163745368617265642363726561746f724f6e6c793a6040820152740813d3931657d1d0551155d05657d0531313d5d151605a1b606082015260800190565b60208082526030908201527f455243313135355472616461626c65236f6e6c79417070726f7665643a20434160408201526f1313115497d393d517d0531313d5d15160821b606082015260800190565b60208082526045908201527f4173736574436f6e7472616374536861726564236f6e6c7946756c6c546f6b6560408201527f6e4f776e65723a204f4e4c595f46554c4c5f544f4b454e5f4f574e45525f414c6060820152641313d5d15160da1b608082015260a00190565b6020808252602e908201527f455243313135355472616461626c65236f6e6c794f776e65723a2043414c4c4560408201526d292fa4a9afa727aa2fa7aba722a960911b606082015260800190565b60208082526010908201526f14185d5cd8589b194e881c185d5cd95960821b604082015260600190565b6020808252818101527f4f776e61626c653a2063616c6c6572206973206e6f7420746865206f776e6572604082015260600190565b60006001600160401b03821115613ee357613ee3614051565b5060051b60200190565b60006001600160401b03821115613f0657613f06614051565b50601f01601f191660200190565b60008219821115613f2757613f2761403b565b500190565b600060ff821660ff84168060ff03821115613f4957613f4961403b565b019392505050565b600082821015613f6357613f6361403b565b500390565b60005b83811015613f83578181015183820152602001613f6b565b838111156111bc5750506000910152565b600181811c90821680613fa857607f821691505b60208210811415613fc957634e487b7160e01b600052602260045260246000fd5b50919050565b604081018181106001600160401b0382111715613fee57613fee614051565b60405250565b601f8201601f191681016001600160401b038111828210171561401957614019614051565b6040525050565b60006000198214156140345761403461403b565b5060010190565b634e487b7160e01b600052601160045260246000fd5b634e487b7160e01b600052604160045260246000fd5b600060033d1115611c4757600481823e5160e01c90565b600060443d101561408c5790565b6040516003193d81016004833e81513d6001600160401b0381602484011181841117156140bb57505050505090565b82850191508151818111156140d35750505050505090565b843d87010160208285010111156140ed5750505050505090565b6140fc60208286010187613ff4565b509095945050505050565b6001600160a01b0381168114611a4c57600080fd5b6001600160e01b031981168114611a4c57600080fdfe4d6574615472616e73616374696f6e2875696e74323536206e6f6e63652c616464726573732066726f6d2c62797465732066756e6374696f6e5369676e617475726529a26469706673582212209f7547d4ea48ec2b3ad85a3ed1eca90222863c9b439a4ab91f5204225271fc1764736f6c63430008040033454950373132446f6d61696e28737472696e67206e616d652c737472696e672076657273696f6e2c6164647265737320766572696679696e67436f6e74726163742c627974657333322073616c7429",
  "immutableReferences": {},
  "source": "pragma solidity 0.8.4;\r\n\r\nimport \"./lib/ReentrancyGuard.sol\";\r\nimport \"./lib/AssetContract.sol\";\r\n\r\n/**\r\n * @title AssetContractShared\r\n * OpenSea shared asset contract - A contract for easily creating custom assets on OpenSea\r\n */\r\ncontract MC_AssetContractShared is AssetContract, ReentrancyGuard {\r\n    // Migration contract address\r\n    MC_AssetContractShared public migrationTarget;\r\n\r\n    address public gateway;\r\n\r\n    struct Ownership {\r\n        uint256 id;\r\n        address owner;\r\n    }\r\n\r\n    using TokenIdentifiers for uint256;\r\n\r\n    event CreatorChanged(uint256 indexed _id, address indexed _creator);\r\n\r\n    mapping(uint256 => address) internal _creatorOverride;\r\n\r\n    /**\r\n     * @dev Require msg.sender to be the creator or gateway of the token id\r\n     */\r\n    modifier creatorOnly(uint256 _id) {\r\n        require(\r\n            _isCreator(_id, _msgSender()),\r\n            \"AssetContractShared#creatorOnly: ONLY_CREATOR_OR_GATEWAY_ALLOWED\"\r\n        );\r\n        _;\r\n    }\r\n\r\n    /**\r\n     * @dev Require msg.sender to be the gateway of the token id\r\n     */\r\n    modifier gatewayOnly() {\r\n        require(\r\n            msg.sender == gateway,\r\n            \"AssetContractShared#creatorOnly: ONLY_GATEWAY_ALLOWED\"\r\n        );\r\n        _;\r\n    }\r\n\r\n    /**\r\n     * @dev Require the caller to own the full supply of the token\r\n     */\r\n    modifier onlyFullTokenOwner(uint256 _id) {\r\n        require(\r\n            _ownsTokenAmount(_msgSender(), _id, _id.tokenMaxSupply()),\r\n            \"AssetContractShared#onlyFullTokenOwner: ONLY_FULL_TOKEN_OWNER_ALLOWED\"\r\n        );\r\n        _;\r\n    }\r\n\r\n    constructor(\r\n        string memory _name,\r\n        string memory _symbol,\r\n        string memory _templateURI,\r\n        address _migrationAddress\r\n    ) AssetContract(_name, _symbol, address(0), _templateURI) {\r\n        migrationTarget = MC_AssetContractShared(_migrationAddress);\r\n    }\r\n\r\n    function setGateway(address gateway_) external onlyOwner {\r\n        gateway = gateway_;\r\n    }\r\n\r\n    /**\r\n     * @dev Allows owner to disable the ability to migrate\r\n     */\r\n    function disableMigrate() public onlyOwner {\r\n        migrationTarget = MC_AssetContractShared(address(0));\r\n    }\r\n\r\n    /**\r\n     * @dev Migrate state from previous contract\r\n     */\r\n    function migrate(Ownership[] memory _ownerships) public onlyOwner {\r\n        MC_AssetContractShared _migrationTarget = migrationTarget;\r\n        require(\r\n            _migrationTarget != MC_AssetContractShared(address(0)),\r\n            \"AssetContractShared#migrate: MIGRATE_DISABLED\"\r\n        );\r\n\r\n        string memory _migrationTargetTemplateURI = _migrationTarget\r\n            .templateURI();\r\n\r\n        for (uint256 i = 0; i < _ownerships.length; ++i) {\r\n            uint256 id = _ownerships[i].id;\r\n            address owner = _ownerships[i].owner;\r\n\r\n            require(\r\n                owner != address(0),\r\n                \"AssetContractShared#migrate: ZERO_ADDRESS_NOT_ALLOWED\"\r\n            );\r\n\r\n            uint256 previousAmount = _migrationTarget.balanceOf(owner, id);\r\n\r\n            if (previousAmount == 0) {\r\n                continue;\r\n            }\r\n\r\n            _mint(owner, id, previousAmount, \"\");\r\n\r\n            if (\r\n                keccak256(bytes(_migrationTarget.uri(id))) !=\r\n                keccak256(bytes(_migrationTargetTemplateURI))\r\n            ) {\r\n                _setPermanentURI(id, _migrationTarget.uri(id));\r\n            }\r\n        }\r\n    }\r\n\r\n    function mint(\r\n        address _to,\r\n        uint256 _id,\r\n        uint256 _quantity,\r\n        bytes memory _data\r\n    ) public override nonReentrant gatewayOnly {\r\n        _mint(_to, _id, _quantity, _data);\r\n    }\r\n\r\n    function batchMint(\r\n        address _to,\r\n        uint256[] memory _ids,\r\n        uint256[] memory _quantities,\r\n        bytes memory _data\r\n    ) public override nonReentrant gatewayOnly {\r\n        _batchMint(_to, _ids, _quantities, _data);\r\n    }\r\n\r\n    /////////////////////////////////\r\n    // CONVENIENCE CREATOR METHODS //\r\n    /////////////////////////////////\r\n\r\n    /**\r\n     * @dev Will update the URI for the token\r\n     * @param _id The token ID to update. msg.sender must be its creator, the uri must be impermanent,\r\n     *            and the creator must own all of the token supply\r\n     * @param _uri New URI for the token.\r\n     */\r\n    function setURI(uint256 _id, string memory _uri)\r\n        public\r\n        override\r\n        creatorOnly(_id)\r\n        onlyImpermanentURI(_id)\r\n        onlyFullTokenOwner(_id)\r\n    {\r\n        _setURI(_id, _uri);\r\n    }\r\n\r\n    /**\r\n     * @dev setURI, but permanent\r\n     */\r\n    function setPermanentURI(uint256 _id, string memory _uri)\r\n        public\r\n        override\r\n        creatorOnly(_id)\r\n        onlyImpermanentURI(_id)\r\n        onlyFullTokenOwner(_id)\r\n    {\r\n        _setPermanentURI(_id, _uri);\r\n    }\r\n\r\n    /**\r\n     * @dev Change the creator address for given token\r\n     * @param _to   Address of the new creator\r\n     * @param _id  Token IDs to change creator of\r\n     */\r\n    function setCreator(uint256 _id, address _to) public creatorOnly(_id) {\r\n        require(\r\n            _to != address(0),\r\n            \"AssetContractShared#setCreator: INVALID_ADDRESS.\"\r\n        );\r\n        _creatorOverride[_id] = _to;\r\n        emit CreatorChanged(_id, _to);\r\n    }\r\n\r\n    /**\r\n     * @dev Get the creator for a token\r\n     * @param _id   The token id to look up\r\n     */\r\n    function creator(uint256 _id) public view returns (address) {\r\n        if (_creatorOverride[_id] != address(0)) {\r\n            return _creatorOverride[_id];\r\n        } else {\r\n            return _id.tokenCreator();\r\n        }\r\n    }\r\n\r\n    /**\r\n     * @dev Get the maximum supply for a token\r\n     * @param _id   The token id to look up\r\n     */\r\n    function maxSupply(uint256 _id) public pure returns (uint256) {\r\n        return _id.tokenMaxSupply();\r\n    }\r\n\r\n    // Override ERC1155Tradable for birth events\r\n    function _origin(uint256 _id) internal pure override returns (address) {\r\n        return _id.tokenCreator();\r\n    }\r\n\r\n    function _requireMintable(address _address, uint256 _id) internal view {\r\n        require(\r\n            _isCreator(_id, _address),\r\n            \"AssetContractShared#_requireMintable: ONLY_CREATOR_ALLOWED\"\r\n        );\r\n    }\r\n\r\n    function _remainingSupply(uint256 _id)\r\n        internal\r\n        view\r\n        override\r\n        returns (uint256)\r\n    {\r\n        return maxSupply(_id) - totalSupply(_id);\r\n    }\r\n\r\n    function _isCreator(uint256 _id, address _address)\r\n        internal\r\n        view\r\n        returns (bool)\r\n    {\r\n        address creator_ = creator(_id);\r\n        return creator_ == _address;\r\n    }\r\n}\r\n",
  "sourcePath": "D:\\anycallapp\\multichain-pegged-openstore\\destchain\\contracts\\MCPeggedOpenstore.sol",
  "compiler": {
    "name": "solc",
    "version": "0.8.4+commit.c7e474f2.Emscripten.clang"
  },
  "schemaVersion": "3.4.8",
  "updatedAt": "2022-07-12T05:05:27.488Z",
  "devdoc": {
    "kind": "dev",
    "methods": {
      "balanceOfBatch(address[],uint256[])": {
        "details": "See {IERC1155-balanceOfBatch}. Requirements: - `accounts` and `ids` must have the same length."
      },
      "batchBurn(address,uint256[],uint256[])": {
        "details": "Burns tokens for each id in _ids",
        "params": {
          "_from": "The address to burn tokens from",
          "_ids": "Array of token ids to burn",
          "_quantities": "Array of the amount to be burned"
        }
      },
      "batchMint(address,uint256[],uint256[],bytes)": {
        "details": "Mint tokens for each id in _ids",
        "params": {
          "_data": "Data to pass if receiver is contract",
          "_ids": "Array of ids to mint",
          "_quantities": "Array of amounts of tokens to mint per id",
          "_to": "The address to mint tokens to"
        }
      },
      "burn(address,uint256,uint256)": {
        "details": "Burns amount of a given token id",
        "params": {
          "_from": "The address to burn tokens from",
          "_id": "Token ID to burn",
          "_quantity": "Amount to burn"
        }
      },
      "creator(uint256)": {
        "details": "Get the creator for a token",
        "params": {
          "_id": "The token id to look up"
        }
      },
      "disableMigrate()": {
        "details": "Allows owner to disable the ability to migrate"
      },
      "exists(uint256)": {
        "details": "Returns whether the specified token is minted",
        "params": {
          "_id": "uint256 ID of the token to query the existence of"
        },
        "returns": {
          "_0": "bool whether the token exists"
        }
      },
      "maxSupply(uint256)": {
        "details": "Get the maximum supply for a token",
        "params": {
          "_id": "The token id to look up"
        }
      },
      "migrate((uint256,address)[])": {
        "details": "Migrate state from previous contract"
      },
      "mint(address,uint256,uint256,bytes)": {
        "details": "Mints some amount of tokens to an address",
        "params": {
          "_data": "Data to pass if receiver is contract",
          "_id": "Token ID to mint",
          "_quantity": "Amount of tokens to mint",
          "_to": "Address of the future owner of the token"
        }
      },
      "owner()": {
        "details": "Returns the address of the current owner."
      },
      "paused()": {
        "details": "Returns true if the contract is paused, and false otherwise."
      },
      "renounceOwnership()": {
        "details": "Leaves the contract without owner. It will not be possible to call `onlyOwner` functions anymore. Can only be called by the current owner. NOTE: Renouncing ownership will leave the contract without an owner, thereby removing any functionality that is only available to the owner."
      },
      "setApprovalForAll(address,bool)": {
        "details": "See {IERC1155-setApprovalForAll}."
      },
      "setCreator(uint256,address)": {
        "details": "Change the creator address for given token",
        "params": {
          "_id": "Token IDs to change creator of",
          "_to": "Address of the new creator"
        }
      },
      "setPermanentURI(uint256,string)": {
        "details": "setURI, but permanent"
      },
      "setURI(uint256,string)": {
        "details": "Will update the URI for the token",
        "params": {
          "_id": "The token ID to update. msg.sender must be its creator, the uri must be impermanent,            and the creator must own all of the token supply",
          "_uri": "New URI for the token."
        }
      },
      "supportsInterface(bytes4)": {
        "details": "See {IERC165-supportsInterface}."
      },
      "totalSupply(uint256)": {
        "details": "Returns the total quantity for a token ID",
        "params": {
          "_id": "uint256 ID of the token to query"
        },
        "returns": {
          "_0": "amount of token in existence"
        }
      },
      "transferOwnership(address)": {
        "details": "Transfers ownership of the contract to a new account (`newOwner`). Can only be called by the current owner."
      }
    },
    "title": "AssetContractShared OpenSea shared asset contract - A contract for easily creating custom assets on OpenSea",
    "version": 1
  },
  "userdoc": {
    "kind": "user",
    "methods": {
      "isApprovedForAll(address,address)": {
        "notice": "Override isApprovedForAll to whitelist user's OpenSea proxy accounts to enable gas-free listings."
      },
      "supportsFactoryInterface()": {
        "notice": "Compat for factory interfaces on OpenSea Indicates that this contract can return balances for tokens that haven't been minted yet"
      }
    },
    "version": 1
  }
}