{
  "contractName": "NativeMetaTransaction",
  "abi": [
    {
      "anonymous": false,
      "inputs": [
        {
          "indexed": false,
          "internalType": "address",
          "name": "userAddress",
          "type": "address"
        },
        {
          "indexed": false,
          "internalType": "address payable",
          "name": "relayerAddress",
          "type": "address"
        },
        {
          "indexed": false,
          "internalType": "bytes",
          "name": "functionSignature",
          "type": "bytes"
        }
      ],
      "name": "MetaTransactionExecuted",
      "type": "event"
    },
    {
      "inputs": [],
      "name": "ERC712_VERSION",
      "outputs": [
        {
          "internalType": "string",
          "name": "",
          "type": "string"
        }
      ],
      "stateMutability": "view",
      "type": "function"
    },
    {
      "inputs": [],
      "name": "getChainId",
      "outputs": [
        {
          "internalType": "uint256",
          "name": "",
          "type": "uint256"
        }
      ],
      "stateMutability": "view",
      "type": "function"
    },
    {
      "inputs": [],
      "name": "getDomainSeperator",
      "outputs": [
        {
          "internalType": "bytes32",
          "name": "",
          "type": "bytes32"
        }
      ],
      "stateMutability": "view",
      "type": "function"
    },
    {
      "inputs": [
        {
          "internalType": "address",
          "name": "userAddress",
          "type": "address"
        },
        {
          "internalType": "bytes",
          "name": "functionSignature",
          "type": "bytes"
        },
        {
          "internalType": "bytes32",
          "name": "sigR",
          "type": "bytes32"
        },
        {
          "internalType": "bytes32",
          "name": "sigS",
          "type": "bytes32"
        },
        {
          "internalType": "uint8",
          "name": "sigV",
          "type": "uint8"
        }
      ],
      "name": "executeMetaTransaction",
      "outputs": [
        {
          "internalType": "bytes",
          "name": "",
          "type": "bytes"
        }
      ],
      "stateMutability": "payable",
      "type": "function"
    },
    {
      "inputs": [
        {
          "internalType": "address",
          "name": "user",
          "type": "address"
        }
      ],
      "name": "getNonce",
      "outputs": [
        {
          "internalType": "uint256",
          "name": "nonce",
          "type": "uint256"
        }
      ],
      "stateMutability": "view",
      "type": "function"
    }
  ],
  "bytecode": "0x60806040526000805460ff1916905534801561001a57600080fd5b5061075e8061002a6000396000f3fe60806040526004361061004a5760003560e01c80630c53c51c1461004f5780630f7e59701461007857806320379ee5146100a55780632d0335ab146100c45780633408e470146100fa575b600080fd5b61006261005d3660046104d5565b61010d565b60405161006f9190610668565b60405180910390f35b34801561008457600080fd5b50610062604051806040016040528060018152602001603160f81b81525081565b3480156100b157600080fd5b506001545b60405190815260200161006f565b3480156100d057600080fd5b506100b66100df3660046104b4565b6001600160a01b031660009081526002602052604090205490565b34801561010657600080fd5b50466100b6565b60408051606081810183526001600160a01b0388166000818152600260209081529085902054845283015291810186905261014b87828787876102ea565b6101a65760405162461bcd60e51b815260206004820152602160248201527f5369676e657220616e64207369676e617475726520646f206e6f74206d6174636044820152600d60fb1b60648201526084015b60405180910390fd5b6001600160a01b03871660009081526002602052604081208054600192906101cf90849061067b565b90915550506040517f5845892132946850460bff5a0083f71031bc5bf9aadcd40f1de79423eac9b10b9061020890899033908a90610633565b60405180910390a1600080306001600160a01b0316888a6040516020016102309291906105fc565b60408051601f198184030181529082905261024a916105e0565b6000604051808303816000865af19150503d8060008114610287576040519150601f19603f3d011682016040523d82523d6000602084013e61028c565b606091505b5091509150816102de5760405162461bcd60e51b815260206004820152601c60248201527f46756e6374696f6e2063616c6c206e6f74207375636365737366756c00000000604482015260640161019d565b98975050505050505050565b60006001600160a01b0386166103505760405162461bcd60e51b815260206004820152602560248201527f4e61746976654d6574615472616e73616374696f6e3a20494e56414c49445f5360448201526424a3a722a960d91b606482015260840161019d565b600161036361035e876103da565b610457565b6040805160008152602081018083529290925260ff851690820152606081018690526080810185905260a0016020604051602081039080840390855afa1580156103b1573d6000803e3d6000fd5b505050602060405103516001600160a01b0316866001600160a01b031614905095945050505050565b60006040518060800160405280604381526020016106e6604391398051602091820120835184830151604080870151805190860120905161043a950193845260208401929092526001600160a01b03166040830152606082015260800190565b604051602081830303815290604052805190602001209050919050565b600061046260015490565b60405161190160f01b602082015260228101919091526042810183905260620161043a565b80356001600160a01b038116811461049e57600080fd5b919050565b803560ff8116811461049e57600080fd5b6000602082840312156104c5578081fd5b6104ce82610487565b9392505050565b600080600080600060a086880312156104ec578081fd5b6104f586610487565b9450602086013567ffffffffffffffff80821115610511578283fd5b818801915088601f830112610524578283fd5b813581811115610536576105366106cf565b604051601f8201601f19908116603f0116810190838211818310171561055e5761055e6106cf565b816040528281528b6020848701011115610576578586fd5b82602086016020830137918201602001859052509550505060408601359250606086013591506105a8608087016104a3565b90509295509295909350565b600081518084526105cc81602086016020860161069f565b601f01601f19169290920160200192915050565b600082516105f281846020870161069f565b9190910192915050565b6000835161060e81846020880161069f565b60609390931b6bffffffffffffffffffffffff19169190920190815260140192915050565b6001600160a01b0384811682528316602082015260606040820181905260009061065f908301846105b4565b95945050505050565b6020815260006104ce60208301846105b4565b6000821982111561069a57634e487b7160e01b81526011600452602481fd5b500190565b60005b838110156106ba5781810151838201526020016106a2565b838111156106c9576000848401525b50505050565b634e487b7160e01b600052604160045260246000fdfe4d6574615472616e73616374696f6e2875696e74323536206e6f6e63652c616464726573732066726f6d2c62797465732066756e6374696f6e5369676e617475726529a2646970667358221220a1efc0707a4a37b2e71ed0623c615aab377adb7c71c9ca04dd46fb91bf173bd764736f6c63430008040033",
  "immutableReferences": {},
  "source": "// File: contracts/common/meta-transactions/Initializable.sol\r\n// File: contracts/common/meta-transactions/EIP712Base.sol\r\n// File: contracts/common/meta-transactions/NativeMetaTransaction.sol\r\n\r\npragma solidity 0.8.4;\r\n\r\ncontract Initializable {\r\n    bool inited = false;\r\n\r\n    modifier initializer() {\r\n        require(!inited, \"already inited\");\r\n        _;\r\n        inited = true;\r\n    }\r\n}\r\n\r\ncontract EIP712Base is Initializable {\r\n    struct EIP712Domain {\r\n        string name;\r\n        string version;\r\n        address verifyingContract;\r\n        bytes32 salt;\r\n    }\r\n\r\n    string public constant ERC712_VERSION = \"1\";\r\n\r\n    bytes32 internal constant EIP712_DOMAIN_TYPEHASH =\r\n        keccak256(\r\n            bytes(\r\n                \"EIP712Domain(string name,string version,address verifyingContract,bytes32 salt)\"\r\n            )\r\n        );\r\n    bytes32 internal domainSeperator;\r\n\r\n    // supposed to be called once while initializing.\r\n    // one of the contracts that inherits this contract follows proxy pattern\r\n    // so it is not possible to do this in a constructor\r\n    function _initializeEIP712(string memory name) internal initializer {\r\n        _setDomainSeperator(name);\r\n    }\r\n\r\n    function _setDomainSeperator(string memory name) internal {\r\n        domainSeperator = keccak256(\r\n            abi.encode(\r\n                EIP712_DOMAIN_TYPEHASH,\r\n                keccak256(bytes(name)),\r\n                keccak256(bytes(ERC712_VERSION)),\r\n                address(this),\r\n                bytes32(getChainId())\r\n            )\r\n        );\r\n    }\r\n\r\n    function getDomainSeperator() public view returns (bytes32) {\r\n        return domainSeperator;\r\n    }\r\n\r\n    function getChainId() public view returns (uint256) {\r\n        uint256 id;\r\n        assembly {\r\n            id := chainid()\r\n        }\r\n        return id;\r\n    }\r\n\r\n    /**\r\n     * Accept message hash and returns hash message in EIP712 compatible form\r\n     * So that it can be used to recover signer from signature signed using EIP712 formatted data\r\n     * https://eips.ethereum.org/EIPS/eip-712\r\n     * \"\\\\x19\" makes the encoding deterministic\r\n     * \"\\\\x01\" is the version byte to make it compatible to EIP-191\r\n     */\r\n    function toTypedMessageHash(bytes32 messageHash)\r\n        internal\r\n        view\r\n        returns (bytes32)\r\n    {\r\n        return\r\n            keccak256(\r\n                abi.encodePacked(\"\\x19\\x01\", getDomainSeperator(), messageHash)\r\n            );\r\n    }\r\n}\r\n\r\ncontract NativeMetaTransaction is EIP712Base {\r\n    bytes32 private constant META_TRANSACTION_TYPEHASH =\r\n        keccak256(\r\n            bytes(\r\n                \"MetaTransaction(uint256 nonce,address from,bytes functionSignature)\"\r\n            )\r\n        );\r\n    event MetaTransactionExecuted(\r\n        address userAddress,\r\n        address payable relayerAddress,\r\n        bytes functionSignature\r\n    );\r\n    mapping(address => uint256) nonces;\r\n\r\n    /*\r\n     * Meta transaction structure.\r\n     * No point of including value field here as if user is doing value transfer then he has the funds to pay for gas\r\n     * He should call the desired function directly in that case.\r\n     */\r\n    struct MetaTransaction {\r\n        uint256 nonce;\r\n        address from;\r\n        bytes functionSignature;\r\n    }\r\n\r\n    function executeMetaTransaction(\r\n        address userAddress,\r\n        bytes memory functionSignature,\r\n        bytes32 sigR,\r\n        bytes32 sigS,\r\n        uint8 sigV\r\n    ) external payable returns (bytes memory) {\r\n        MetaTransaction memory metaTx = MetaTransaction({\r\n            nonce: nonces[userAddress],\r\n            from: userAddress,\r\n            functionSignature: functionSignature\r\n        });\r\n\r\n        require(\r\n            verify(userAddress, metaTx, sigR, sigS, sigV),\r\n            \"Signer and signature do not match\"\r\n        );\r\n\r\n        // increase nonce for user (to avoid re-use)\r\n        nonces[userAddress] += 1;\r\n\r\n        emit MetaTransactionExecuted(\r\n            userAddress,\r\n            payable(msg.sender),\r\n            functionSignature\r\n        );\r\n\r\n        // Append userAddress and relayer address at the end to extract it from calling context\r\n        (bool success, bytes memory returnData) = address(this).call(\r\n            abi.encodePacked(functionSignature, userAddress)\r\n        );\r\n        require(success, \"Function call not successful\");\r\n\r\n        return returnData;\r\n    }\r\n\r\n    function hashMetaTransaction(MetaTransaction memory metaTx)\r\n        internal\r\n        pure\r\n        returns (bytes32)\r\n    {\r\n        return\r\n            keccak256(\r\n                abi.encode(\r\n                    META_TRANSACTION_TYPEHASH,\r\n                    metaTx.nonce,\r\n                    metaTx.from,\r\n                    keccak256(metaTx.functionSignature)\r\n                )\r\n            );\r\n    }\r\n\r\n    function getNonce(address user) public view returns (uint256 nonce) {\r\n        nonce = nonces[user];\r\n    }\r\n\r\n    function verify(\r\n        address signer,\r\n        MetaTransaction memory metaTx,\r\n        bytes32 sigR,\r\n        bytes32 sigS,\r\n        uint8 sigV\r\n    ) internal view returns (bool) {\r\n        require(signer != address(0), \"NativeMetaTransaction: INVALID_SIGNER\");\r\n        return\r\n            signer ==\r\n            ecrecover(\r\n                toTypedMessageHash(hashMetaTransaction(metaTx)),\r\n                sigV,\r\n                sigR,\r\n                sigS\r\n            );\r\n    }\r\n}\r\n",
  "sourcePath": "D:\\anycallapp\\multichain-pegged-openstore\\destchain\\contracts\\lib\\MetaTransaction.sol",
  "compiler": {
    "name": "solc",
    "version": "0.8.4+commit.c7e474f2.Emscripten.clang"
  },
  "schemaVersion": "3.4.8",
  "updatedAt": "2022-07-12T05:05:27.648Z",
  "devdoc": {
    "kind": "dev",
    "methods": {},
    "version": 1
  },
  "userdoc": {
    "kind": "user",
    "methods": {},
    "version": 1
  }
}